:100000000C9409050C9441050C9441050C94410590
:100010000C9441050C9441050C9441050C94410548
:100020000C9441050C9441050C94FE230C94B922C8
:100030000C940D260C9441050C9441050C9441053B
:100040000C9441050C9441050C9441050C94410518
:100050000C9441050C94C0250C9441050C94410569
:100060000C9441050C9441050C9441050C944105F8
:100070000C9441050C9441050C9441050C944105E8
:100080000C9441050C9441050C9441050C944105D8
:100090000C9441050C9441050C9441050C944105C8
:1000A0000C9441050C9441050C94410597099A095B
:1000B000D609F009F609010A040A040A040A310BF8
:1000C000310B750A770A7B0AA20AC60AC90ACC0A4A
:1000D000F30A170B220B220E960E2A0EF40DF80DC2
:1000E0002E0EFB0D310E3C0E060E8C0E0A0E400E2F
:1000F0000E0E440E6E0E120E480E780E180E4E0E98
:10010000580EFF0D350E020E380E1D0E530E640EE6
:10011000840E860EF00D260E9F0EC90ED90EDE0E31
:10012000E30EE80EED0EF20EF70EFC0E010F060FB9
:100130000D0F100F130F160FA80DA80DA80DA80D69
:10014000A80DA80DA50FA50FDB0FDB0F7310A411D1
:10015000A411A4118F100511171117114514F813CC
:100160006514A914F2144015431548154B15501584
:10017000531558155B155E156115641567156A15DD
:100180006D1570157515C0150E16B6167C177F17F0
:1001900084178F1792179D17A017AB17AE17B917B3
:1001A000BC17C717CD17CF1BF61BAA1DF61BAA1D20
:1001B000421C651CAA1D5B1D6B1D00000000000099
:1001C000000000000000000000000000000000002F
:1001D00000000000000000000000000000007E0F92
:1001E00000D4FFFFFFC700000078000000000000FF
:1001F00000002A2B28000000000000000000000082
:10020000000000000029000000002C1E34202122E4
:1002100024342627252E362D3738271E1F2021224D
:10022000232425263333362E37381F0405060708C6
:10023000090A0B0C0D0E0F101112131415161718B6
:10024000191A1B1C1D2F3130232D350405060708F4
:10025000090A0B0C0D0E0F10111213141516171896
:10026000191A1B1C1D2F3130354C05010980A101C5
:10027000850319012AB700150126B70095017510ED
:100280008100C0050C0901A101850419012AA00201
:10029000150126A002950175108100C0050109060F
:1002A000A1018507050719E029E715002501950833
:1002B000750181020507190029EF1500250195F048
:1002C000750181020508190129059505750191023D
:1002D000950175039101C00659FF0960A1010962EA
:1002E000150026FF00954075088102096315002658
:1002F000FF00954075089102C00660FF0961A101E9
:100300000962150026FF0095207508810209631512
:100310000026FF00952075089102C005010906A17D
:1003200001050719E029E7150025019508750181E8
:10033000029501750881010507190029FF1500269E
:10034000FF00950675088100050819012905950526
:1003500075019102950175039101C009027B0004AA
:100360000100A0FA090400000103010100092111A4
:100370000100012240000705810308000109040172
:1003800000020300000009211101000122220007E0
:100390000582032000010705030320000109040270
:1003A00000020300000009211101000122220007C0
:1003B000058403400001070505034000010904030B
:1003C000000103000000092111010001226D000756
:1003D0000586032000011201000200000008E7F278
:1003E00026120100010200010A0349004B003700F8
:1003F000350000000C03460065006B0065007200CC
:1004000000000403090429003A003B003C003D00C1
:100410003E003F00400041004200430044004500D0
:100420004C000000000035001E001F0020002100CD
:100430002200230024002500260027002D002E0086
:100440002A00000049002B0014001A0008001500C3
:1004500017001C0018000C00120013002F003000C1
:10046000310000004D0039000400160007000900AB
:100470000A000B000D000E000F00330034000000D6
:1004800028004B004E00E10000001D001B0006008C
:100490001900050011001000360037003800000078
:1004A000E5005200A800E000E300E20000000000C8
:1004B00000002C0000000000E40021520000E600D3
:1004C000500051004F00007CB300B500B20077002F
:1004D000AC00AB00AE00AD00A800AA00A900B100BE
:1004E0000100000000001370010001000100010084
:1004F0000100010001000100010001002A782978B3
:10050000010000002178010001000100010001004C
:10051000010001000100010001004600010001008E
:1005200001000000237801000100470001000100E4
:1005300001000100010001000100010001000000B4
:10054000010025782678010000000100010001006B
:100550000100010053000100010001000100000042
:1005600001002778207801000B70010000000000D6
:100570000000010000000000010001000000010077
:1005800001002878010001000100010001000100C4
:100590000100010001000100010001000100010053
:1005A0000100000000000100010001000100010045
:1005B0000100010001000100010001000100010033
:1005C0000100000001000100010001000100010024
:1005D0000100010001000100010001000100010013
:1005E0000100000001000100010001000100010004
:1005F00001000100010001000100010001000000F4
:1006000001000100010001000000010001000100E3
:1006100001000100010001000100010001000000D3
:1006200001000100010001000100010000000000C4
:1006300000000100000000000100010000000100B6
:1006400001000100010001000100010001000100A2
:100650000100010001000100010001000100010092
:100660000100000000000100010001000100010084
:100670000100010001000100010001000100010072
:100680000100000001000100010001000100010063
:100690000100010001000100010001000100010052
:1006A0000100000001000100010001000100010043
:1006B0000100010001000100010001000100000033
:1006C0000100010001000100000001000100010023
:1006D0000100010001000100010001000100000013
:1006E0000100010001000100010001000000000004
:1006F00000000100000000000100010000000100F6
:10070000010001000100A900AA0001000100010090
:100710000100010001000000201000012111000271
:1007200022120003231300042414000525150006DB
:100730002616000727170008281800092919000A9B
:100740002A1A000B2B1B000C2C1C000D2D1D000E5B
:100750002E1E000F2F1F003050400031514100323B
:10076000524200335343003454440035554500365B
:100770005646003757470038584800395949003A1B
:100780005A4A003B5B4B003C5C4C003D5D4D003EDB
:100790005E4E003F5F4F00608070006181710062BB
:1007A00082720063837300648474006585750066DB
:1007B0008676006787770068887800698979006A9B
:1007C0008A7A006B8B7B006C8C7C006D8D7D006E5B
:1007D0008E7E006F8F7F0090B0A00092B2A2009337
:1007E000B3A30094B4A40095B5A50096B6A600974F
:1007F000B7A70098B8A80099B9A9009ABAAA009B0F
:10080000BBAB009CBCAC009DBDAD009EBEAE009FCE
:10081000BFAF0100201001012111010222120103CA
:1008200023130104241401052515010626160107CA
:1008300027170108281801092919010A2A1A010B8A
:100840002B1B010C2C1C010D2D1D010E2E1E010F4A
:100850002F1F0130504001315141013252420133CA
:10086000534301345444013555450136564601374A
:1008700057470138584801395949013A5A4A013B0A
:100880005B4B013C5C4C013D5D4D013E5E4E013FCA
:100890005F4F01608070016181710162827201634A
:1008A00083730164847401658575016686760167CA
:1008B00087770168887801698979016A8A7A016B8A
:1008C0008B7B016C8C7C016D8D7D016E8E7E016F4A
:1008D0008F7F0190B0A00191B1A10192B2A20193CA
:1008E000B3A30194B4A40195B5A50196B6A601974A
:1008F000B7A70198B8A80199B9A9019ABAAA019B0A
:10090000BBAB019CBCAC019DBDAD019EBEAE019FC9
:10091000BFAF000101010101010101010202020258
:100920000202020202030303030303030304040499
:100930000404040405050505050606060606070762
:1009400007070708080808090909090A0A0A0B0B1A
:100950000B0C0C0C0D0D0D0E0E0E0F0F0F101011B9
:10096000111112121313141415151616171718183F
:1009700019191A1A1B1B1C1D1D1E1E1F20202122A7
:1009800022232424252626272829292A2B2C2D2DED
:100990002E2F30313232333435363738393A3B3C0A
:1009A0003D3E3F404142434445464748494A4C4DFD
:1009B0004E4F50515354555658595A5B5D5E5F61C6
:1009C0006264656668696B6C6D6F70727375777859
:1009D0007A7B7D7E8082838587888A8C8E8F9193B7
:1009E0009596989A9C9EA0A2A3A5A7A9ABADAFB1DE
:1009F000B3B5B7BABCBEC0C2C4C6C9CBCDCFD1D4C3
:100A0000D6D8DBDDDFE2E4E7E9EBEEF0F3F5F8FA68
:100A1000FDFF11241FBECFEFDAE0DEBFCDBF04B66D
:100A200003FE18C08091B9089091BA08A091BB0844
:100A3000B091BC088730904BA740B04B59F410924E
:100A4000B9081092BA081092BB081092BC08E0E0F6
:100A5000F8E3099515E0A0E0B1E0E2E6F9E602C0AE
:100A600005900D92A830B107D9F728E0A8E0B5E0CD
:100A700001C01D92A93BB207E1F70E9443050C9407
:100A8000AF340C940000AEE6B0E0E9E4F5E00C947D
:100A9000273385B7806885BF85B7806885BF84B7F1
:100AA000877F84BF0FB6F894A89580916000886115
:100AB00080936000109260000FBE90E080E80FB657
:100AC000F89480936100909361000FBE82EC9DE1E9
:100AD00090930905809308050E94FD220E94A3239C
:100AE0008091E20084608093E20078948091EC052C
:100AF0008823A1F01091E9001F709091EC00892FDC
:100B0000817090FD80E8182B1092E9008091E80038
:100B100083FD0E94ED1A1F701093E90082E084BDEE
:100B200093E095BD9AEF97BD80936E000E94482C8C
:100B3000811102C00E94382C81E0809326053E98E6
:100B4000469A3F98479A8FE891E00197F1F700C0E5
:100B5000000050912605E7E2F5E040E0451799F0E6
:100B600086B186FB882780F926B130E0220F232F3B
:100B7000221F330B232B11F092E001C090E0892B50
:100B800081934F5FEBCF00EB12E060ECE62E62E06A
:100B9000F62ED8018D918D018F3F11F00E94A31E7A
:100BA000E016F106B1F700EC12E0F80181918F0137
:100BB0008F3F11F00E94A31EF2E0063C1F07A9F729
:100BC0008CE0E9E2F5E0DF01282F1D922A95E9F794
:100BD000EAE0F5E0DF011D928A95E9F70E94F71F30
:100BE000811102C00E94032082E090E00E94D33372
:100BF0008093170584E090E00E94DB339093C70652
:100C00008093C6060E94FE21BFEFE6E7F1E0B150F7
:100C1000E040F040E1F700C000000E94FE2180911A
:100C2000290580FF08C06FEF7FEF80E090E00E9411
:100C30000F340E949C2583E090E00E94D3330E94F1
:100C4000F1290E94B72C10920206EBE1F6E08BE24C
:100C500096E02FEF3FEF219331938E179F07D9F73F
:100C600010923605EFE4F5E08FE595E02FEF3FEFCA
:100C7000219331938E179F07D9F70E94F71F811197
:100C800004C00E9403200E94D93081E08093F006C6
:100C900048E050E068E170E08AEF95E00E94C333DD
:100CA0001092F0068091FA058E7F11F40E94D930DF
:100CB00084E091E09093BE068093BD068091EC05A0
:100CC000853009F04AC050E4F52E00E112E1809130
:100CD000EC05853009F03DC08091EC05843029F1A8
:100CE0000E94EA121092C10628E130E00FB6F89493
:100CF000A895209360000FBEF092600083B7817FBB
:100D0000846083BF83B7816083BF7894889583B7FD
:100D10008E7F83BF0FB6F894A8958091600088619C
:100D200080936000109260000FBE8091EB058823D5
:100D300009F4CDCF0E94FE21E9E2F5E08191919185
:100D4000892B09F031C545E355E04E175F07B1F730
:100D5000BECF0E94F4290E94DD260E94FE2188E178
:100D600095E0A1969FAF8EAFA197A9E2B5E0AA96B4
:100D7000BFAFAEAFAA9724E235E0FC01419151919B
:100D80008D919D91842795272E173F0719F0892B68
:100D9000A9F305C0892B19F40E944821ADC1E8E6EA
:100DA000F5E0A596FFAFEEAFA5974AEE242E42E000
:100DB000342ED12CAA96AEADBFADAA97ED91FD9180
:100DC000AA96BFAFAEAFAA97A396FFAFEEAFA39719
:100DD000A196AEADBFADA1978D919C91E827F92763
:100DE000A796FFAFEEAFA797EF2B09F469C1E12CEF
:100DF000F12C44244394512CAB96EFAEAB97A796BD
:100E00008EAD9FADA79784219521892B09F444C10C
:100E1000A3968EAC9FACA397842095206A96EFAEE4
:100E20006A976B96DFAE6B970E9401266D969FAF17
:100E30008EAF6D97B1E06E96BFAF6E9791E0811463
:100E4000910409F490E06F969FAF6F976A964FAD4B
:100E50006A976B965FAD6B976C966FAD6C976D965E
:100E60007FAD6D976E968FAD6E970E942E12811496
:100E7000910461F0F101EE0DFF1D80818F3F31F093
:100E8000A8968FAFA8977724739401C0712C072D73
:100E900010E080913605F801E80FF11D3997ACF1AB
:100EA00088E0A82EB12CA01AB10AB8016F5F7F4F5D
:100EB0006A5C7A4FA50187E395E00E94A634B801E9
:100EC000675F7F4F6A5C7A4FA5018FE395E00E94D0
:100ED000A634A501440F551FB801660F771F675E42
:100EE0007F4F6A5C7A4F8FE495E00E94A634B80188
:100EF0006F5E7F4F6A5C7A4FA50187E495E00E94A0
:100F0000A63488E08719809336058091360590E0F5
:100F1000A896FFADA897AF2FB0E09D01220F331F19
:100F2000265B3C4FAA0FBB1FBD01655B7C4F41E0B8
:100F3000480F9715C0F490E0FC01EA5CFA4FD90124
:100F40005C915183DB015C915187A896BFADA89756
:100F5000B18B880F991FFC01EA5CFA4F128E118E3B
:100F600091E0842FE4CF80933605892809F494C05A
:100F70008091FA058E7F8C3209F08EC0F101EE0D62
:100F8000FF1D80818F3F09F487C07AEEA72E72E0A3
:100F9000B72EE8E66E2EE5E07E2EC12C90E09C0197
:100FA000220F331FF901E65BFC4FAD96FFAFEEAFAA
:100FB000AD97255B3C4FAF963FAF2EAFAF97A59651
:100FC0008EAC9FACA5978E0C9F1C00E010E0F50145
:100FD000E00FF11F80818F3F09F44EC0DC100DC07F
:100FE000AB963FADAB97301308C0D4012C9130E2E3
:100FF000230F08F42FEF2C933FC090E0AD96EEAD99
:10100000FFADAD97408150E0FC01EE0FFF1FE65BA6
:10101000FC4F2081421B5109AF96AEADBFADAF97DB
:101020002C9130E0880F991FFC01E55BFC4F80811B
:10103000281B3109449FB001459F700D700D11248C
:10104000229FC001239F900D900D1124860F971FA2
:101050000E942A31893280F428E2382F231B08F4B9
:1010600020E0F301E00FF11F213108F020E1308191
:10107000320F08F43FEF30830F5F1F4F003111052F
:1010800009F0A5CFC39440E1640E711C50E1A50E98
:10109000B11C86E0C81299CF440C551C9FEFE91A89
:1010A000F90AA0E1EA16F10409F0A6CEA3962EAD46
:1010B0003FADA397A196EEADFFADA19731832083FD
:1010C000D394A1964EAD5FADA1974E5F5F4FA196B1
:1010D0005FAF4EAFA19750E1250E311CA5968EADA6
:1010E0009FADA5974096A5969FAF8EAFA59796E02A
:1010F000D91260CE0E94F5250E94EA1210E000E0AD
:10110000A2E0DA2EB2E08B2E912C8DEF782E80911A
:101110002605181708F0CEC0E12EF12CE6B1E6FB4B
:10112000EE27E0F986B190E0880F892F881F990B90
:10113000892B11F092E001C090E08E2F892BD7010E
:10114000A95DBA4FEC912E2F237030E0482F082E66
:10115000000C550B2417350709F4AAC0EE0FEE0F4B
:10116000E82BEC93EF70F0E0EA53FD4FD701AB5D55
:10117000BA4F5D0190818C91890F8C9382300CF471
:1011800045C0F701EC5DFA4F80818F5F80830E943C
:1011900001262E961FAF2E976CEF562E2F965FAE20
:1011A0002F97682F60968FAF609761969FAF61977A
:1011B00073E0672E62966FAE629781E063968FAFA1
:1011C0006397412F5CEF792F83E091E00E942E120C
:1011D0000E94012664961FAF649765965FAE65977F
:1011E000682F66968FAF669767969FAF67976896EA
:1011F0006FAE689769961FAE6997412F5CEF792FA4
:1012000083E090E00E942E1221E001C020E0F50171
:1012100080818F3F0CF041C0F701EC5DFA4F808177
:10122000815080830E94012622961FAF2297572D5E
:1012300023967FAE2397682F24968FAF2497259609
:101240009FAF25972696DFAE269791E027969FAF12
:101250002797412F25967FAD25978D2D0E942E1221
:101260000E94012628961FAF289729967FAE2997BE
:10127000682F2A968FAF2A972B969FAF2B972C9685
:10128000DFAE2C972D961FAE2D97412F5DEF792F56
:1012900082E090E00E942E1221E0D5018C91082E70
:1012A000000C990BB4010E947834F5018083022B65
:1012B0001F5F2DCF01110E94F5250E94DD26909120
:1012C0002805891721F0809328050E94F525809133
:1012D000EC05843009F0CFC183E08093E900809170
:1012E000E80082FFC8C18091E80085FF0AC040E0A5
:1012F00050E060E270E0CE0101960E94741A91E025
:1013000001C090E08091E8008B778093E8009923FA
:1013100009F4B1C12981822F90E0FC013197E531B8
:10132000F10508F09EC1EA5AFF4F0C948C341A82E2
:101330008CE0DFC08A81823009F44CC250F48130E5
:1013400009F08FC10E94F5259B838C837D836E837A
:101350008AC1833041F0843009F083C11B821C8232
:101360001D821E8280C14B81DE01119680E090E0DB
:10137000242F30E0B901680F791F6630710508F03D
:1013800072C1E42FE80FF0E0EE0FFF1FE75DFA4FA8
:101390005081618113966C93139714965C93149704
:1013A000019612968E30910529F75DC18A818230AF
:1013B00071F0853009F055C18091FA05982F90950C
:1013C00090FB80F98093FA05109291024CC16B81D9
:1013D0007C818D819E810E9492340E94142C43C195
:1013E0004C816B818A810E94E52B2AC12D813E812F
:1013F0003227232732274C816B818A810E94BD2BA3
:1014000032C10E94FA262FC18A81833009F029C196
:101410002830A9F1293009F45DC08B818230D1F0E8
:1014200070F4813009F01FC14C812FEF429F412D94
:1014300011248091FB0520E06091FC051CC08330E5
:10144000B1F0843009F00FC18C8120E04091FD059E
:101450006D8111C08C81811103C00E94343203C19F
:101460000E943F3260E08C810E941832FCC08C8167
:101470008093FE05F8C090E00E94F52DF4C08B81AA
:101480008230E1F078F4813009F0EDC08091FD0503
:10149000FFEF8F9FC00111246FEF70E00E941333A4
:1014A0006C83E1C0833091F0843009F0DCC080911E
:1014B000FB058C838091FC058D83D5C08091FA0556
:1014C00080FF02C0869504C080E002C08091FE05C6
:1014D0008C83C9C048E050E068E170E08AEF95E095
:1014E0000E94E1331092F006BEC080E153C01A8220
:1014F0008BE88B83B8C00A811B8110270127102736
:10150000AC80B12C9E012F5F3F4F49017901C8018A
:101510008B589C4F9701281939092A153B0508F06B
:10152000A2C00B38110530F40E94D333D7011496B2
:101530008C9302C0F70114820F5F1F4FFFEFEF1A69
:10154000FF0AE5CF0A811B81102701271027AC80F5
:10155000B12C9E012F5F3F4F49017901C8018B5883
:101560009C4F9701281939092A153B0508F07BC0C3
:101570000B38110528F4D70114966C910E94F133B1
:101580000F5F1F4FBFEFEB1AFB0AE8CF0E94EA265E
:101590006AC084E08A8367C00A811B811027012703
:1015A0001027AC80B12CFE0131964F017F01C8019C
:1015B0008B599F4F9701281939092A153B0508F0C7
:1015C00052C00115F3E01F0730F40E94D333D70156
:1015D00014968C9302C0F70114820F5F1F4FFFEF28
:1015E000EF1AFF0AE4CF0A811B8110270127102779
:1015F000AC80B12C9E012F5F3F4F49017901C8019A
:101600008B599F4F9701281939092A153B0558F521
:10161000011533E0130728F4D70114966C910E944A
:10162000F1330F5F1F4FBFEFEB1AFB0AE8CF41E02A
:101630008C81811101C040E06B818A810E94892BDD
:101640009D83CFC02D813E8132272327322741E061
:101650008C81811101C040E06B818A810E945C2BEA
:1016600002C08FEF898340E250E0BE016F5F7F4F81
:1016700082E00E9433258091EC05843009F01ECB76
:1016800085E08093E9008091E80082FF17CB80918C
:10169000E80085FF0AC040E050E060E470E0CE0161
:1016A00001960E94741A91E001C090E08091E800D8
:1016B0008B778093E800992309F400CB89818A3ADB
:1016C00009F0FCCA8A818330C9F058F4813021F1D5
:1016D000823009F05BC0E5E9F2E0DE01149680E0BB
:1016E00009C0843081F08530A1F150C09D938F5F97
:1016F0008E3391F091919111F9CF0EC08FE78B83CA
:1017000087E08C8343C08B819C81953120F4DE017E
:101710001196980F03C08EEF8B8338C013969817DD
:1017200009F4CCCAE82FF0E09F01220F331FE20F2B
:10173000F31FE45FFE4F11962C91119721831296AF
:101740002C911297208313962C91139722838F5FED
:10175000E5CF8B81882319F060E084E215C00E94F8
:10176000343281E08093F00648E050E068E170E0B8
:101770008AEF95E00E94C3331092F0068091FA053B
:1017800080FF04C060E086950E9418328A818150F3
:10179000833008F093CA40E450E0BE016F5F7F4F92
:1017A00084E00E9433258ACA09BD19BD09B400FE30
:1017B000FDCF8091D8008F7D8093D8008091E0008C
:1017C00082608093E0008091E00081FDFCCF0E9468
:1017D000F4297DCA84E690E00E94D3331B821C82E8
:1017E0001D828E8340CFA6E0B0E0E9EFFBE00C94D1
:1017F000363349835A8349815A81992361F02223E0
:1018000051F0CA010E949A27182F682F89819A8166
:101810000E94992904C0CA010E948029182F698159
:101820007A81812F0E94BA1E2696E3E00C945233EF
:101830000E94F4292FEF84E39CE0215080409040E7
:10184000E1F700C000009CE088E10FB6F894A8958D
:10185000809360000FBE90936000FFCFA8E0B0E0DF
:10186000E4E3FCE00C942733FC018481882309F431
:10187000F1C58F0121E040815181628173819581A1
:101880000E94F30B7C01F8018581882309F446C18D
:10189000C70197578038910508F047C1FFE0FE1552
:1018A00008F456C18FEF93E00E94D333811150C1E9
:1018B00065E7A62E63E0B62EEE2079F0A11424E0B1
:1018C000B20609F445C1C5010E94D333811101C09C
:1018D000EA943FEFA31AB30AEFCFCE0101962C0191
:1018E00088E0F20111928A95E9F75AE0352E7501E8
:1018F000FFEFEF1AFF0AC5010E94D33389831A82D2
:10190000882309F425C1813009F044C0650122E033
:10191000C20ED11CC7010E94D3338A83882309F4E5
:1019200017C19FEF980F933060F433E0A30EB11C02
:10193000C6010E94D3338B83882309F409C11C821A
:101940002CC0843049F54E0183E0880E911C42E0A2
:10195000E42EF12C56019FEFA91AB90AC6010E9484
:10196000D333F40181934F01882309F4F1C08C37FC
:1019700041F4E2E0F0E0EC0FFD1FEE0DFF1D1082E0
:101980000CC0FFEFEF1AFF0A650127E0E216F10431
:1019900009F7DEC0570101C056017201F70120812D
:1019A000222309F4A4CF213009F056C0818181306F
:1019B00081F46701F2E0CF0ED11CF70182818933F7
:1019C00019F460E570E002C060E070E00E94C02A97
:1019D0000AC0823051F46701F2E0CF0ED11CF7014A
:1019E00082810E94512A760195C0833049F46701B3
:1019F000F2E0CF0ED11CF70182810E94252AF3CF9D
:101A0000843021F0FFEFEF1AFF0A84C0F701228132
:101A1000C70102967C0180E090E030E0205331095C
:101A20002A30310570F4389EA001399E500D1124E2
:101A3000C901840F951FEFEFEE1AFE0AF70120810E
:101A4000ECCF009709F466C0EFE9FFE03197F1F7BA
:101A500000C000000197F5CFE22FF0E0E651FE4F05
:101A60002490822F86958695869590E0FC01E6521B
:101A7000FE4F64902770712C022E02C075946794FB
:101A80000A94E2F7F1E06F227724FC01E653FE4F5F
:101A90008490912C022E02C0959487940A94E2F7C8
:101AA00031E083229924FC01E654FE4FC490D12CEE
:101AB00002C0D594C7942A95E2F781E0C822DD24BC
:101AC0006114710419F081EE0E94512A811491046D
:101AD00009F456C086EE0E94512A99E3291609F4AA
:101AE00049C060E070E0822D0E94C02A81149104F8
:101AF00019F086EE0E94252A6114710419F081EE16
:101B00000E94252AC114D10429F060E070E08CE223
:101B10000E94C02AEFEFEE1AFE0A40CFF0E2EF1665
:101B2000F8E7FF0609F021C113C020E2E21628E71A
:101B3000F206D9F58091FF058D3079F18F3F49F597
:101B40008DE00E94ED2D40E060E080E00E94D33007
:101B500080918F06877009F47DC4F8018581882300
:101B600009F478C48091C70682FF74C482E00E94A1
:101B70008D2070C460E570E089E30E94C02AB9CF6F
:101B8000F9E32F12AECF60E570E089E30E94C02A2E
:101B9000B3CF823021F480E0D4CF82E0D2CF8FEF78
:101BA0000E94ED2D0E943F32D3CFC70190578397FB
:101BB00008F051C184E090E00E94DB339093C706A7
:101BC0008093C606F701E150F047E232F10520F4B8
:101BD000E559FF4F0C948C348091C6068160ACC0EF
:101BE0008091C7068860B4C08091C6068260A4C098
:101BF0008091C60620C08091C60688609DC08091F5
:101C0000C7061EC08091C7068260A2C08091C6062A
:101C1000806192C08091C60680628EC08091C606A7
:101C200080648AC00E94F4298091C606806884C0BE
:101C30008091C606886084607FC08091C7068260FC
:101C4000816086C08091C6068E7F76C08091C7066F
:101C5000877F7EC08091C6068D7F6EC08091C6064C
:101C600020C08091C606877F67C08091C7061EC0CE
:101C70008091C7068D7F6CC08091C6068F7E5CC048
:101C80008091C6068F7D58C08091C6068F7B54C058
:101C90000E94F4298091C6068F774EC08091C606B7
:101CA000877F8B7F49C08091C7068D7F8E7F50C014
:101CB0008091C60682FB222720F991E0922790FBB3
:101CC00082F990FB83F938C08091C706982F9095D0
:101CD00091708E7F892B90FB81F93AC08091C60666
:101CE00086FB222720F991E0922790FB86F924C0F9
:101CF0000E94F4298091C60687FB222720F991E0F3
:101D0000922790FB87F918C061E001C060E08EE087
:101D100090E00E94F1331EC08091C60684FB22270A
:101D200020F991E0922790FB84F906C08091C606C5
:101D3000982F909590FB80F98093C6060BC08091F8
:101D4000C70683FB222720F991E0922790FB83F9B5
:101D50008093C7066091C6067091C70684E090E044
:101D60000E940F340E94F429F3CE36E1E3163CE7DB
:101D7000F30609F413C38091B1068272F701E052B1
:101D8000F847E531F10508F056C0E357FF4F0C94D2
:101D90008C348091FA05982F909590FB80F9809370
:101DA000FA05109291028091F00681608093F0060E
:101DB000CFCE47E45BE261E57BE22CC041E55BE22C
:101DC00067E47BE227C04DE35EE268E47EE222C086
:101DD00048E45EE26DE37EE21DC041E25EE26FE256
:101DE0007EE218C04FE25EE261E27EE213C045E0AF
:101DF0005EE263E17EE20EC043E15EE265E07EE228
:101E000009C048ED5AE266EE7AE204C046EE5AE2B4
:101E100068ED7AE20E94612C9BCE61E081E008C00F
:101E200061E084E005C061E08CE002C061E080E137
:101E30000E9418328DCE27E7E2162CE7F20611F445
:101E400081E006C038E7E3163CE7F30661F582E07F
:101E50000E94D8290FC086E1E8168CE7F80609F43D
:101E6000ABC297E7E9169CE7F90609F0B7C281E033
:101E70000E94E52943E062E081E00E94B62968CE35
:101E8000F3E0EF16FCE7FF0609F4D0C208F0AEC29B
:101E9000E1143CE7F30609F4BBC281E0E8168CE7E5
:101EA000F80609F4C9C2F8018581E080F180882331
:101EB00049F0C7010E949A27D82E682FC7010E94B7
:101EC000992904C0C7010E948029D82EB7018D2D01
:101ED0000E94BA1E0E94DA1E7C01A82EF801B5806D
:101EE000968092943FE0932280918F068770E9F06C
:101EF000BB20D9F08F2D807F803451F080E28E0D91
:101F0000883098F0911004C08F2D807E803269F067
:101F10008091C70682FF09C082E00E948D208091D7
:101F20008F068770DD24D3948111D12CCF2CC294DD
:101F30002FE0C2228C2D90E08C30910508F004C275
:101F4000FC01EE55FF4F0C948C348F2D807F9F2D1C
:101F50009F70F92E882319F0F29490EFF922BB209C
:101F6000B9F0FF2009F4DDC180E28E0D883010F059
:101F7000A11006C09091B106F92AF092B10605C0F1
:101F80009091B006F92AF092B0060E948121C9C151
:101F90008E2D0E94252AFF2009F4D6C180E28E0DE5
:101FA0008830A0F1AA2091F1F0949091B006F92226
:101FB000F092B0062EC09F2D907F8F2D8F70F82E3F
:101FC000903219F0F29480EFF8228E2DAA2029F099
:101FD000F1E0AF1609F462C06DC08091C70682FDC2
:101FE0001BC0BB2069F0FF2039F08091B1068F291A
:101FF0008093B1060E94812180E00E94512AA4C1F1
:1020000080E00E94252AFF2009F49EC18F2D0E94A6
:102010007F200E94812198C1BB2061F1992009F4A1
:102020004DC021E0921212C08091B4068F21F816A3
:1020300009F48AC10E9401269093B3068093B206E8
:102040008091B4068F298093B4067EC135E0931247
:102050007BC18F2D0E941B2A8F2D0E946C218091A5
:102060008C069F2D9823F91609F46EC18F29809351
:102070008C066AC1992041F081E0981265C1809177
:10208000B1068F2109F460C18F2D0E94142A8F2D73
:102090000E946C218F2D0E94BB2056C1BB2029F0CD
:1020A00095E0991508F450C109C0E4E0E91508F479
:1020B0004BC115C0BB2031F0911033C18F2D0E9450
:1020C0001B2A42C1992059F0893309F03AC1FFEF28
:1020D00027EE33E0F15020403040E1F730C18F2D42
:1020E0000E94142A31C18F2D86958695837019F030
:1020F000813059F029C1BB2019F0C701937002C08B
:1021000080E090E00E94B82625C1BB2019F0C701ED
:10211000937002C080E090E00E9493261BC18F2D37
:102120008370B1F5B11014C14E2D4295469547709C
:10213000440F440F8E2D8F7090E09C01042E01C03F
:10214000220F0A94EAF7E4FE08C08FE090E001C095
:10215000880F4A95EAF7809501C080E04F2D46959B
:1021600046954370423069F088F49091B50641304D
:1021700019F0822B892302C0922B892B0E94F1290E
:10218000E7C0822B9091B5068927F8CF822BF6CF36
:10219000BB2019F08F2D817001C08695882309F42A
:1021A000D7C04E2D429546954770440F440F8E2D53
:1021B0008F7090E09C01042E01C0220F0A94EAF770
:1021C000E4FE08C08FE090E001C0880F4A95EAF76E
:1021D000809501C080E04F2D469546954370423072
:1021E00059F078F490911605413019F0822B89232B
:1021F00009C0922B892B06C0822B90911605892746
:1022000001C0822B0E94B329A3C08F2D8F70F82E9E
:10221000BB2031F00E94E5298E2D0E941B2A98C018
:102220008E2D0E94142A8F2D0E94D82991C08E2DA8
:1022300092EFA91691F19A1538F0E0EFAE1659F029
:10224000F1EFAF1619F168C023EFA21669F134EF70
:10225000A316C1F061C0BB2081F084E0891508F4A9
:1022600073C02F2D2F7181E090E001C0880F2A9557
:10227000EAF790911605892722C095E0991508F490
:1022800063C0EFCF8091C70682FD1CC0BB2039F030
:102290008F2D8F710E94E52957C0BB20C9F38F2D68
:1022A0008F710E94D82950C0BB2041F09F2D9F7193
:1022B00081E001C0880F9A95EAF701C080E00E9492
:1022C000B32942C0BB20C9F080918F06877084304B
:1022D00039F40E9486208F2D8F710E94D8295CC00E
:1022E000E4E0E91508F458C0FF2DFF71FF2E8F2F91
:1022F0000E94E52963E08F2D08C024E0291540F4F1
:102300000E94862064E08F2D8F710E94E72144C0D7
:1023100081E00E948D2040C0BB2029F0992009F463
:10232000B7CF8E2D6ACE992009F4B9CF893349F4FD
:102330003FEF87EE93E0315080409040E1F700C0DE
:1023400000008E2D0E94252A88EF8C0D843010F419
:102350000E94DD26DD20A9F080918F0680FD11C04E
:10236000F80115828695869586950E94E529C80113
:102370000E942E0C80918F068695869586950E94E8
:10238000D82920E0F80140815181628173818481E4
:1023900095810E94F30B5EC0D12CDACF8091350578
:1023A000811108C069E28BE296E00E9436260E9405
:1023B0008121CECB65E3F7CF8091B1068A7A91E097
:1023C00009F490E090933505811106C069E28BE233
:1023D00096E00E945E26EBCF65E3F9CFE8E7EE16C4
:1023E000ECE7FE0609F04CCD82E042CD9BE5E91614
:1023F0009CE7F90659F1ECE5EE16ECE7FE06F1F084
:10240000FAE5EF16FCE7FF0609F04DCD81E01FC0AD
:102410000E94F4292FEF34E38CE0215030408040BB
:10242000E1F700C000000E949C2592CB6FEF7FEF88
:1024300080E090E00E940F340E94180C8091C70643
:1024400082FB882780F991E0892701C080E00E9403
:10245000A42029CD2896E2E10C944333ABE1B0E00F
:10246000E4E3F2E10C9435334E8B5F8B688F798F08
:102470008A8F9B8F192F91111092B006DE011F9643
:1024800087E0FD0111928A95E9F786E0FE017696D4
:1024900001900D928A95E1F70A8D8091C70682FF1F
:1024A00026C00E94012620918D0630918E06821B47
:1024B000930B8838934140F080918F0682FB9927D7
:1024C00090F981E0892701C080E080FF03C082E0AD
:1024D0000E948D200E9401262091B2063091B30601
:1024E000821B930B8838934110F00E9474200023C4
:1024F00041F021E04F85588969897A89C8010E9495
:10250000F30B0B8B1C8B87E0FE013F96DE011896C8
:1025100001900D928A95E1F7CE0108960E94F92765
:1025200081113BC087E0FE013896DE0111960190D3
:102530000D928A95E1F76C85662379F12091520618
:1025400030E0C90101968770992740918B0650E0D1
:1025500084179507A1F06D8397E0929FD001939F18
:10256000B00D1124AD5AB94FFE01319601900D9274
:102570009A95E1F7809352060E94E5200EC00E94D2
:10258000F4291092520610928B06EBE4F6E087E0F5
:10259000DF011D928A95E9F719C017E080918B063B
:1025A00090915206891791F0189FC00111248D5AFD
:1025B000994F0E94F927882349F080918B0690E07B
:1025C00001968770992780938B06E8CF6B96E4E09D
:1025D0000C945133A3E0B0E0E0EFF2E10C94273328
:1025E00080915F0590916005A0916105B0916205B1
:1025F0002FB7F894C090C206D090C306E090C406EE
:10260000F090C5062FBFC81AD90AEA0AFB0A0E9431
:10261000F5254B015C0160935F0570936005809325
:10262000610590936205A0913605E6E3F5E08A2FF7
:1026300090E04FEF5FEF60E070E04C195D096E09CC
:102640007F09A91799F0218D328D2901612C712CF8
:10265000441555056605770510F4815004C02C0D0E
:102660003D1D328F218F9F5F3296EBCF80933605D1
:102670008091FA0580FF03C0482E469401C0412C8A
:10268000909191029130E1F030F09230F1F193307D
:1026900009F446C0ACC410928C028092F605909268
:1026A000F705A092F805B092F90589E2E6E3F5E0B6
:1026B000A2E0B6E001900D928A95E1F781E02DC08D
:1026C00090918A0249120EC081708A831B822091E8
:1026D000890230E081E04A815B814217530719F497
:1026E00080E001C081E0817080938E028091FF05BF
:1026F00090918D02981709F440C080938D0240E0BC
:1027000060E080E00E94D33038C040928A0281703D
:10271000809389020E94852D83E08093910267C493
:102720008091F006882351F048E050E068E170E0C5
:102730008AEF95E00E94E1331092F0064091F60591
:102740005091F7056091F8057091F9052FB7F8944D
:102750008091C2069091C306A091C406B091C506AF
:102760002FBF841B950BA60BB70B4097A105B10596
:1027700008F43DC4109291023AC4842D90E0853251
:10278000910508F47DC080918C028F5F80938C024C
:1027900082E08093910280918E02811151C0442089
:1027A00009F4BACF20E040E060E08EE290E00E94C1
:1027B000D63020E040E060E088E690E00E94D6302D
:1027C0000E94DD268695817081958A830E94DD2690
:1027D00082FB882780F9182F11952091C606229533
:1027E0002170219529838091FF0582FD2DC033C082
:1027F00080918C025AE1859F802D11248983865E09
:102800008A8387FF02C08FE78A836091FB057091FE
:10281000FC058091FD050E948E31162F072FF82EA2
:10282000B981EA81BE17E0F181E0EF3708F0DDC33E
:1028300090918C029F5F90938C02882309F4A8CF1B
:10284000442009F4D4C3AECF0E94DD2680FF10C01F
:1028500020E040E006C00E94DD2620E040E080FF4E
:1028600002C06FEF01C060E08EE290E00E94D630BF
:102870002981412F6A8188E690E00E94D630B7C353
:10288000FC01E255FF4F0C948C3480918E0288231A
:1028900009F4ABC340E060E080E00E94D330A5C300
:1028A0009981E92FF0E0DF01A85BBB4F8C919091FB
:1028B0008D02982331F02F2D412F602FCF010E94E0
:1028C000D630A981AF5FA983ABCFF0918C028AE1AA
:1028D000F89F802D11248983865E8A8387FF02C03A
:1028E0002FE72A830091FC05D090FD052091FE057D
:1028F00010E4129F112D112459818A81581730F547
:102900003981E32EF12CF701E85BFB4F9081809138
:102910008D028923B9F0F701EE0FFF1FE55BFC4F35
:10292000808182958F706091FB05819F600D1124DD
:10293000702F8D2D0E948E31462F282F672FC701B3
:102940000E94D63049814F5F4983D6CF81E09A817A
:1029500093C0A0918C028AE1A89F802D11248983C5
:10296000865E8A8387FF02C0BFE7BA83E090FC05DA
:10297000D090FD052091FE0590E4F92E3F2D329F69
:10298000312D1124F32E89819A81891708F073C0A3
:102990004981042F10E0F801E85BFB4F90818091A2
:1029A0008D028923D9F0F801EE0FFF1FE65BFC4F83
:1029B0006081F69EB001112485E0759567958A9532
:1029C000E1F78091FB05680F7E2D8D2D0E948E31E1
:1029D000462F282F672FC8010E94D63059815F5F8C
:1029E0005983D1CFA0918C028AE1A89F802D112418
:1029F0008983865E8A8387FF02C0BFE7BA8300911E
:102A0000FB051091FC05F090FD056091FE056695B3
:102A1000669566958091F6059091F7050E94843140
:102A20000E94F430805887FD8195880F282F3F2D14
:102A3000239F212D1124822FB8010E948E31162F41
:102A4000072FF82E89819A818917A8F44981E42FEC
:102A5000F0E0DF01A85BBB4F8C9190918D02982331
:102A600031F02F2D412F602FCF010E94D630598198
:102A70005F5F5983E7CF81E09F3708F4D9CEB5C2B5
:102A80008EED9FE202C082EB9FE20E942B1AD0CE15
:102A900086EB90E302C088E990E30E94D619C8CE85
:102AA0008DE790E302C081E690E30E945B19C0CEFF
:102AB00080EB9FE2EACF87EA9FE2E7CF8CE89FE2D4
:102AC000E4CF8DE79FE2F1CF8BE591E3E6CF80E5A0
:102AD00090E3E3CF8CE390E3E8CF8FE49FE202C082
:102AE00081E19FE20E940719A3CE80918C02AAE1A6
:102AF0008A9F802D11248983182F165E17FD1FE7EA
:102B000080918E02811122C06091FE0520E1620F4A
:102B100008F46FEF8091F6059091F7050E948431DB
:102B20006AE070E00E941333892B09F072C00E94A2
:102B30001531BFE78B9F9001112460918D02832F87
:102B4000932F990F990B0E94B22D63C0F981EF2F3B
:102B5000F0E0FB83EA83E12EF12C4A815B814E1584
:102B60005F050CF056C060918D028A819B810E94A6
:102B7000B22D2A813B812F5F3F4F3B832A83EDCFCC
:102B800080918E02811122C06091FE0520E1620FCA
:102B900008F46FEF8091F6059091F7050E9484315B
:102BA00065E070E00E941333892B09F01EC20E9479
:102BB00015315FE7859F9001112460918D02832F6D
:102BC000932F990F990B0E948E2D0FC280918C022A
:102BD0009AE1899F802D11248983182F165E17FD95
:102BE0001FE7B981AB2FB0E0BB83AA83E12EF12CA4
:102BF0002A813B812E153F0564F460918D028A8104
:102C00009B810E948E2DEA81FB813196FB83EA83B2
:102C1000EFCF81E01F3708F40BCEE7C170908C0234
:102C20008AE1789E702C11240AE1070D07FD0FE759
:102C300080918E02882361F040E060E080E00E9495
:102C4000D33080E6E8E6F5E0DF011D928A95E9F7EA
:102C500080918C02811115C0809164059091650569
:102C60000E94E62521E08931910508F420E02093B7
:102C70006305499730F00E94012690936505809383
:102C800064057AEEA72E72E0B72EE8E6CE2EE5E0D8
:102C9000DE2E612CF5E53F2EAAEA5A2E222423943B
:102CA000E12CF12CF501EE0DFF1DB081B983B715B4
:102CB00008F440C0B01708F03DC06394EB2FF0E07B
:102CC000FB83EA83E85BFB4F908180918D0289232F
:102CD00009F430C046018E0C9F1CD4011C91312F89
:102CE000232D321B08F430E07091FC05252D210FB7
:102CF00008F42FEF4091FD0552E0259F200D11248F
:102D00002E5F249F212D1124652D631B822F0E948D
:102D10008E31462F282F672F8A819B810E94D630C3
:102D200080916305882331F0222D121B08F410E0F6
:102D3000D4011C93BFEFEB1AFB0AE0E1EE16F1049D
:102D400009F0B0CFF8EBCF16F5E0DF0651F020E147
:102D5000A20EB11C30E1C30ED11C49E1461508F0AA
:102D60009FCF81E00F3708F463CD3FC15090FD0540
:102D7000A3E05A9EC0011124969587959695879554
:102D80009B838A83BA81B983C52CD12C8FEF90E0C5
:102D9000B6010E947834362E80918E02882371F01D
:102DA00040E060E080E00E94D33080E6E8E6F5E0B5
:102DB000DF011D928A95E9F71092670580916605FB
:102DC0008F5F8093660538E6E32E35E0F32E4AEEFA
:102DD000842E42E0942E58E7652E55E0752EEA8148
:102DE000FB81CE1ADF0A87015401212C21100CC06F
:102DF00080916705811108C00E94AA3385359540EE
:102E00001CF4D7015C920CC0F8018081882341F04A
:102E1000851530F490916605391202C08150808387
:102E2000D501EC91EF3F29F1D8012C91F0E0B98167
:102E3000B21790F430E04A815B81241B350B249F4C
:102E4000C001259F900D349F900D1124B6010E9462
:102E50001333262F452D0AC0529EC00111246A81CA
:102E60007B810E941333462F20E060E0CF010E9457
:102E7000D630239450E1A50EB11C005F1F4F86E0B1
:102E80002812B4CF9FEFE91AF90AAFEF8A1A9A0A0B
:102E90006E147F0409F0A7CF80916605381202C036
:102EA00010926605809167058F5F8D3118F48093CD
:102EB00067059BC01092670528EA35E085E048EC7D
:102EC00055E09FEF950DA8EBB5E0F901853021F4B1
:102ED0006C91561201C09C936081651510F090832F
:102EE000508A319611964A175B0781F7815020511D
:102EF00031098111E8CF79C08AE09FE202C084E005
:102F00009FE20E94991894CC8091020621E0382F0C
:102F1000321B08F430E0832F6BEE7EE23BC06BEE99
:102F20007EE237C08091020621E0482F421B08F460
:102F300040E0842F63EB7EE22DC063EB7EE229C08C
:102F40008091020621E0582F521B08F450E0852F93
:102F500061E87EE21FC061E87EE21BC0809102064C
:102F600021E0382F321B08F430E0832F69E67EE23F
:102F700011C069E67EE20DC08091020621E0482F73
:102F8000421B08F440E0842F63E57EE203C063E562
:102F90007EE280E00E94FB174BCC80918C025AE1CC
:102FA000859F802D11248983865E8A8387FF02C0D6
:102FB0008FE78A83E981FA81EF1798F4A9818A2F34
:102FC00090E0FC01EE0FFF1FE80FF91FE45FFE4FDA
:102FD0002281408161810E94D630B981BF5FB9836F
:102FE000E9CF81E0FF3708F423CC80E021CC2396A1
:102FF000E2E10C944333A7E0B0E0E1E0F8E10C94A7
:103000002733282E4B0120918C028AE1289F802DA6
:1030100011248E83182F165E17FD1FE730910206CC
:1030200039839E81911708F07CC08E81682E712CA7
:10303000F301E85BFB4F908180918D02892309F4B5
:103040006CC03090FB054090FC05522C1F82C301E0
:10305000880F991FDC01A65BBC4FBB83AA83C30109
:10306000880F991FFC01E55BFC4FFD83EC83F98120
:103070005F1608F040C0E52CF12CAA81BB81CC90F2
:10308000D12CF701EE5FF94F8181C81AD108AC81CC
:10309000BD81AC90B12C8185A81AB108CC9C90015F
:1030A000CD9C300D300D1124AA9CC001AB9C900D1D
:1030B000900D1124820F931F0E942A31082F6091D6
:1030C000FE0521E0620F08F46FEFF701EE0FFF1F1E
:1030D000EE5FF94F818D928D0E9484317C019501C4
:1030E000A601632D742D8F81F4010995362E472E8C
:1030F0008F835394BCCF2091FD058F81382F329F51
:10310000312D1124832F632D742D0E948E31462F73
:10311000282F672FC3010E94D6308E818F5F8E8348
:1031200080CF81E01F3708F080E02796E2E10C9421
:103130004333A0E0B0E0EFE9F8E10C9431338C01C7
:10314000C0918C028AE1C89FC02D1124DAE1DC0F06
:10315000D7FDDFE72091FE0531E0230F08F42FEFC4
:1031600030E040E050E06FEF7FEF80E090E00E94C1
:1031700015347901CD1708F041C0CC2ED12CF601C1
:10318000E85BFB4F908180918D028923A9F190919A
:103190000206915097FD15C0492F092E000C550BC2
:1031A000FA01EE5FF94F8189C813F3CF440F551F21
:1031B000FA01EE5FF94F218D328D2E153F0548F74C
:1031C00001C097016091FE0541E0640F08F46FEFC4
:1031D000C9010E948431AC016091FB057091FC052E
:1031E0008091FD05F80109950E948E31462F282F08
:1031F000672FC6010E94D630CF5FBCCF81E0DF379A
:1032000008F080E0CDB7DEB7E8E00C944D33A0E0E5
:10321000B0E0EDE0F9E10C942E336C01C0918C022A
:103220008AE1C89FC02D1124DAE1DC0FD7FDDFE76A
:103230006091FE05669566958091F6059091F7057B
:103240000E948431182F80E4810F0E94F43090E8AE
:10325000F92EF80E812F0E94F43020E8922E980E5D
:10326000CD1700F5AC2EB12CF501E85BFB4F90813A
:1032700080918D028923A1F06091FB057091FC057E
:103280008091FD05E12E0C2F292D4F2DF60109957A
:103290000E948E31462F282F672FC5010E94D630FD
:1032A000CF5FDECF81E0DF3708F080E0CDB7DEB75B
:1032B000EBE00C944A336F927F928F929F92AF9281
:1032C000BF92CF92DF92EF920F931F93CF93DF9332
:1032D0003C01C0918C028AE1C89FC02D1124DAE123
:1032E000DC0FD7FDDFE76091FE0566958091F6055E
:1032F0009091F7050E948431182FCD1708F044C033
:103300008C2E912CF401E85BFB4F908180918D0213
:103310008923C1F1F401EE0FFF1FE65BFC4FC08073
:10332000D12C80E7C81AD108F401EE0FFF1FE55B2E
:10333000FC4FA080B12CE0E2AE1AB108CC9C900109
:10334000CD9C300D300D1124AA9CC001AB9C900D7A
:10335000900D1124820F931F0E942A31082F609133
:10336000FB057091FC058091FD05E12E9501A601FC
:10337000F30109950E948E31462F282F672FC40133
:103380000E94D630CF5FB9CF81E0DF3708F080E010
:10339000DF91CF911F910F91EF90DF90CF90BF9071
:1033A000AF909F908F907F906F900895A0E0B0E0D5
:1033B000ECEDF9E10C9431336C01C0918C028AE19F
:1033C000C89FC02D1124DAE1DC0FD7FDDFE7609143
:1033D000FE0566958091F6059091F7050E9484316F
:1033E000182FCD1778F5EC2EF12CF701E85BFB4F89
:1033F000908180918D02892319F1F701EE0FFF1F53
:10340000E55BFC4F208130E020523109F701EE0FDF
:10341000FF1FE65BFC4F408150E04057510960912F
:10342000FB057091FC058091FD05012FF6010995C2
:103430000E948E31462F282F672FC7010E94D63059
:10344000CF5FCFCF81E0DF3708F080E0CDB7DEB7C8
:10345000E8E00C944D33A0E0B0E0E1E3FAE10C9435
:1034600032338C01C0918C028AE1C89FC02D112497
:10347000DAE1DC0FD7FDDFE76091FE056695669522
:1034800021E0620F08F46FEF8091F6059091F70547
:103490000E948431D82ECD17F0F4EC2EF12CF701D8
:1034A000E85BFB4F908180918D02892391F06091C0
:1034B000FB057091FC058091FD052D2D4C2FF80129
:1034C00009950E948E31462F282F672FC7010E9431
:1034D000D630CF5FE0CF81E0DF3708F080E0CDB7B6
:1034E000DEB7E7E00C944E33EF92FF920F931F93F9
:1034F000CF93DF937C018B010E941C23811119C0A3
:10350000E70101151105A1F08091E80085FD0AC0D1
:103510008091E8008B778093E8000E941C23882329
:1035200081F307C08091F100899301501109E9CF1F
:1035300080E0CDB7DEB7E6E00C944F33CF93DF9356
:10354000C82F45EC6EEF0E94682C40E06DEF8C2F89
:103550000E94682CD0E040E06D2F8C2F0E94682CD8
:10356000DF5FD831C1F745EC6EEF8C2F0E94682CDD
:1035700041E06DEF8C2F0E94682CD0E040E06D2F71
:103580008C2F0E94682CDF5FD03CC1F745EC6EEFBA
:103590008C2F0E94682C43E06DEF8C2F0E94682CCA
:1035A00040E06FE08C2F0E94682C40E060E18C2F9F
:1035B0000E94682C4FEF61E08C2F0E94682C41E044
:1035C00060E08C2F0E94682C8FE39CE90197F1F753
:1035D00000C00000DF91CF910895AAE2B0E0E3EFD0
:1035E000FAE10C943633EEEEF5E08091F100819330
:1035F00045E0E63FF407C9F78091EF05833009F411
:1036000063C030F4813071F0823009F49DC0B4C0E1
:103610008A3009F489C08B3009F46EC0893009F012
:10362000ABC020C08091EE05813A09F0A5C0809121
:10363000E800877F8093E8008091F2059091F30580
:10364000892B21F460E28AEC95E003C060E080E021
:1036500090E070E00E94D5248091E8008B77809301
:10366000E8008AC08091EE05813209F085C0809122
:10367000F2059091F305009719F0039709F07CC0CB
:103680008091E800877F8093E8008091E80082FDC8
:1036900005C08091EC058111F8CF6EC02091F30038
:1036A0008091F20090E0922B029731F48091F1002A
:1036B000813011F0873021F48091F1008093C905A9
:1036C0008091E8008B7754C08091EE05813A09F033
:1036D00053C08091F2059091F305892B09F04CC0FD
:1036E0008091E800877F8093E8008091E80080FF68
:1036F000FCCF80918B0237C08091EE058132E1F5DD
:103700008091F2059091F305892BB1F58091E80045
:10371000877F8093E8000E944F238091F00580937B
:103720008B020E94F42928C08091EE05813221F598
:103730008091E800877F8093E8000E944F2380916A
:10374000F1058093C80518C08091EE05813AA1F477
:103750008091E800877F8093E8008091E80080FFF7
:10376000FCCF8091C8058093F1008091E8008E77AE
:103770008093E8000E944F238091E80083FFEAC114
:103780008091EE059091EF05492F50E04A305105A8
:1037900008F0E0C1FA01ED52FF4F0C948C348038F0
:1037A00021F0823809F0D6C108C08091EA059091D5
:1037B000EB05992389F082600FC08091F2058F702C
:1037C000873008F0C7C18093E9008091EB0085FB4A
:1037D000882780F91092E9009091E800977F9093F4
:1037E000E8008093F1001092F10071C1282F2D7F25
:1037F00009F0B0C1882319F0823061F0ABC180912B
:10380000F005813009F0A6C1933009F080E0809383
:10381000EB052EC08091F00581112AC08091F20540
:103820008F702FEF280F263008F094C18093E900A5
:103830002091EB0020FF1CC0933021F48091EB001D
:10384000806214C09091EB0090619093EB0021E0B6
:1038500030E0A90102C0440F551F8A95E2F740935A
:10386000EA001092EA008091EB0088608093EB0000
:103870001092E9008091E800877F8093E8000E9421
:103880004F2368C1811166C11091F0051F778091A7
:10389000E3008078812B8093E3008091E800877FAC
:1038A0008093E8000E944F238091E80080FFFCCFC6
:1038B0008091E30080688093E300111102C082E0F0
:1038C00001C083E08093EC0545C18058823008F048
:1038D00041C12091F0053091F1052C3D53E03507B1
:1038E00079F583E08A838AE289834FB7F894DE0111
:1038F000139620E03EE051E2E32FF0E050935700B2
:10390000E49120FF03C0E295EF703F5FEF708E2FD0
:1039100090E0EA3010F0C79601C0C0968D939D9359
:103920002F5F243149F74FBF8091E800877F809354
:10393000E8006AE270E0CE0101960E94D524B5C08D
:103940008091F2059091F305432F5527433051059F
:10395000A9F068F44130510509F40BC1423051051A
:1039600009F0F8C08BE790E0EBE5F3E04BC04132A3
:10397000510529F14232510589F1ECC0C90199275D
:1039800081309105A1F058F0029709F0E3C0E8EE0C
:10399000F3E0E4918E2F90E0E8EEF3E030C0E2E057
:1039A000F4E0E4918E2F90E0E2E0F4E028C0E4EF50
:1039B000F3E0E4918E2F90E0E4EFF3E020C0843058
:1039C000910508F0C7C0880F991FFC01EE51FD4F0B
:1039D0000190F081E02D89E090E014C084309105E1
:1039E00008F0B8C0FC01EE0FFF1FE652FD4F01903A
:1039F000F081E02DDC01AA52BD4F8C9190E0009740
:103A000009F4A8C02091E800277F2093E8002091C6
:103A1000F4053091F5058217930708F49C0140E006
:103A20002115310589F18091EC05882309F43DC009
:103A30008530D9F18091E80083FD37C08091E8009E
:103A400082FD2FC08091E80080FFEACF4091F30013
:103A50008091F20090E0942B2115310559F08830C7
:103A6000910540F444914093F10031962150310981
:103A70000196F2CF41E0089709F040E08091E8001C
:103A80008E778093E800CCCF4111CDCF0AC08091D2
:103A9000EC05882351F0853041F08091E80083FDEA
:103AA00004C08091E80082FFF2CF8091E8008B771C
:103AB0008093E8004FC0803809F04CC08091E80046
:103AC000877F8093E8008091ED058093F1008091DD
:103AD000E8008E77D2CE81113DC08091F0059091A3
:103AE000F10599270297B4F58091E800877F8093CC
:103AF000E8001091F0051093ED050E944F2311117D
:103B000006C08091E30087FD02C081E001C084E02F
:103B10008093EC0542E061EC81E00E946E2342E27A
:103B200061EC86E00E946E2342E261EC82E00E943A
:103B30006E2342E260EC83E00E946E2342E361EC7C
:103B400084E00E946E2342E360EC85E00E946E23D5
:103B50008091EC058091E80083FF10C08091E8001F
:103B6000877F8093E8008091EB0080628093EB0078
:103B700005C082E190E0E6EDF3E044CFAA96E3E0F1
:103B80000C94523380E008959091C60692FF0DC0C8
:103B9000282F2871283019F4877F846006C0282FC9
:103BA0002471243011F48B7F886093FF0DC0282F7F
:103BB0002871283119F4877E846106C0282F24716A
:103BC000243111F48B7E88612091C70620FF0DC03F
:103BD000382F3871383019F4877F816006C0382F4C
:103BE0003171313011F48E7F886021FF0DC0282F94
:103BF0002871283119F4877E816106C0282F217130
:103C0000213111F48E7E886194FD877E089582387B
:103C1000910569F1B0F48133910509F475C048F458
:103C20008932910509F467C08A32910509F471C09F
:103C300008958533910509F459C089339105B9F088
:103C40000895833E910589F138F4803E9105D1F0C5
:103C5000823E910529F10895863E9105C9F1873E7E
:103C60009105D9F1843E910509F06CC027C02091DF
:103C7000C60620FD57C021FD55C02091C70623FD73
:103C80005BC008958091C60680FD48C08091C7063C
:103C900080FF48C08091C60684FD46C083EE51C0B7
:103CA0008091C60682FF3CC0F5CF8091C60682FD9A
:103CB00037C08091C70680FD35C0ECCF8091C70624
:103CC00081FF36C08091C60684FD2EC087EE39C0C4
:103CD0008091C60683FF2AC0F5CF8091C60683FD7A
:103CE00025C08091C70681FD23C0ECCF8091C60618
:103CF00085FD22C01FC08091C60685FD1BC0809136
:103D0000C70683FF19C00AC08091C60686FD16C08B
:103D100017C08091C60686FD13C010C089E311C08C
:103D200082EE0FC080EE0DC080E00BC086EE09C0B1
:103D300084EE07C085E305C089E203C08AE201C0C2
:103D400081E390E00895F894E82FE295EF70F0E0B9
:103D500031A1282F2F7081E090E001C0880F2A95B3
:103D6000EAF7982F9095932391A392A1892B82A390
:103D700078940895462F672F763038F44031B8F4A0
:103D80008430A8F40E94E52B08957D3F31F4411161
:103D90000EC0843060F441E006C07C3F41F4411124
:103DA00006C0843020F460E00E94892B089580E0F2
:103DB00090E008951F93CF93DF930E94071EEC01BC
:103DC000C11580E5D807E8F5C11590E4D90708F0DA
:103DD000A8C0C03ED10530F5CD3CD10508F094C057
:103DE000C83AD10578F4C53AD10508F083C0C1308E
:103DF000D10509F47CC008F4F2C0C430D10508F044
:103E0000F1C0EDC0C33CD10508F0E9C0C85AD0E00C
:103E1000CC0FDD1FC653DB4F0990D881C02DCE01DA
:103E20009464E1C0C11580E2D80708F0CBC0C11589
:103E300091E0D90708F06BC0C83ED10508F4D2C0A4
:103E4000CEC0C03682E5D80728F5C03492E5D90740
:103E500008F079C0C03282E5D80708F06CC0C115FF
:103E600092E5D90708F481C04C2F4695469580E22B
:103E7000489FA0011124C37021E030E0C90102C0B5
:103E8000880F991FCA95E2F7EA01C82BD92BCE01FA
:103E90009D68A9C0C03A82E5D807B8F48C2F8F710D
:103EA000C03892E5D90708F07BC08695869590E2E8
:103EB000899F90011124C37081E090E002C0880FB7
:103EC000991FCA95E2F79A6868C0C03C82E5D80796
:103ED00008F46DC0C03E92E5D90708F080C0CF71EC
:103EE000DD27DC2FCC27CE01806F906A7CC081E07B
:103EF00090E079C0C55AD0E0C953DB4F8881C82F04
:103F0000D0E0CE0190646FC0CE0190656CC08D2F63
:103F10000E94C41D182FCE0199270E94071E1F71F1
:103F20005CC0CE0199270E94071ECC27DF70D06AA3
:103F30008C2B9D2B58C0CF71D0E0DC2FCC27CE012D
:103F4000816F906A50C08C2F8F718695869590E214
:103F5000899F90011124C37081E090E002C0880F16
:103F6000991FCA95E2F79C6818C08C2F8F710E9428
:103F7000C41D95E0D695C7959A95E1F7CF70D0E02E
:103F8000DC2FCC27282F30E084FF05C084E0220FEF
:103F9000331F8A95E1F7D069CE01822B932B23C082
:103FA00090E0D82FCC27CE01846F906A1CC08C2F54
:103FB0008F710E94C41D8F7190E0D82FCC27CE0145
:103FC000906211C08D2F8F710E94C41D182FCE01D9
:103FD00099270E94071E1F719062912B04C080E0F8
:103FE00090E001C0CE01DF91CF911F91089580E054
:103FF00090E00E94DB33863E9E4F19F40E94482CCD
:10400000089580E00895A8E0B0E0E9E0F0E20C94C3
:10401000373366EE7EEF80E090E00E940F3460E080
:1040200082E090E00E94F13360E083E090E00E9443
:10403000F1331092B50660E074E184E090E00E94F4
:104040000F3460E086E090E00E94F1336FEF87E08C
:1040500090E00E94F13340E050E0BA0188E090E047
:104060000E94033460E084E290E00E94F13360E05B
:1040700087E190E00E94F13360E08CE090E00E94E4
:10408000F13360E08DE090E00E94F13319821A82F2
:104090001B821C821D821E821F82188648E050E00F
:1040A00068E170E0CE0101960E94E13340E050E00B
:1040B000BA0180E290E00E94033480E00E94192C53
:1040C0000E94382C40E050E0BA018FE090E00E945E
:1040D000033440E050E0BA0183E190E00E940334F1
:1040E0002896E2E00C9453338091B406882331F093
:1040F0001092B4061092B3061092B20608958095FD
:104100009091B10689238093B106089510928F068D
:1041100010928E0610928D06089590918F068095CC
:10412000892380938F06282F277069F4981759F0F8
:104130009091C70692FF07C08695869586950E9446
:10414000D8290E94862008959091C70692FB2227C5
:1041500020F9281779F080FB92F99093C7066091B7
:10416000C6067091C70684E090E00E940F3482E09A
:104170000E948D20089590918C06292F282321F0EC
:104180008095982390938C06089520918B069091AA
:10419000520657E02917A9F030E0529FF001539FD3
:1041A000F00D1124ED5AF94F7181761306C070811C
:1041B000781303C07581741306C02F5F3F4F2770BB
:1041C000E9CF80E0089581E0089580918B06909179
:1041D0005206891719F08F5F8770FBCF0895CF9330
:1041E000DF938091510682958F7009F04EC08091C7
:1041F0005006882309F449C080918B0640915206ED
:1042000050914C0660914B06C0914D06D0914E06E0
:1042100077E08417D1F190E0789FF001799FF00D5D
:104220001124DF01AD5AB94F14962C911497222313
:1042300049F111962C911197251324C02C91261326
:1042400021C015962C91159721111CC012962D9105
:104250003C9113972C1B3D0B283C310598F4809121
:1042600051068F70806180935106E75AF94F808123
:104270008F70806180838BE496E00E942E0C0E94F8
:10428000E52003C001968770C4CFDF91CF910895D8
:10429000A6E0B0E0EEE4F1E20C9435330E94012692
:1042A0008C018091B6069091B7060817190781F026
:1042B00019821A820E940126682F49815A81792F1A
:1042C00080E090E00E942E121093B7060093B6068D
:1042D0002696E4E00C9451339091B406292F2823BC
:1042E00079F0809589238093B406882319F00E9481
:1042F000012602C080E090E09093B3068093B2065E
:1043000008959091B1068091B006892B80932B0679
:104310008091B406882361F10E9401262091B206A3
:104320003091B306821B930B8838934110F00E94A2
:10433000742090912B068091B406892B80932B06D4
:1043400080918B02882331F08091C60687FF02C0DE
:104350008EE101C086E0EDE2F6E090E0815028F0C9
:1043600021912223D9F39F5FF9CF91110E947420EC
:1043700040E250E060E976E08BE296E00E949934FA
:10438000892B21F180E2EBE2F6E0A0E9B6E00190B2
:104390000D928A95E1F7E091BD06F091BE06309747
:1043A000A9F080918B02882359F08091C60687FF7F
:1043B00007C080912B0680932C0687E080932B0604
:1043C0000280F381E02D8BE296E0099508959091AB
:1043D000C70692FF10C098E0899F90011124262BF8
:1043E00020938F060E94E5290E94012690938E0655
:1043F00080938D0608950E94E5290895ACE0B0E011
:10440000E4E0F2E20C942D33AE014F5F5F4F7A018E
:104410008CE0DA011D928A95E9F700EB12E0CC24DA
:10442000C394D12CAA24A394B12C4E01BDE08B0ED1
:10443000911CF80180818F3F09F44AC0F894E82F5D
:10444000E295EF70F0E021A18F70A50102C0440F4A
:10445000551F8A95E2F7CA01922F982B91A392A13A
:104460008095892382A3789400C060EC72E0F70104
:10447000A60140955095DB012D91BD012F3FA9F07C
:10448000822F82958F7090E0DC0190968C9190E065
:104490002F7002C0959587952A95E2F780FD05C09B
:1044A000808191818C299D2904C080819181842300
:1044B00095239183808332968E169F06E1F6F8014C
:1044C00080818F3F11F00E94A31EF0EAFA95F1F768
:1044D000CC0CDD1C0F5F1F4F42E0003C140709F0BD
:1044E000A8CF4CE050E0B7018AE095E00E949934F3
:1044F000892B89F08CE0F701AAE0B5E001900D92DC
:104500008A95E1F781E08093BA060E940126909394
:10451000B9068093B8068091BA06811102C080E086
:1045200020C08091B8069091B9060E94E6250597B3
:10453000B0F34CE050E06AE075E089E295E00E945B
:104540009934892B59F08CE0EAE0F5E0A9E2B5E076
:1045500001900D928A95E1F781E001C080E0109210
:10456000BA062C96ECE00C94493308958091C90565
:1045700008951F920F920FB60F9211242F933F931D
:104580004F935F936F937F938F939F93AF93BF935B
:10459000CF93DF93EF93FF93C091E900CF708091A9
:1045A000EC00D82FD17080FDD0E81092E900809106
:1045B000F000877F8093F00078940E94ED1A1092AB
:1045C000E9008091F00088608093F000CD2BCF70DF
:1045D000C093E900FF91EF91DF91CF91BF91AF912F
:1045E0009F918F917F916F915F914F913F912F910B
:1045F0000F900FBE0F901F901895E8EDF0E08081AE
:104600008E7F80831092E2001092DA001092E10017
:10461000A0EEB0E08C9181608C9380818F77808355
:1046200019BCA7EDB0E08C918E7F8C9380818F7E3A
:1046300080831092C80608952091E4003091E5002F
:1046400095E64091EC00842F817040FF23C080915B
:10465000E80080FD1DC08091EC05882399F085302D
:1046600099F08091EB0085FD11C04091E4005091DC
:10467000E5002417350729F3915011F09A01E1CF95
:1046800084E0089582E0089583E0089581E008952C
:1046900080E008954091E80042FFDDCF08958091C9
:1046A000EE0587FF11C08091E80082FD05C0809172
:1046B000EC058111F8CF11C08091E8008B770BC019
:1046C0008091EC05882349F08091E80080FFF8CFC5
:1046D0008091E8008E778093E8000895982F9730B6
:1046E00068F59093E900981739F07091EC002091EB
:1046F000ED005091F00003C0242F762F50E021FDF3
:1047000002C09F5FECCF3091EB003E7F3093EB0017
:104710003091ED003D7F3093ED003091EB00316042
:104720003093EB007093EC002093ED005093F00079
:104730002091EE0027FDE5CF80E008958F708093F3
:10474000E90081E00895A0E0B0E0E9EAF3E20C942A
:104750003133C8EDD0E088818F7E8883E7EDF0E0CB
:1047600080818160808384E082BF81E08093C8067D
:1047700088818E7F888302EE10E0F801108210920B
:10478000DA0081EEC82ED12CF601108288818F7755
:10479000888388818068888388818F7D888319BC1D
:1047A0001092EC051092ED051092EB051092EA05BF
:1047B00090EEE92EF12CF70180818B7F8083888138
:1047C0008160888342E060E080E00E946E23F60111
:1047D00080818E7F8083F8018081816080838081E9
:1047E00088608083F70180818E7F808388818061EB
:1047F0008883CDB7DEB7E8E00C944D331F920F925B
:104800000FB60F9211242F933F934F935F936F93A3
:104810007F938F939F93AF93BF93EF93FF93809179
:10482000E10082FF09C08091E20082FF05C0809113
:10483000E1008B7F8093E1008091DA0080FF2AC045
:104840008091D80080FF26C08091DA008E7F80930F
:10485000DA008091D90080FF18C080E189BD82E133
:1048600089BD09B400FEFDCF81E08093EC05809105
:10487000C80681110FC00E94FD220E94A3238091CF
:10488000E20084608093E20005C019BC1092EC0540
:104890001092C8068091E10080FF17C08091E2006D
:1048A00080FF13C08091E2008E7F8093E2008091B0
:1048B000E20080618093E2008091D8008062809362
:1048C000D80019BC85E08093EC058091E10084FF5D
:1048D00030C08091E20084FF2CC080E189BD82E17C
:1048E00089BD09B400FEFDCF8091D8008F7D8093F3
:1048F000D8008091E1008F7E8093E1008091E200FA
:104900008F7E8093E2008091E20081608093E200DC
:104910008091ED05882311F084E007C08091E300C9
:1049200087FD02C081E001C083E08093EC058091A7
:10493000EC058091E10083FF27C08091E20083FFB6
:1049400023C08091E100877F8093E10082E0809323
:10495000EC051092ED058091E1008E7F8093E100DF
:104960008091E2008E7F8093E2008091E20080617E
:104970008093E20042E060E080E00E946E2380913C
:10498000F00088608093F000FF91EF91BF91AF91AC
:104990009F918F917F916F915F914F913F912F9157
:1049A0000F900FBE0F901F9018952091F405309135
:1049B000F5052617370748F06115710539F4209180
:1049C000E8002E772093E80001C0B901FC0120E047
:1049D0006115710579F18091EC058823F1F185303D
:1049E000F1F18091E80083FD3CC08091E80082FDF8
:1049F0002EC08091E80080FFEBCF2091F3008091E2
:104A0000F20090E0922B6115710551F0883091050C
:104A100038F421912093F100615071090196F3CF90
:104A200021E0089709F020E08091E8008E778093DC
:104A3000E800CECF2111CFCF0AC08091EC058823AA
:104A400061F0853061F08091E80083FD0AC08091BB
:104A5000E80082FFF2CF80E0089582E0089583E0CD
:104A6000089581E008950F931F93CF93DF938B01F7
:104A7000EA019091EC05943079F58F708093E9000C
:104A80008FEF9091E800815095FD06C095ED9A95C5
:104A9000F1F700008111F5CF8091E80085FF1CC07F
:104AA0000E941C23882361F08091E8008E77809318
:104AB000E80012C0F80181918F018093F1002197E5
:104AC000209791F38091E80085FDF4CF8091E80074
:104AD0008E778093E800E4CFDF91CF911F910F9103
:104AE000089543E050E0BC0186E00E94332508951C
:104AF000CF93DF93EC0180918B02811105C048E0D8
:104B000050E0BE0181E00BC08091C60687FF03C064
:104B100040E286E002C048E081E050E0BE010E9431
:104B2000332580E2FE01AAECB5E001900D928A9552
:104B3000E1F7DF91CF91089581E08093E00080E27A
:104B40008093D8001092C9008FE19EE40197F1F79D
:104B500000C0000087E090EBDC018093B9089093DF
:104B6000BA08A093BB08B093BC089CE088E10FB6DC
:104B7000F894A895809360000FBE90936000FFCFDB
:104B800078941F920F920FB60F9211248F939F93D8
:104B9000AF93BF938091C2069091C306A091C406C3
:104BA000B091C5060196A11DB11D8093C2069093D8
:104BB000C306A093C406B093C506BF91AF919F9161
:104BC0008F910F900FBE0F901F9018959C014FB7BB
:104BD000F8948091C2069091C306A091C406B0914A
:104BE000C5064FBF821B930B08952FB7F8946091B1
:104BF000C2067091C3068091C4069091C5062FBF6E
:104C000008952FB7F8948091C2069091C306A091A1
:104C1000C406B091C5062FBF08951F920F920FB61C
:104C20000F9211248F939F93AF93BF938091C106EE
:104C3000811113C08091C2069091C306A091C40651
:104C4000B091C5064196A11DB11D8093C2069093F7
:104C5000C306A093C406B093C506BF91AF919F91C0
:104C60008F910F900FBE0F901F90189520918B027F
:104C70002223C9F02091C60627FF15C0262F2695AE
:104C8000269526952E31C8F4FC01E20FF11D6770C0
:104C900081E090E001C0880F6A95EAF780959281E3
:104CA000892382830895FC0106962281621301C044
:104CB00012823196E817F907C1F7089520918B0207
:104CC0002223C1F02091C60627FF14C0262F269567
:104CD000269526952E3130F5FC01E20FF11D677007
:104CE00081E090E001C0880F6A95EAF79281892BF4
:104CF00082830895FC0132962FEF30E041916417D2
:104D000089F02F3F19F4411101C0232F3F5F363046
:104D1000A9F72F3F39F0FC01E20FF11D27FDFA95AD
:104D2000628308950895A3E0B0E0E9E9F6E20C9407
:104D300037332091BF063091C00628173907A1F0FC
:104D40009093C0068093BF06E091BD06F091BE0629
:104D5000309751F024E029839B838A830680F78172
:104D6000E02DCE01019609952396E2E00C94533391
:104D7000A3E0B0E0EEEBF6E20C9437332091BB06F3
:104D80003091BC0628173907A1F09093BC06809398
:104D9000BB06E091BD06F091BE06309751F023E0CE
:104DA00029839B838A830680F781E02DCE010196BB
:104DB00009952396E2E00C945333E091BD06F091FF
:104DC000BE06309729F00190F081E02D09950895F5
:104DD00080E00895CF93DF93C5E7D3E060E0CE0194
:104DE0000E94F1332196C11584E0D807B9F7DF910D
:104DF000CF910895A0E0B0E0E0E0F7E20C942D330D
:104E000006E017E0C12CD12C912C812CE12CF12C47
:104E1000C0E0D0E05601AE0CBF1CF501EC0FFD1F49
:104E2000EE0FFF1FEA5FFB4F259134914C2F682D49
:104E3000892D0E94BD2B2196C031D10571F780E1EB
:104E4000E80EF11C839486E08812E2CFF8012591E8
:104E5000349141E060E0892D0E945C2BF80132968C
:104E60002591349140E060E0892D0E945C2B0C5F1D
:104E70001F4F939480E6C80ED11C84E09812C5CFD2
:104E8000CDB7DEB7ECE00C9449339B01782F7770F7
:104E900043E0969587954A95E1F7FC01EE0FFF1FD9
:104EA0008E0F9F1FF901E80FF91F40E050E080E0EE
:104EB000219130E0072E02C0369527950A94E2F73B
:104EC00021703327042E01C0220F0A94EAF7822BA7
:104ED0004F5F5F4F4330510559F70895962F9770F4
:104EE000A1E001C0AA0F9A95EAF793E0769567953D
:104EF0009A95E1F7FB01EE0FFF1F6E0F7F1FFA017E
:104F0000E60FF71F40E050E0682F70E090819B01B2
:104F1000042E02C0369527950A94E2F72170219558
:104F200029272A23292721934F5F5F4F43305105BB
:104F300069F70895CF92DF92FF920F931F93CF935B
:104F4000DF936C01009116058091B506082BC3E034
:104F5000D0E010E0C8010C2E02C0959587950A9408
:104F6000E2F780FD04C02197A8F7F12C09C0FC2EC0
:104F7000B6018C2F0E94BA1E0E94DA1E019799F387
:104F80008F2DDF91CF911F910F91FF90DF90CF90E8
:104F90000895CF93DF93EC010E949A27BE010E94EF
:104FA000BA1E0E94DA1EDF91CF910895FC01248180
:104FB0002223D9F0808191810E94C92792959F7008
:104FC000963079F010F4925001C09A50923068F403
:104FD000803F69F018F4883E40F409C0843F29F40A
:104FE00006C0883E20F0813F11F080E0089581E006
:104FF0000895A4E1B0E0EFEFF7E20C942D338C01BB
:1050000086E0F801DE011F9601900D928A95E1F786
:10501000F8018481E5809BE4892E96E0992E909199
:105020004F06911120C0882309F463C1EE2009F4D2
:1050300042C0C8010E94D627F82E8823E1F187E0FC
:10504000F801D40101900D928A95E1F780914F0605
:10505000813031F480914B0690914C060E94C92713
:105060000E94EF2048C1F801D080C180A280B380A7
:10507000F090500620914D0630914E06FF2009F425
:10508000E7C0A501421B530B483C510508F09DC0E9
:10509000882309F430C180915106282F207F9091F8
:1050A0004C06222361F09C1509F460C0C8010E94DF
:1050B000D627811163C0C8010E942E0C1AC19C1111
:1050C00013C090914B069D110FC0E1100DC08F7061
:1050D0008061809351068BE496E00E942E0C8091B3
:1050E0005106F801868303C1E1103AC040E06C2DFF
:1050F0008D2D0E94C52040E06C2D8D2D0E94C52075
:10510000E82E8111F4C0DF86C88A8F8598890E94B5
:10511000C927292F22952F70243020F49F70223028
:1051200028F009C02A50223080F014C0992349F099
:10513000811107C013C0992321F0F8019681907F57
:1051400069F0805E883030F409C0803F38F0815FBC
:10515000833020F0C8010E942E0CEF2CFE2CCBC017
:1051600080915106816080935106C1C090914B0699
:105170009D119CCFE1109ACFF80198C0EE2009F460
:105180009ACF20915106822F82958F7090E00297DE
:105190008CF080914B0690914C0699878887BB864E
:1051A000AA8680914F068C871D862E87CE01089691
:1051B0000E942E0C87E0F801ABE4B6E001900D925E
:1051C0008A95E1F70E94EF2094C090915106292F13
:1051D000207F51F48BE496E00E942E0C87E0F401CE
:1051E00011928A95E9F783C0882309F484C08091DD
:1051F0004C068C110CC080914B068D1108C0E1103B
:1052000006C0F8019683C8010E942E0C6AC0C8012E
:105210000E94D627882309F44ECFEE2009F44BCF05
:1052200020915106822F82958F7090E0029714F2A0
:1052300080914B0690914C069A838983BC82AB8205
:1052400080914F068D831E822F83CE010196B0CFB1
:10525000A21AB30AF8ECAF16B10408F042C08823D2
:1052600009F447C0FE2CEE2009F425CF80914C06AE
:105270008C1129C080914B068D1125C0909151064B
:1052800090FD18C0892F82958F70282F30E021154E
:10529000310581F0F80196832F30310541F08F5FA1
:1052A000982F9295907F86818F70892B8683C80175
:1052B0000E942E0C87E0F801ABE4B6E001900D925D
:1052C0008A95E1F718C0C8010E94D627811172CFD4
:1052D00080915106816080935106C8010E942E0C76
:1052E0000AC087E0F40111928A95E9F704C0F12C15
:1052F00002C0FF24F3948F2D6496ECE00C944933A4
:10530000292F963058F4803148F490E06CEC76E028
:1053100030E1239F800D911D112406C02C5F2230A7
:1053200030F469EC76E090E00E944527089580E033
:105330000895282F862F963060F4203150F4622F84
:1053400070E020E1929F600D711D11244CEC56E03D
:1053500007C09C5F923030F4622F70E049EC56E059
:105360000E946E2708958093160508959091160562
:1053700021E030E0F90101C0EE0F8A95EAF7D9018A
:1053800002C0AA0FBB1F6A95E2F7BD016E2B01C0D8
:10539000220F4A95EAF7892F8623681303C0892FC5
:1053A000822B03C02095822F89230E94B329089560
:1053B00021E030E001C0220F8A95EAF72095809124
:1053C000160582230E94B329089521E030E001C030
:1053D000220F8A95EAF780911605822B0E94B32945
:1053E00008958093B50608951092B10680918B02BE
:1053F000882331F08091C60687FF02C08EE101C08C
:1054000086E0EDE2F6E0DF011D928A95E9F780E0A3
:1054100090E00E94B82680E090E00E9493261092CF
:10542000B0060E9481210895882321F00E947F20E8
:105430000E9481210895882339F09091B106892B2B
:105440008093B1060E9481210895882349F1682F35
:105450008CEF860F813A28F48BE296E00E94362684
:105460000CC080E2860F883058F4677081E001C07C
:10547000880F6A95EAF70E947F200E948121089593
:105480008BE5860F833028F480E090E00E94B826F8
:105490000895685A6B3120F480E090E00E949326D2
:1054A0000895CF93882309F469C0C82F8CEF8C0F1F
:1054B000813AC0F580918B028823E1F08091C60685
:1054C00087FF18C0EC2FE695E695E695F0E0E55DE0
:1054D000F94F8281282F30E04C2F477081E090E017
:1054E00002C0880F991F4A95E2F782239323892BE4
:1054F00061F412C0EDE2F6E083E396E02191C21779
:1055000021F08E179F07D1F707C06C2F8BE296E032
:105510000E9436260E9481216C2F8BE296E00E9429
:105520005E2610C080E28C0F883078F4C77081E06E
:1055300090E001C0880FCA95EAF79091B106892BD7
:105540008093B1060E94812119C0EBE5EC0FE33096
:1055500040F4F0E0E953FB4F808190E00E94B826D0
:105560000DC0C85ACB3150F4EC2FF0E0EE0FFF1F06
:10557000E653FB4F808191810E949326CF9108953D
:105580001F93CF93DF93182FEB010E94512A20978E
:1055900041F08FE99FE00197F1F700C000002197EB
:1055A000F6CF812F0E94252ADF91CF911F91089578
:1055B000EAEFF5E0248130E1231B08F420E02483A6
:1055C0008091F00681608093F0060895EAEFF5E09F
:1055D000248130E1230F08F42FEF24838091F0061B
:1055E00081608093F0060895A4E0B0E0EAEFFAE26B
:1055F0000C9434338F37910568F5122F042FF62E53
:10560000BC01660F771F660F771F6A5E784F44E014
:1056100050E0CE0101960E94BA33898183702A81BD
:10562000E82FF0E030EC839FC00111248B5F984F8E
:10563000DC01A20FB11DFC922B81DC01A20FB11D78
:105640000C932C81DC01A20FB11D1C93EB57F74F7B
:1056500081E080832496E5E00C945033FF920F9311
:105660001F93CF93DF93182F062FF42EC0E0D0E0C6
:105670002F2D402F612FCE010E94F42A2196CF3783
:10568000D105B1F7CDB7DEB7E5E00C94503380918A
:10569000FA058695815009F484E261E00E9418328F
:1056A00008958091FA0586958F5F853208F081E034
:1056B00061E00E94183208950F931F93CF93DF93F8
:1056C000843010F5611120C094E0899FE00111241D
:1056D000CB59DC4F411103C082E090E002C080E072
:1056E00090E0632F022F142F8C0F9D1F0E94F13327
:1056F000111103C083E090E002C081E090E0602FD0
:105700008C0F9D1F0E94F133DF91CF911F910F915C
:105710000895FF920F931F93CF93DF93843030F55A
:10572000611124C024E0829F800111240B591C4F79
:10573000411103C082E090E002C080E090E0F42ECE
:10574000800F911F0E94D33390E0D82FCC27F11007
:1057500003C083E090E002C081E090E0800F911FE1
:105760000E94D3339E01282BC90102C080E090E043
:10577000CDB7DEB7E5E00C9450331F93CF93DF93A2
:10578000962F8430F0F46630E0F44031D0F4632F8B
:10579000122FC42FD0E0CC0FDD1F20E2929FC00D4E
:1057A000D11D112490EC899FC00DD11D1124CB591E
:1057B000DF4FCE010E94F133612FCE0101960E948E
:1057C000F133DF91CF911F9108950F931F93CF93E2
:1057D000DF93843010F5663000F54031F0F4C42FCB
:1057E000D0E0CC0FDD1F20E2629FC00DD11D11243F
:1057F00030EC839FC00DD11D1124CB59DF4FCE015A
:105800000E94D33390E0182F0027CE0101960E940A
:10581000D3339801282BC90102C080E090E0DF91CA
:10582000CF911F910F91089584E690E00E94F1338B
:105830000895CF93C82F811102C06FEF01C063E2BA
:1058400081E690E00E94F133C11102C06FEF01C008
:1058500069E082E690E00E94F133C11102C06FEF6F
:1058600001C067E183E690E00E94F133CF91089593
:1058700080E00E94192C60E070E0CB010E94142CA3
:105880000E94FA260E94EA2681E00E94192C0895BF
:1058900081E690E00E94D333833281F482E690E087
:1058A0000E94D333893051F483E690E00E94D333D1
:1058B00091E0873109F090E0892F01C080E081708C
:1058C0000895882311F0FA0101C0FB01099508959C
:1058D0006093F1064093F20624E630E042E050E0A7
:1058E00061EF76E0880F0E94F23221E0892B09F007
:1058F00020E0822F0895CF92DF92FF920F931F93A3
:10590000CF93DF93262F30E0A9014954574F6A0106
:10591000FA01908191110AC0F6011082DF91CF91B6
:105920001F910F91FF90DF90CF900895C62FF82E12
:1059300045EC6EEF0E94682C40E06DEF8F2D0E94C9
:10594000682CF8E1CF9FE001112400E010E0F8019D
:10595000EC0FFD1FE957F74F4081602F8F2D0E94FC
:10596000682C0F5F1F4F0831110589F7D5CFA4E0D0
:10597000B0E0EDEBFCE20C9431330E944A328FE54B
:105980000E949E1A80E50E949E1A06E117E088E1B7
:10599000C82EEE24E394F12CDD24D39444E050E0AF
:1059A000B801CE0101960E94BA336A815B814C81B5
:1059B0008981837090E0762F769576957695C89E4E
:1059C0009001C99E300D11242957374FF901E70F77
:1059D000F11D6770D70102C0AA0FBB1F6A95E2F7DD
:1059E000BD017081672B6083652F6695669566950E
:1059F000F901E60FF11D5770B70101C0660F5A9506
:105A0000EAF75081652B6083542F5695569556952D
:105A1000F901E50FF11D4770970101C0220F4A956A
:105A2000EAF73081232B2083FC01E954F74FD08221
:105A30000C5F1F4FB9E002311B0709F0AFCF60E0E8
:105A40008FE50E947B2C61E080E50E947B2C2496F0
:105A5000E8E00C944D33AF92BF92CF92DF92EF9279
:105A6000FF921F93CF93DF93C62FD0E09E012B5759
:105A7000374F6901F90190819923B1F1182F45EC55
:105A80006EEF0E94682C41E06DEF812F0E94682C20
:105A900020EC2C9FC0012D9F900D11249C012B5FA9
:105AA000384F5901110FE12CF12CE092F106D5018C
:105AB000AE0DBF1DE2EFF6E08D91819337E0E2304D
:105AC000F307D1F724E630E041E150E061EF76E002
:105AD000812F0E94F232892B99F480E1E80EF11CAB
