:100000000C9445030C947D030C947D030C947D03A8
:100010000C947D030C947D030C947D030C947D0360
:100020000C947D030C947D030C94ED190C94A91988
:100030000C94EA1A0C947D030C947D030C947D03BC
:100040000C947D030C947D030C947D030C947D0330
:100050000C947D030C94C61A0C947D030C947D03C0
:100060000C947D030C947D030C947D030C947D0310
:100070000C947D030C947D030C947D030C947D0300
:100080000C947D030C947D030C947D030C947D03F0
:100090000C947D030C947D030C947D030C947D03E0
:1000A0000C947D030C947D030C947D0305010902DF
:1000B000A10185020901A1000509190129081500FE
:1000C0002501950875018102050109300931158165
:1000D000257F95027508810609381581257F9501D0
:1000E00075088106050C0A38021581257F95017572
:1000F000088106C0C005010980A101850319012AF4
:10010000B700150126B700950175108100C0050CD8
:100110000901A101850419012AA002150126A002E6
:10012000950175108100C005010906A1018506052C
:100130000719E029E71500250195087501810205D9
:1001400007190029EF1500250195F07501810205B9
:10015000081901290595057501910295017503910D
:1001600001C00660FF0961A1010962150026FF00B8
:100170009520750881020963150026FF00952075FA
:10018000089102C005010906A101050719E029E748
:1001900015002501950875018102950175088101F9
:1001A0000507190029FF150026FF0095067508812F
:1001B000000508190129059505750191029501753C
:1001C000039101C0000000000000000000000000DA
:1001D000000000000000000000000000000000001F
:1001E00000000000000000007E0F00D4FFFFFFC7EA
:1001F0000000007800000000000000002A2B28000A
:1002000000000000000000000000000000000029C5
:10021000000000002C1E3420212224342627252E05
:10022000362D3738271E1F2021222324252633333D
:10023000362E37381F0405060708090A0B0C0D0E69
:100240000F101112131415161718191A1B1C1D2F35
:100250003130232D350405060708090A0B0C0D0E55
:100260000F101112131415161718191A1B1C1D2F15
:100270003130354C29001E001F00200021002200D3
:10028000230024002500260027002D002E002A0030
:100290004C002B0014001A000800150017001C0069
:1002A00018000C00120013002F00300031004B002A
:1002B000390004001600070009000A000B000D00B9
:1002C0000E000F0033003400000028004E00E10053
:1002D0001D001B000600190005001100100036006B
:1002E000370038000000E50052000151E000E30053
:1002F000E200000000002C00000000000000E6000A
:10030000E4000000500051004F0035003A003B006F
:100310003C003D003E003F004000410042004300E1
:10032000440045000100005C0100010001000100E3
:1003300001000100010001000100010001000100B5
:10034000010001004A00010001000100010001005C
:100350000100010001000100010001000100000096
:1003600001004D0001000100010001000100010039
:100370000100010001000100010000000100010076
:100380000100010001000100000000000100000068
:100390000000000001000100000001000100010058
:1003A0000100010001000100010001000100010045
:1003B0000100010001000100010001000100010035
:1003C0000100010001000100010001000100010025
:1003D0000100010001000100010001000100010015
:1003E0000100010001000100010001000100010005
:1003F00001000100000001000100010001000100F6
:1004000001000100010001000100010001000100E4
:1004100000000100010001000100010001000000D6
:1004200000000100000000000000010001000000C9
:1004300001000100010001000100010001000100B4
:1004400001000100010001000100010001000100A4
:100450000100010001000100010001000100010094
:100460000100010001000100010001000100010084
:100470000100010001000100010001000100010074
:100480000100010001000100010000000100010065
:100490000100010001000100010001000100010054
:1004A0000100010001000000010001000100010045
:1004B0000100010000000000010000000000000039
:1004C0000100010000000100010001000100010025
:1004D0000100010001000100010001000100010014
:1004E0000100010001000100010001000100010004
:1004F00001000100010001000100010001000100F4
:1005000001000100010001000100010001000100E3
:1005100001000100010001000100010001000100D3
:1005200000000100010001000100010001000100C4
:1005300001000100010001000100010000000100B4
:1005400001000100010001000100000000000100A5
:100550000000000000000100010000000100010097
:100560000100010001000100010001000100010083
:100570000100010001000100010001000100010073
:100580000100010001000100010001000100010063
:100590000100010001000100010001000100010053
:1005A0000100010001000100010001000100010043
:1005B0000100010001000000010001000100010034
:1005C0000100010001000100010001000100010023
:1005D0000100000001000100010001000100010014
:1005E0000000000001000000000000000100010008
:1005F000000001000100010009025B00030100A0EE
:10060000FA090400000103010100092111010001A0
:1006100022400007058103080001090401000203CC
:1006200000000009211101000122220007058203B8
:100630002000010705030320000109040200010353
:1006400000000009211101000122B6000705840302
:100650002000011201000200000008534F4F510119
:100660000001020001100342006100730069006391
:10067000003600350000000C0353006B0069007267
:10068000006C000000040309040011241FBECFEF1A
:10069000DAE0DEBFCDBF04B603FE18C0809175025C
:1006A00090917602A0917702B09178028730904BBA
:1006B000A740B04B59F41092750210927602109236
:1006C000770210927802E0E0F8E3099511E0A0E0EB
:1006D000B1E0E0E5F0E402C005900D92A236B1076A
:1006E000D9F722E0A2E6B1E001C01D92A537B2071A
:1006F000E1F70E94111B0C94FD1F0C940000E8ED23
:10070000F0E080818E7F80831092E2001092DA0008
:100710001092E100A0EEB0E08C9181608C9380811A
:100720008F77808319BCA7EDB0E08C918E7F8C937E
:1007300080818F7E80831092420208952091E40090
:100740003091E50095E6A9012091EC00822F81709F
:1007500020FF06C08091E80080FF06C080E0089579
:100760002091E80022FD1AC080916702882389F059
:10077000853089F08091EB0085FD0FC02091E40069
:100780003091E50042175307F9F29150E1F684E009
:10079000089582E0089583E0089581E00895EF923E
:1007A000FF920F931F93CF937C018B010E949E03B6
:1007B000C82F811117C08091E80085FD0BC0809182
:1007C000E8008E778093E8000E949E03882399F3C7
:1007D000C82F08C0F70181917F018093F10001507B
:1007E000110949F78C2FCF911F910F91FF90EF9036
:1007F00008958091690287FF13C08091E80082FF0D
:1008000006C08091E8008B778093E80004C0809157
:1008100067028111F2CF0895809167028823D9F38E
:100820008091E80080FFF8CF8091E8008E77ECCFD0
:10083000982F9093E900242F762F50E0891731F0FC
:100840007091EC002091ED005091F00021FD07C067
:100850009F5F973071F78093E90081E008953091B0
:10086000EB003E7F3093EB003091ED003D7F309305
:10087000ED003091EB0031603093EB007093EC00B1
:100880002093ED005093F0002091EE0027FDE0CF83
:1008900080E00895B0E0A0E0E0E5F4E00C946D1F86
:1008A000C8EDD0E088818F7E8883E7EDF0E080811D
:1008B0008160808384E082BF81E0809342028881EE
:1008C0008E7F888302EE10E0F80110821092DA0029
:1008D00081EEC82ED12CF601108288818F77888313
:1008E00088818068888388818F7D888319BC109275
:1008F000670210926802109266021092650290EEF2
:10090000E92EF12CF70180818B7F808388818160C3
:10091000888342E060E080E00E941804F601808154
:100920008E7F8083F80180818160808380818860F0
:100930008083F70180818E7F8083888180618883B6
:10094000CDB7DEB7E8E00C94891FFC0180916F02FF
:100950009091700286179707A0F06115710529F430
:100960009091E8009E779093E80090E06115710502
:1009700051F4911108C08091E80082FF34C080E0FA
:100980000895BC01F2CF809167028823C1F18530C0
:10099000C1F18091E80083FD30C08091E80082FDC4
:1009A000EACF8091E80080FFE1CF8091F3002091B1
:1009B000F200382F6115710519F02830310558F013
:1009C00091E02830310509F090E02091E8002E7781
:1009D0002093E800CBCF81918093F10061507109A1
:1009E0002F5F3F4FE7CF80916702882341F085302A
:1009F00041F08091E80083FFBECF81E0089582E05E
:100A0000089583E0089508958091440208959C011B
:100A10004FB7F8948091390290913A02A0913B022D
:100A2000B0913C024FBF821B930B08952FB7F894EF
:100A30008091390290913A02A0913B02B0913C0220
:100A40002FBF089520910C012223C9F020913D026F
:100A500027FF15C0E62FE695E695E695EE31D8F42A
:100A6000E80FF92FF11D677021E030E001C0220F7F
:100A70006A95EAF720958281282322830895FC0154
:100A8000329608962191621303C0DF0111971C92E0
:100A9000E817F907B9F7089520910C012223C1F056
:100AA00020913D0227FF14C0E62FE695E695E695D6
:100AB000EE31F8F4E80FF92FF11D677021E030E016
:100AC00001C0220F6A95EAF78281822B8283089502
:100AD000FC0132962FEF30E04191641751F02F3F27
:100AE00019F4411101C0232F3F5F3630A9F72F3F82
:100AF00009F40895820F911D27FD9A95FC016283E8
:100B0000089520913602309137022817390771F085
:100B10009093370280933602E0913402F0913502CF
:100B2000309721F00084F185E02D099508952091FA
:100B30003202309133022817390771F09093330253
:100B400080933202E0913402F0913502309721F027
:100B50000680F781E02D09950895E0913402F09127
:100B60003502309729F00190F081E02D0995089524
:100B700080E008950E9416059C0190912E028091BC
:100B80002F02982B21F030932B0220932A02909170
:100B9000300280913102982B21F03093290220936A
:100BA0002802E0913402F0913502309749F082E05A
:100BB00080932C020480F581E02D8CE292E009956F
:100BC000089540912E02803F59F480912F0287FFB3
:100BD0000DC010922F0241110BC01092260208C0C6
:100BE000813F81F480912F0218169CF3442381F0F9
:100BF0008091300290913102892B09F05AC01092F5
:100C000025020895823F49F447FFF0CF10922E024B
:100C100080912F028111ECCFE0CF833F19F414169D
:100C2000ACF3E4CF90913002893F29F41916F4F621
:100C300010923002DBCF8A3F19F497FFD7CFF8CF5D
:100C4000909131028B3F29F497FFD0CF109231025F
:100C5000CDCF8C3F19F41916CCF3C8CF9CE0980F78
:100C6000953090F4845F990B21E030E0B90102C027
:100C7000660F771F8A95E2F7CB01809590912D0240
:100C8000892380932D02B2CF8D3F31F480912702CA
:100C90008E7F80932702AACF8E3F21F48091270276
:100CA0008D7FF7CF8F3F09F0A1CF809127028B7FF7
:100CB000F0CF08958091270280FD16C081FD16C0F7
:100CC00082FD16C0809125028823A1F0883280F42D
:100CD00028E0829FC001112468E270E00E94421F58
:100CE000862F672B39F0089582E0089584E00895F7
:100CF00088E0089581E008958091270280FD14C066
:100D000081FD14C082FD16C080912602882381F0E7
:100D10008E3180F420E5829FC00111246EE170E0E5
:100D20000E94421F862F089584E1089588E2089565
:100D300088E0089580E50895803F31F40E947C06A4
:100D4000819580932F020895813F19F40E947C06BB
:100D5000F8CF823F31F40E947C06819580932E0269
:100D60000895833F19F40E947C06F8CF893F29F447
:100D70000E945A068093300208958A3F21F40E940F
:100D80005A068195F7CF8B3F31F40E945A06819520
:100D90008093310208958C3F19F40E945A06F8CFCF
:100DA0009CE0980F953070F4845F990B21E030E05F
:100DB00001C0220F8A95EAF780912D02822B809341
:100DC0002D0208958D3F31F4809127028160809338
:100DD000270208958E3F21F4809127028260F7CF89
:100DE0008F3FB9F7809127028460F1CF80E00895AA
:100DF000F894E82FE295EF70F0E031A1282F2F70E2
:100E000081E090E001C0880F2A95EAF7982F90952D
:100E1000932391A392A1892B82A378940895909112
:100E20003D0292FF06C0282F28712830F9F4877FF1
:100E3000846093FF06C0282F28712831F1F4877E43
:100E4000846120913E0220FF06C0382F387138306F
:100E5000D9F4877F816021FF06C0282F28712831AF
:100E6000D1F4877E816194FD877E0895282F2471B7
:100E70002430F9F68B7F8860DCCF282F2471243151
:100E800001F78B7E8861DDCF382F3171313019F752
:100E90008E7F8860E0CF282F2171213121F78E7E4F
:100EA0008861E1CFCF93DF93EC0182389105B1F1F6
:100EB00008F040C08133910509F49DC048F589329E
:100EC000910509F48DC08A9709F49CC0C11521E5EC
:100ED000D20708F0C3C0C11530E5D30708F01EC122
:100EE000C83ED10508F0A3C0C13ED10588F5C83A77
:100EF000D10508F08EC0C53AD10508F007C1C13050
:100F0000D10531F1209721F1C430D10508F545C054
:100F10008533910509F45FC0C997C1F680913D0200
:100F2000837009F043C180913E0283FF11C0C9E282
:100F3000D0E00EC0833E910599F170F4803E91059A
:100F400001F1823E910511F680913D0282FD21C0A2
:100F5000CE01DF91CF910895863E910561F1873EE4
:100F6000910571F1843E910509F0B0CF80913E0268
:100F700081FFEECF80913D02C7EED0E084FD0DC031
:100F8000E7CF80913D0280FD33C090913E0290FFFB
:100F9000DFCFC3EED0E084FFDBCFD0E0C0E0D8CF1E
:100FA00080913D0282FDFFC090913E0290FDFEC007
:100FB00084FFCECFF2CF80913D0283FDDDCFC8CF3D
:100FC00080913D0283FDF5C090913E0291FFF0CFEC
:100FD000C4EED0E0BDCF80913D0285FFB9CFA7CF51
:100FE00080913D0285FDE8C080913E0283FFB0CF35
:100FF000C9E3D0E0ADCF80913D0286FFA9CFCAE220
:10100000D0E0A6CF80913D0286FFA2CFC1E3D0E021
:101010009FCFCF3BD10508F6C85AD0E0CC0FDD1FDB
:10102000C05FDE4F0990D881C02DD46491CFC11527
:1010300040E2D40758F4C11581E0D80708F088CF02
:10104000C03FD10508F4A9CFD06582CFC11520E4F7
:10105000D20708F4A2CFDF70D06A7ACFC11535E588
:10106000D30718F5C11544E5D40708F084C0C115AD
:1010700083E5D80708F06BC0C11522E5D20708F454
:1010800061C0CE018370992721E030E002C0220FB9
:10109000331F8A95E2F7C695C69580E2C89FE001A6
:1010A0001124C22BD32BDC6853CFC11539E5D307EC
:1010B000A8F4C11548E5D40708F062C0C11586E55B
:1010C000D80708F06ACF8C2F0E940F07C82FD0E0F6
:1010D000DC2FCC27CC27DF71D0623ACFC1152AE5AF
:1010E000D20708F452C0CE0190568115904208F004
:1010F00054CF8D2F8F710E940F0790E0982F882773
:1011000088279F719C012C2BE901E6CFC55AD0E0BE
:10111000C35FDE4FC881D0E0D0641ACFCE018370A8
:10112000992721E030E002C0220F331F8A95E2F7B1
:10113000C695C69540E2C49FE0011124C22BD32B73
:10114000DD6806CFDC2FCC27C16FD06A01CFCE017E
:101150008370992721E030E002C0220F331F8A9567
:10116000E2F7C695C69540E2C49FE0011124C22B68
:10117000D32BDA68EDCEDC2FCC27C46FD06AE8CE53
:10118000DC2FCC27C06FD06AE3CE8C2F8F700E94EB
:101190000F0734E0D695C7953A95E1F7CF709C2FAD
:1011A000EC01D069D5CEC2EED0E0D2CEC0EED0E018
:1011B000CFCEC6EED0E0CCCEC5E3D0E0C9CE809194
:1011C000FE0181111092FE01089580959091FD011C
:1011D00098239093FD0108958091DA019091A901DF
:1011E000981301C008958F5F8770FACF292F95302B
:1011F00078F58F3068F590E03FE0239F800D911DDA
:101200001124682F677023E0969587952A95E1F75A
:10121000FC01EE0FFF1FE80FF91FEB57FE4F50E0E8
:1012200040E080E0219130E0062E02C036952795FF
:101230000A94E2F721703327042E01C0220F0A948A
:10124000EAF7822B4F5F5F4F4330510559F70895FE
:1012500080E00895292F953098F58F3088F590E03B
:101260003FE0239F800D911D1124282F277041E01E
:1012700001C0440F2A95EAF723E0969587952A95B1
:10128000E1F7FC01EE0FFF1FE80FF91FEB57FE4FD0
:1012900030E020E070E05191DF011197CB01022E88
:1012A00002C0969587950A94E2F78170819585270B
:1012B000842385278C932F5F3F4F2330310559F7C7
:1012C000089580933F0270934102609340028091A1
:1012D00067028430F9F48093E9008FEF9091E80081
:1012E000815095FD06C095ED9A95F1F700008111AA
:1012F000F5CF8091E80085FF0DC050E040E063E04D
:1013000070E08FE392E00E94CF038091E8008E7737
:101310008093E8000895BC0184E00E94610908956B
:10132000BC0183E00E94610908959C0184E08093E0
:10133000E9009FEF8091E800915085FD06C085EDA2
:101340008A95F1F700009111F5CF8091E80085FFB3
:101350000CC050E040E066E070E0C9010E94CF039D
:101360008091E8008E778093E8000895CF93DF9313
:10137000EC0180910C018823B1F180913D0287FF3F
:1013800032C060E284E08093E9008FEF9091E80042
:10139000815095FD06C095ED9A95F1F700008111F9
:1013A000F5CF8091E80085FF1BC080910C0170E0B3
:1013B00050E040E0811104C050E040E068E070E09F
:1013C000CE010E94CF038091E8008E778093E800E1
:1013D00080E2FE01A5E4B2E001900D928A95E1F76A
:1013E000DF91CF91089568E081E0CDCF81E08093D7
:1013F000E00080E28093D8001092C9008FE19EE463
:101400000197F1F700C0000087E090EBDC018093CA
:10141000750290937602A0937702B093780288E1E8
:101420009CE00FB6F894A895809360000FBE90934F
:101430006000FFCFCF93DF93CBEAD3E060E0CE0133
:101440000E94BC1F2196C11584E0D807B9F7DF912F
:10145000CF9108951F93CF93DF93122F8630E0F43E
:101460006530D0F44F30C0F4C42FD0E0CC0FDD1F76
:101470009EE1699FC00DD11D112496E9899FC00D81
:10148000D11D1124632FCE0187960E94BC1F612FAE
:10149000CE0188960E94BC1FDF91CF911F910895C5
:1014A000AF92BF92CF92DF92EF92FF921F93CF93B2
:1014B000DF9384E7C82E82E0D82ED0E07601C0E02A
:1014C00014C0F50125913491412F6C2F8D2F0E946E
:1014D0002A0A82E0A80EB11C1F5F1F3091F78EE12F
:1014E000E80EF11CCF5FC53019F0570110E0E9CFCD
:1014F000DF5F86E9C80ED11CD63001F7DF91CF91AE
:101500001F91FF90EF90DF90CF90BF90AF90089524
:10151000CF93C82F6FEF811162E283E290E00E94C7
:10152000BC1F6FEFC11160E184E290E00E94BC1F1C
:101530006FEFC11169E285E290E00E94BC1FCF917C
:10154000089580E00E94880A60E086E290E00E94B0
:10155000BC1F0E94500A0E941A0A81E00E94880A59
:101560000895CF93C92F682F84E090E00E94BC1F9C
:101570006C2F82E290E00E94BC1FCF9108950F93E0
:101580001F93CF93DF93863030F5653020F54F30D1
:1015900010F5C42FD0E0CC0FDD1F2EE1629FC00DEF
:1015A000D11D112436E9839FC00DD11D1124CE0118
:1015B00087960E94AE1F082F10E0102F0027CE0143
:1015C00088960E94AE1F9801282BC901DF91CF9108
:1015D0001F910F91089590E080E0F8CF462F86305C
:1015E00040F4753030F46F3020F4672F0E94BF0A4A
:1015F000089590E080E00895CF92DF92FF920F93DC
:101600001F93CF93DF936C01009174028091FF01CF
:10161000082BC7E0D0E010E0FC2EC8010C2E02C061
:10162000959587950A94E2F780FD0CC02197A0F765
:10163000F12C8F2DDF91CF911F910F91FF90DF90B3
:10164000CF900895B6018C2F0E94EE0A0E94520797
:10165000019761F3EECFCF93DF93EC010E94FC0A78
:10166000BE010E94EE0A0E945207DF91CF910895B9
:10167000FC0183819481892B29F0808191818923C8
:101680008F3F51F480E00895843FE1F717C0883E12
:10169000A8F0813FB9F712C0808191810E942B0B85
:1016A00092959F70963099F358F4925F9F709230A4
:1016B00048F7803F19F040F7883E20F781E0089511
:1016C0009A5FF4CF83E290E00E94AE1F823289F4E9
:1016D00084E290E00E94AE1F803159F485E290E0F0
:1016E0000E94AE1F91E0893209F090E0892F81704D
:1016F000089580E0FCCFCF9384E090E00E94AE1F7D
:10170000C82F82E290E00E94AE1F982F8C2FCF91BD
:1017100008958091FD019091FC01892B80936401D3
:101720009091FE019923A1F0892B8093640180910F
:101730000C018823E1F180913D0287FF38C08EE1E2
:10174000E6E6F1E090E08150A0F591110E94DF08FB
:1017500040E250E06CED71E084E691E00E94F01F01
:10176000892B21F180E2E4E6F1E0ACEDB1E00190FB
:101770000D928A95E1F7E0913402F09135023097AD
:10178000A9F080910C01882359F080913D0287FFD8
:1017900007C0809164018093650186E080936401B5
:1017A0000280F381E02D84E691E00995089586E0BA
:1017B000C7CF2191222339F29F5FC5CF90E080E00F
:1017C0000E94970590E080E00E9481051092FC0144
:1017D0000E94890B86E0ECE2F2E0DF011D928A951F
:1017E000E9F71092260210922502109227020E9419
:1017F000BA050895809374020E94DE0B08958091CB
:101800007402982F9670963021F488600E94FA0B2B
:101810000895877FFBCF21E030E001C0220F8A9539
:10182000EAF720958091740282230E94FA0B0895B2
:101830009091DB01809589238093DB01282F27700D
:1018400091F4282F082E000C330B9217130659F031
:1018500090913E0292FF07C08595859585950E94DF
:101860000B0C1092DB01089590913E0292FB22270F
:1018700020F9281769F080FB92F990933E0280913D
:101880003D0290913E020E94B10A82E00E94180C33
:10189000089521E030E001C0220F8A95EAF7809197
:1018A0007402822B0E94FA0B08958093FF010E941C
:1018B000DE0B0895882321F00E94E5080E94890B21
:1018C0000895882339F09091FD01982B9093FD01A4
:1018D0000E94890B0895882391F19CEF980F913A0B
:1018E00040F4682F84E691E00E9422050E94890B53
:1018F000089590E2980F983050F4877091E001C0FD
:10190000990F8A95EAF7892F0E94E508EFCF9BE5AA
:10191000980F933028F490E080E00E949705089596
:1019200098E5980F973128F490E080E00E948105B7
:101930000895803F20F00E94E1050E94BA050895B5
:10194000CF93C82F8823D9F18CEF8C0F813AC8F53B
:1019500080910C01882311F180913D0287FF1EC008
:10196000EC2FE695E695E695F0E0EC59FE4F828186
:1019700090E04C2F477021E030E002C0220F331F6F
:101980004A95E2F782239323892B91F06C2F84E60A
:1019900091E00E9422050E94890B0AC0E6E6F1E070
:1019A0008CE691E02191C21789F38E179F07D1F73A
:1019B0006C2F84E691E00E944C050E94890BCF9128
:1019C000089580E28C0F883068F4C77021E030E021
:1019D00001C0220FCA95EAF78091FD01822B809306
:1019E000FD01EBCFEBE5EC0FE33040F4F0E0E35F1B
:1019F000FE4F808190E00E949705E1CFE8E5EC0F73
:101A0000E73150F4F0E0EE0FFF1FE05FFE4F808102
:101A100091810E948105D3CFC03F88F28C2F0E9414
:101A20009C060E94BA05CBCF1F93CF93DF93182F4C
:101A3000D0E0C0E0893311F4C0E5D0E0812F0E94EE
:101A4000A00C209739F4812F0E946B0CDF91CF916D
:101A50001F9108958FE99FE00197F1F700C0000002
:101A60002197EFCF0F931F93CF93DF93C62FD42FE0
:101A7000022FFC0182818823A9F0609373020E94E7
:101A800016059093720280937102C77081E001C0C5
:101A9000880FCA95EAF70E94610CDF91CF911F91E0
:101AA0000F91089580917302681332C08091710282
:101AB000909172020E940705883C910548F510E25A
:101AC0001D0FCD17B9F080E28C0F883040F4C7703D
:101AD00081E001C0880FCA95EAF70E945A0C1830BD
:101AE00048F481E09D2F977001C0880F9A95EAF71E
:101AF0000E94610C802F0E94140D183070F6D77070
:101B000081E001C0880FDA95EAF70E945A0CC5CF30
:101B1000C77081E001C0880FCA95EAF7F6CF10922E
:101B2000FD0180910C01E6E6F1E0882361F08091EF
:101B30003D0287FF08C08EE1DF011D928A95E9F71B
:101B40000E94DE0B089586E0F7CFAAE2B0E0EBEA50
:101B5000FDE00C94721F89E692E02091F100DC0117
:101B60002D93CD01B2E081379B07B9F780916A02CE
:101B7000833009F472C0B8F4813009F449C082306E
:101B800009F4B3C08091E80083FF8BC280916902A1
:101B900090916A029A3008F084C2E92FF0E0E15097
:101BA000F04E0C94561F8A3009F48EC08B3009F425
:101BB00071C0893039F780916902813219F78091BB
:101BC0006D0290916E02009711F00297D9F6809104
:101BD000E800877F8093E8008091E80082FF38C0AA
:101BE0009091F3008091F200029731F48091F1001E
:101BF000813011F0863021F48091F100809344020D
:101C00008091E8008B778093E8000E94F903BACFB7
:101C100080916902813A09F0B5CF8091E800877F11
:101C20008093E80080916D0290916E02892B61F49F
:101C300060E285E492E070E00E94A5048091E800F3
:101C40008B778093E8009ECF60E090E080E0F3CF58
:101C5000809167028111C0CF95CF80916902813A4E
:101C600009F090CF80916D0290916E02892B09F05E
:101C700089CF8091E800877F8093E8008091E80019
:101C800080FFFCCF80910C018093F1008091E800EF
:101C90008E77B9CF80916902813209F073CF80913C
:101CA0006D0290916E02892B09F06CCF8091E80053
:101CB000877F8093E8000E94F90380916B028093F4
:101CC0000C010E948F0D5ECF80916902813209F074
:101CD00059CF8091E800877F8093E8000E94F90344
:101CE00080916C02809343024DCF80916902813ACA
:101CF00009F048CF8091E800877F8093E8008091C9
:101D0000E80080FFFCCF80914302BECF803899F07D
:101D1000823809F0C6C180916D028F70873008F05B
:101D2000C0C18093E9008091EB0085FB882780F992
:101D30001092E90006C080916502909166029111AF
:101D400082609091E800977F9093E8008093F10083
:101D50001092F1008091E8008E779FC1882309F4EA
:101D60008DC1823009F09DC180916B02811190C1BB
:101D700080916D028F702FEF280F263008F091C1EF
:101D80008093E9002091EB0020FF82C1933031F471
:101D90008091EB0080628093EB007AC19091EB0020
:101DA00090619093EB0021E030E001C0220F8A9512
:101DB000EAF72093EA001092EA008091EB00886035
:101DC000EACF81116EC110916B021F778091E30001
:101DD0008078812B8093E3008091E800877F809357
:101DE000E8000E94F9038091E80080FFFCCF809119
:101DF000E30080688093E30082E0111183E0809328
:101E000067024FC18058823008F04BC120916B02AD
:101E100030916C022C3DE3E03E07A1F583E08A831C
:101E20008AE289834FB7F894DE01139620E03EE002
:101E300051E2E32FF0E050935700E49120FF03C0FC
:101E4000E295EF703F5FEF708E2F90E0EA30C0F0C8
:101E5000C7968D939D932F5F243159F74FBF809183
:101E6000E800877F8093E8006AE270E0CE01019687
:101E70000E94A5048091E8008B778093E80011C14F
:101E8000C096E7CF80916D0290916E02432F552747
:101E90004330510509F44AC078F54130510509F441
:101EA0007AC08BE590E0E8EFF5E04230510509F0AB
:101EB000F8C02091E800277F2093E80020916F026E
:101EC000309170028217930708F49C0140E02115BD
:101ED000310509F065C0411163C08091E80082FDC1
:101EE000C9CF80916702882329F2853019F2809149
:101EF000E80083FFF2CFBECF4132510509F43CC068
:101F00004232510509F0CDC08330910508F0C9C0B7
:101F1000FC01EE0FFF1FEB5AFE4F0190F081E02D08
:101F20008E5A9E4FDC018C9190E01AC033272130ED
:101F30003105D1F02115310561F02230310509F06C
:101F4000B0C0E5E6F6E0E4918E2F90E0E5E6F6E03D
:101F500007C0E5E8F6E0E4918E2F90E0E5E8F6E0D2
:101F6000009709F49EC0A5CFE7E7F6E0E4918E2F35
:101F700090E0E7E7F6E0F4CF8330910508F091C0F8
:101F8000880F991FFC01E55AFE4F0190F081E02D6A
:101F900089E090E08ECF82E190E0E3E5F6E089CF42
:101FA00080916702882309F465CF853009F462CFF8
:101FB0008091E80083FD5ECF8091E80082FD8DCFA7
:101FC0008091E80080FF83CF9091F3008091F20030
:101FD0002115310519F08830910550F041E008973E
:101FE00009F040E08091E8008E778093E8006FCFA1
:101FF00044914093F1003196215031090196E8CF88
:10200000803809F04EC08091E800877F8093E80017
:10201000809168028093F1009DCE811142C01091A1
:102020006B021230F0F58091E800877F8093E80022
:10203000109368020E94F903112311F084E005C097
:102040008091E30087FDFACF81E08093670242E050
:1020500061EC81E00E94180442E261EC84E00E949D
:10206000180442E261EC82E00E94180442E260EC53
:1020700083E00E9418048091670213C080916B0274
:10208000813079F481E0933009F080E0809366023A
:102090001092E9008091E800877F8093E8000E9419
:1020A000F9038091E80083FF0AC08091E800877FF0
:1020B0008093E8008091EB0080628093EB00AA9609
:1020C000E3E00C948E1F0E948F0D2FEF84E39CE0C1
:1020D000215080409040E1F700C0000088E19CE082
:1020E0000FB6F894A895809360000FBE909360009F
:1020F000FFCFAAE0B0E0EFE7F0E10C94691F8E019A
:102100000F5F1F4F8AE0F80111928A95E9F79EE36D
:10211000E92E91E0F92E6801AA24A394B12CF701CD
:1021200081917F018F3F09F446C0F894E82FE29532
:10213000EF70F0E021A18F70A50102C0440F551F80
:102140008A95E2F7CA01922F982B91A392A18095CC
:10215000892382A3789400C0E3E4F1E021E030E039
:10216000912C812C41914F3F09F467C0A42FA29577
:10217000AF70B0E090968C9190E04F7002C0959552
:1021800087954A95E2F780FD58C0C901882A992AA7
:10219000220F331F51E0E235F50721F7F7013197A0
:1021A00080818F3F11F00E94F80680EA8A95F1F74E
:1021B000F60191828082F2E0CF0ED11C43E4E41656
:1021C00041E0F40609F0ABCF4AE050E0B80183E00B
:1021D00092E00E94F01F892B99F18AE0F801A3E0B8
:1021E000B2E001900D928A95E1F781E080930202BE
:1021F0000E941605909301028093000280910002D4
:10220000909101020E9407050597F0F04AE050E026
:1022100063E072E08BE192E00E94F01F892BC9F02D
:102220008AE0E3E0F2E0ABE1B2E001900D928A9542
:10223000E1F781E01092020208C090E080E0A6CFB2
:10224000809102028111DACF80E02A96ECE00C94B2
:10225000851F80E0EFCF68EE7EEF90E080E00E9487
:10226000DA1F60E082E090E00E94BC1F60E083E043
:1022700090E00E94BC1F1092FF0160E084E090E0BB
:102280000E94BC1F64E082E290E00E94BC1F60E0FC
:1022900085E090E00E94BC1F60E086E090E00E9434
:1022A000BC1F6FEF87E090E00E94BC1F40E050E051
:1022B000BA0188E090E00E94CE1F60E08DE090E0DF
:1022C0000E94BC1F40E050E0BA0188E190E00E940B
:1022D000CE1F60E087E190E00E94BC1F40E050E02C
:1022E000BA018CE190E00E94CE1F70E060E080E2D5
:1022F00090E00E94DA1F40E050E0BA0188E190E0EF
:102300000E94CE1F80E00E94880A0E94A10A40E03D
:1023100050E0BA018FE090E00E94CE1F40E050E014
:10232000BA0183E190E00E94CE1F0895A5E0B0E0DD
:10233000ECE9F1E10C94641F8C01FC018381948130
:10234000892B31F08081918189238F3F09F081C5EC
:102350002596E1E10C94801F0E94FC0AF82E682F5C
:1023600089819A810E942A0969817A818F2D0E9430
:10237000EE0A7C01F8018281882309F45DC597018A
:1023800022513F452031310508F029C58FEF93E0F8
:102390000E94AE1F811128C0FEEEEF0E5BEA852E73
:1023A00053E0952EE11032C01C821B8244244394DA
:1023B0004AE0342E74018FEFE81AF80AC4010E9433
:1023C000AE1F89831A82882379F09FEF980F93308C
:1023D00058F58A83498292E0890E911CC7010E94B8
:1023E000AE1F8B83811121C08091DB01877009F4BE
:1023F000AFCFF8018281882309F4AACF80913E02F1
:1024000082FFA6CF82E00E94180CA2CF811424E0A4
:10241000920651F3C4010E94AE1F811101C0EA94DB
:102420003FEF831A930ABECF4701FE0131967F0129
:10243000F7012081222309F4BDCF213009F047C0E4
:1024400091818281913031F4F2E0EF0EF11C0E9413
:10245000140D07C0923049F422E0E20EF11C0E94F4
:10246000A00C3FEFE31AF30AE3CF933031F432E0EC
:10247000E30EF11C0E946B0CF4CF943021F08FEF2F
:10248000E81AF80AEECF92E0E90EF11C30E020E005
:10249000B7016F5F7F4FF70141818053990B8A30FD
:1024A000910550F021503109E0F28FE99FE001974A
:1024B000F1F700C00000F6CF329EF001339EF00D20
:1024C00011249C012E0F3F1F842F7B01E1CFE22FAF
:1024D000F0E0EC50FE4F5490822F869586958695BD
:1024E00090E0FC01EC51FE4F64902770712C022E9D
:1024F00002C0759467940A94E2F7E1E06E227724B3
:10250000FC01EC52FE4FA490B12C022E02C0B594F7
:10251000A7940A94E2F7F1E0AF22BB24FC01EC534C
:10252000FE4FC490D12C02C0D594C7942A95E2F7EF
:1025300021E0C222DD246114710419F081EE0E94B1
:10254000A00CA114B10419F086EE0E94A00C852DF8
:102550000E94140DA114B10419F086EE0E946B0CB8
:102560006114710419F081EE0E946B0CC114D10446
:1025700009F477CF8CE26BCF81E00E94490C0E9476
:10258000FF0B32CF81E00E940B0CF9CF82E0F5CF38
:1025900095EFE9169CE5F90609F465C008F45FC0FB
:1025A00027E245EE66EEF6EFEF16FCE5FF0609F4CE
:1025B0003FC4882309F45EC41092730223E0E2163C
:1025C0002DE5F20608F056C03AEFE3163CE5F306B7
:1025D00030F4C70182509C45449708F058C00E94CF
:1025E0007B0B90933E0280933D02F2E1EF16FCE5F7
:1025F000FF0609F471C108F0AFC039E0E3163CE50D
:10260000F30609F447C108F072C095E0E9169CE5AD
:10261000F90609F42FC108F058C0F3E0EF16FCE505
:10262000FF0609F41FC108F021C180913D028160BD
:1026300032E0E3163CE5F30609F48BC080913D02DD
:1026400090913E020E94B10A0E948F0DCDCE27E2EA
:1026500045EE65EEEDC326E241EE60EEE9C327E20A
:1026600045EE64EEE5C326E241EE62EEE1C328E208
:1026700041E0EFCF85EAE8168DE5F80609F4AFCF23
:10268000F0F4E1E6EE16EDE5FE0609F4A8CF96E1DA
:10269000E9169CE5F90609F0FDC38091FD018A7AEF
:1026A00091E009F490E09093840169E2811165E37F
:1026B00084E691E00E944C050E94890B95CEC701EB
:1026C0008D5A9D45039718F78ACF87E0E8168CE569
:1026D000F80609F4DBC080913D02806198E0E916BC
:1026E0009CE5F906B0F180913D02806432C0EDE0D6
:1026F000EE16ECE5FE0609F4D7C0A0F480913D0289
:102700008E7F2BE0E2162CE5F20619F180913D0256
:102710008C603CE0E3163CE5F306D8F080913D0286
:102720008D7F17C08FE0E8168CE5F80609F4CCC061
:1027300008F4BEC0E0E1EE16ECE5FE0609F4C8C000
:1027400080913D028F7BF1E1EF16FCE5FF0609F079
:1027500075CF80933D0272CF2FEFE2162CE5F20683
:1027600009F4C4C0D8F58AEFE8168CE5F80609F438
:1027700085C0D0F4E4E1EE16ECE5FE0609F4C4C031
:1027800008F4B0C025E1E2162CE5F20609F056CFB8
:1027900080913D0282FB992790F921E0922790FBDE
:1027A00082F990FB83F9D5CF3CEFE3163CE5F306C5
:1027B00009F482C008F466C09DEFE9169CE5F906AD
:1027C00009F47EC080913E028360EEEFEE16ECE5E8
:1027D000FE0609F033CF80933E0230CFF1E6EF16CC
:1027E000FDE5FF0609F49BC0A0F431E0E3163DE5EA
:1027F000F30609F492C008F47DC060E092E0E916A7
:102800009DE5F90609F01ACF8EE090E00E94BC1F0A
:1028100015CFEDEAEE16EDE5FE0601F168F49091B4
:102820003D02892F8E7F90FF816025EAE2162DE51B
:10283000F20609F48ECF02CF3EEAE3163DE5F30639
:1028400079F18FEAE8168DE5F80609F0F7CE909158
:102850003E02892F877F93FF8860BDCF80913E0223
:102860008860B9CF80913D02826073CF80913D0234
:1028700084606FCF80913D0288606BCF80913E0273
:102880008160A9CF80913E028260A5CF80913D02F8
:1028900080625FCF0E948F0D80913D02806859CF8A
:1028A00080913E02877F97CF80913D028B7F51CFF1
:1028B00080913D02877F4DCF80913E028E7F8BCFEE
:1028C00080913E028D7F87CF80913D028F7E41CFE8
:1028D00080913D028F7D3DCF0E948F0D80913D0202
:1028E0008F7737CF80913D02837F33CF80913E0237
:1028F0008C7F71CF80913E02982F909591708E7F42
:10290000892B90FB81F967CF0E948F0D90913D023A
:10291000892F97FB87F980581CCF61E075CF909184
:102920003D02892F8F7E94FF806113CF0E948F0D0F
:10293000EFEFF4E32CE0E150F0402040E1F700C07D
:1029400000000E94F60980913E0282FB882780F9F0
:1029500091E089270E94340CF8018281E080F180A7
:10296000882309F445C0C7010E94FC0AD82E682FAD
:10297000C7010E942A09B7018D2D0E94EE0A0E940C
:1029800052077C01882EF801D280B580B2943FE0D6
:10299000B3228091DB018770C1F0AD2CDD20B1F056
:1029A0008F2D807F803421F080E28E0D883068F09A
:1029B00080913E0282FF09C082E00E94180C809143
:1029C000DB018770AA24A3948111A12C9F2C9294DF
:1029D0002FE09222FBE0F91508F479C0E92DF0E030
:1029E000E75FFF4D0C94561F81E0B4CF80E0B2CF7B
:1029F000C7010E94F608D82EBECF2F2D2F70C22EF1
:102A00008F2D807F19F0C29490EFC922DD20B9F09C
:102A1000CC2069F080E28E0D883010F0811009C062
:102A20008091FD01C82AC092FD010E94890B8E2D64
:102A30004CC08091FC01C82AC092FC01F6CF8E2DBB
:102A40000E946B0CCC2009F442C080E28E0D8830CD
:102A500010F0811004C08C2D0E94E50806C0C094BF
:102A60008091FC01C822C092FC010E94890B2FC0FA
:102A70003F2D3F70C32E8F2D807F803219F0C2947E
:102A800080EFC822882089F081E0881609F468C0A8
:102A9000DD2009F472C0BB2009F468C0F80185810B
:102AA00080FFC5CF8F70858361C020913E0222FDDB
:102AB00035C0DD2069F1CC2039F08091FD01C82AB4
:102AC000C092FD010E94890B80E00E94A00C292D7C
:102AD0002850330B2430310510F40E94AD05AA2094
:102AE00009F436CC8091DB0180FD32CCF8011282F2
:102AF0008595859585950E94490CC8010E9496117F
:102B00008091DB018595859585950E940B0C20CCE5
:102B100080E00E946B0CCC20D1F29DCFDD2099F09B
:102B20009091FE018C2D892BB11003C00E94610C85
:102B3000CECFE1E0BE12FACF22FFC9CF891739F21A
:102B40008093FE01C4CFB11006C00E94DF088C2D17
:102B50000E945A0CBCCFF1E0BF1609F4B8CFF5CFF4
:102B6000DD2031F025E02B1508F4B1CF8C2DDECF20
:102B700034E03B1508F4ABCFEACFBB2041F3F9E3D7
:102B80008F1209C02FEF37EE83E021503040804094
:102B9000E1F700C000008E2D0E946B0C98CF8F2DA6
:102BA00086958695837061F0813009F090CFC701DA
:102BB0009370D11002C090E080E00E94810587CF21
:102BC000C7019370D11002C090E080E00E94970589
:102BD0007ECF8E2DDD2029F00E949C060E94BA0532
:102BE00076CF0E94E105FACF8F2D837091F5D11039
:102BF0006ECF4E2D429546954770440F440F8E2D53
:102C00008F70042E01C0880F0A94EAF72E2D2071D0
:102C1000E4FE07C02FE030E001C0220F4A95EAF73A
:102C200020953F2D369536953370323069F050F44B
:102C30004091FF01313029F0822B84230E94550CF2
:102C400046CF842B822BFACF282B8091FF0182273D
:102C5000F5CF8695DD2011F08F2D8170882309F442
:102C600036CF4E2D429546954770440F440F8E2D1A
:102C70008F70042E01C0880F0A94EAF72E2D207160
:102C8000E4FE07C02FE030E001C0220F4A95EAF7CA
:102C900020953F2D369536953370323069F050F4DB
:102CA00040917402313029F0822B84230E94FA0B68
:102CB0000ECF842B822BFACF282B8091740282278F
:102CC000F5CF9F2D9F70F92EDD2029F0892F0E94CE
:102CD000490C8E2D2BCF8E2D0E945A0C8F2D0E94C9
:102CE0000B0CF5CE8E2DE2EF8E16B1F1E81570F0DB
:102CF000F0EF8F16D1F021EF821691F0DD2009F46C
:102D00005EC0B11094CE8F2D8F712AC033EF831621
:102D100051F194EF8912F2CF80913E0282FD2FC0D3
:102D20008F2D8F71DD20D9F21BC0DD2081F0E4E012
:102D3000EB1508F4CCCE2F2D2F7181E090E001C06F
:102D4000880F2A95EAF7909174028927AFCFF5E0B2
:102D5000FB1508F4BCCEEFCF8F2D8F71D110BFCFF4
:102D60000E94490CB4CE80E0DD2009F49FCF9F2D56
:102D70009F7181E001C0880F9A95EAF797CFDD2017
:102D800099F02F2D2F71F22E822F0E94490C8091E5
:102D90003E0282FF07C038E0F39EC0011124836029
:102DA0008093DB018F2DDCCF81E00E94180C81E045
:102DB0008B1508F08CCE82E00E94180C88CEBB20C8
:102DC00059F0893309F0E7CE9FEFE7EEF3E0915039
:102DD000E040F040E1F7DDCE8F2D8F7180CFF0E144
:102DE000EF16FFE5FF0609F4C7CB21E1E2162FE558
:102DF000F20609F4CBCB93EFE9169CE5F90609F44A
:102E00002ACC08F0C5CBF8EDEF16FCE5FF0609F477
:102E10001ECC29EDE2162CE5F20609F428CC37ED9C
:102E2000E3163CE5F30609F0C4CB26E241EE61EE81
:102E3000C8010E94320DD8CA30E1E3163FE5F3061F
:102E400009F4A0CB91E1E9169FE5F906A1F682E02D
:102E50009ACB85E0DE01119601900D928A95E1F7FB
:102E6000F801228189819A81211176CA0E94F6088F
:102E7000F82E7ACAF6E1EF16FCE5FF0609F06CCDF4
:102E80008091840169E2811165E384E691E00E940A
:102E9000220512CC2AE5E2162DE5F20609F4A4CDAE
:102EA00078F4E1148CE5F80609F440CD9EEDE916BE
:102EB0009CE5F90609F050CD0E942B110E94631089
:102EC000ECE5EE16EDE5FE0609F43DCD08F48ECDF9
:102ED00027EAE2162DE5F20689F33ECD1F93CF9344
:102EE000DF938091A801807F09F049C08091A501FE
:102EF000882309F444C08091DA01D091A90160913E
:102F0000A3017091A401A091A601B091A701C62FC1
:102F1000C72316E0D81799F190E0109711F0CF3F32
:102F200019F401968770F6CF189F9001199F300D04
:102F30001124F901E655FE4F41814713F2CF40813C
:102F40004613EFCF42814111ECCF438154814A1B9C
:102F50005B0B483C510528F78091A8018F70806178
:102F60008093A801F901E155FE4F80818F70806147
:102F7000808383EA91E00E9496110E94EC08DF9121
:102F8000CF911F910895A1E1B0E0E9ECF7E10C9435
:102F90006B1F8C0185E0F801DE011D9601900D92FA
:102FA0008A95E1F7F801E28083EAA82E81E0B82E45
:102FB0006091A6017091A7016115710509F426C100
:102FC0009091A3014091A401892F84238F3F09F49C
:102FD0001DC120813181C380D480F090A501F6010C
:102FE000E61BF70BFF2009F4DCC08091A801582FE5
:102FF000507FE83CF10508F09FC051116BC0FE2CDA
:10300000431314C0921312C0E11010C08F7080617E
:103010008093A801C5010E9496118091A801F80132
:1030200085838F2D6196EAE00C94871FC114D1042B
:1030300029F0822F83238F3F09F003C180E0F82F0E
:10304000F170DF2E80FF3CC08091DA014091A90130
:1030500056E0841315C02D873E878D859E850E947E
:103060002B0B292F22952F702230F0F0243018F5E9
:103070009F70F1F0F8019581907FD1F4D12C1EC0A2
:1030800090E0589FF001599FF00D1124E655FE4F36
:103090006181361306C06081261303C06281E61287
:1030A0000FC001968770D5CF9F7011F0882331F340
:1030B000805E883018F3C8010E949611FD2CB1CFB4
:1030C000EE2009F4AECF8091A80181608093A80121
:1030D000F12CA7CF431306C0921304C0F801EE20D1
:1030E00009F479C0C8010E94380B882309F1EE2049
:1030F000F9F08091A801803270F02091A301309105
:10310000A40138872F831986DB86CA868C87CE0177
:1031100007960E94961186E0F801A3EAB1E00190BB
:103120000D928A95E1F70E946E17FF24F39479CFF0
:10313000C8010E949611F9CF51110AC083EA91E0AB
:103140000E94961186E0F50111928A95E9F7C0CFA9
:1031500043130FC092130DC0E1100BC0F80185831B
:10316000C8010E94961186E0F50111928A95E9F74F
:1031700058CFC8010E94380B8823D1F2EE20C1F24B
:103180008091A801803238F22091A3013091A401EE
:103190003A8329831B82DD82CC828E83CE01019605
:1031A000B8CFE83CF105F8F6FE2CEE2009F2431307
:1031B0001FC092131DC08091A80180FD10C0982FE0
:1031C000907F69F0F8018583903F31F0982F907FD0
:1031D000905F8F70892B8583C8010E94961186E0CD
:1031E000F801A3EAB1E001900D928A95E1F719CFB9
:1031F000C8010E94380B81118ECF8091A801816097
:103200008093A801C8010E9496110BCFEE2009F40B
:103210008FCFC8010E94380BF82E882309F488CF7D
:1032200086E0F801A3EAB1E001900D928A95E1F7FA
:103230008091A3019091A4010E942B0B0E946E1714
:10324000F0CE81E08E25FBCEA7E1B0E0EAE2F9E125
:103250000C94721F4B8B5C8B6D8B7E8B8F8B6111F3
:103260001092FC011A8A198A85E0FE017396DE012C
:103270001D9601900D928A95E1F786E0FE013D963C
:10328000DE01179601900D928A95E1F7CE0107961F
:103290000E94C317882359F016E08091DA019091BB
:1032A000A901891343C06796E3E00C948E1F86E062
:1032B000FE013796DE01119601900D928A95E1F795
:1032C0008A859B85892B41F38F81988589238F3F40
:1032D00019F32091A90130E0C9010196877099275F
:1032E0004091DA014817190671F40E948F0D10926F
:1032F000A9011092DA0186E0E3EAF1E0DF011D9214
:103300008A95E9F7C9CF96E0929FD001939FB00DBF
:103310001124A655BE4FFE01319601900D929A954B
:10332000E1F78093A9010E94EC08B6CF819FC0010C
:10333000112486559E4F0E94C317882309F4B3CFEA
:103340008091DA0190E00196877099278093DA01E5
:10335000A4CF1F920F920FB60F9211242F933F9379
:103360004F935F936F937F938F939F93AF93BF938D
:10337000CF93DF93EF93FF93D091E900DF708091BB
:10338000EC00C82FC17080FDC0E81092E900809168
:10339000F000877F8093F00078940E94A50D109232
:1033A000E9008091F00088608093F000CD2BCF7011
:1033B000C093E900FF91EF91DF91CF91BF91AF9161
:1033C0009F918F917F916F915F914F913F912F913D
:1033D0000F900FBE0F901F9018951F920F920FB66F
:1033E0000F9211242F933F934F935F936F937F938B
:1033F0008F939F93AF93BF93EF93FF938091E100DF
:1034000082FF09C08091E20082FF05C08091E10047
:103410008B7F8093E1008091DA0080FF24C080914F
:10342000D80080FF20C08091DA008E7F8093DA0080
:103430008091D90080FF9DC080E189BD82E189BD76
:1034400009B400FEFDCF81E08093670280914202C3
:10345000811109C00E947F030E944A048091E2000A
:1034600084608093E2008091E10080FF17C080912A
:10347000E20080FF13C08091E2008E7F8093E20023
:103480008091E20080618093E2008091D8008062A8
:103490008093D80019BC85E0809367028091E10099
:1034A00084FF2BC08091E20084FF27C080E189BDAA
:1034B00082E189BD89B5982F917080FFFBCF809103
:1034C000D8008F7D8093D8008091E1008F7E80931B
:1034D000E1008091E2008F7E8093E2008091E20023
:1034E00081608093E20080916802882309F447C0DC
:1034F00084E080936702809167028091E10083FFFE
:1035000027C08091E20083FF23C08091E100877F84
:103510008093E10082E080936702109268028091BC
:10352000E1008E7F8093E1008091E2008E7F8093A6
:10353000E2008091E20080618093E20042E060E07E
:1035400080E00E9418048091F00088608093F00071
:10355000FF91EF91BF91AF919F918F917F916F916B
:103560005F914F913F912F910F900FBE0F901F9041
:10357000189519BC109267021092420274CF809184
:10358000E30087FD93E090936702B5CF78941F9294
:103590001FB61F9211248F939F93AF93BF93809177
:1035A000390290913A02A0913B02B0913C020196FF
:1035B000A11DB11D8093390290933A02A0933B0262
:1035C000B0933C02BF91AF919F918F911F901FBE0E
:1035D0001F9018951F921FB61F9211248F939F93CF
:1035E000AF93BF9380913802811113C0809139024B
:1035F00090913A02A0913B02B0913C024196A11DEC
:10360000B11D8093390290933A02A0933B02B0938C
:103610003C02BF91AF919F918F911F901FBE1F9051
:103620001895CDB7DEB7AA970FB6F894DEBF0FBED8
:10363000CDBF85B7806885BF85B7806885BF84B7F3
:10364000877F84BF0FB6F894A89580916000886149
:1036500080936000109260000FBE80E890E00FB68B
:10366000F89480936100909361000FBE86EF96E01E
:1036700090936301809362010E947F030E944A0439
:103680008091E20084608093E200789480916702E8
:103690008823A1F01091E9001F709091EC00892F10
:1036A000817090FD80E8182B1092E9008091E8006D
:1036B00083FD0E94A50D1F701093E90082E084BD78
:1036C00093E095BD9AEF97BD80936E000E94620BC8
:1036D000811102C00E94A10A0EE311E063E4E62E0C
:1036E00061E0F62ED8018D918D018F3F11F00E947F
:1036F000F806E016F106B1F703E411E0F801819154
:103700008F018F3F11F00E94F806F1E002351F078C
:10371000A9F78AE0EBE1F2E0DF01282F1D922A955C
:10372000E9F7E3E0F2E0DF011D928A95E9F790E026
:1037300080E00E94B61F883E9E4F21F40E94620BDB
:10374000811102C00E942B1182E090E00E94AE1F06
:1037500080930F020E947B0B90933E0280933D0268
:103760000E947910EFE3FCE93197F1F700C0000007
:103770000E94791080911B0280FF08C06FEF7FEFDD
:1037800090E080E00E94DA1F0E94F60983E090E05A
:103790000E94AE1F0E94550C80913D02806880936C
:1037A0003D0280913D0290913E020E94B10A80E06C
:1037B00091E0909335028093340248E1442E512CDD
:1037C00055E2652E52E0752E8091670212E1853038
:1037D00009F495C00E94791020E1A22E22E0B22EB9
:1037E0003BE1832E32E0932ED401F50121913191FA
:1037F0008D919D9142E0EA31F40709F48AC02817BF
:103800003907A1F3312CD4010D911D914D01F50122
:10381000C190D1905F01C016D10659F1C026D126C2
:10382000212CEE24E394F12CC6018E219F21892BBB
:10383000B1F02EA23FA221E0C8018E219F21892B49
:1038400009F420E028A70E9416058160782F9AA726
:1038500089A74EA15FA168A58AA50E942419239477
:10386000EE0CFF1CFFE02F12DFCFF5013297118322
:103870000083339425E03212C6CF8FB7F89440917D
:10388000390250913A0260913B0270913C028FBF25
:1038900062C080916702843011F110923802F0E426
:1038A0000FB6F894A895409260000FBEF0936000A8
:1038B00083B7817F846083BF83B7816083BF78943F
:1038C000889583B78E7F83BF0FB6F894A8958091B3
:1038D0006000886180936000109260000FBE80914C
:1038E0006602882361F00E947910EBE1F2E0819199
:1038F0009191892B09F09CC26E167F06C1F78091C9
:103900006702853009F4C5CF0E948F0D0E94AD0576
:1039100061CF2817390709F075CF0E9416058C0171
:1039200080910D0290910E0208171907A1F08FEFF8
:1039300089A38AA31BA20E9416058160782F9DA3EC
:103940008CA349A15AA16BA18DA10E9424191093A7
:103950000E0200930D0286E0ECE2F2E0DE01119629
:1039600001900D928A95E1F710922E0210922F028B
:1039700010923002109231028B819C81892B09F4C4
:103980004AC080912A0290912B020E9407059C0157
:1039900090912602992309F470C225313105D8F19E
:1039A0009F3F19F09F5F909326021B81112359F0CE
:1039B0000E947C069FEF11160CF491E0899F802DE8
:1039C000112480932E021C81112359F00E947C0641
:1039D0009FEF11160CF491E0899F802D11248093A4
:1039E0002F0230912E023323B1F020912F02222397
:1039F00091F045EB3403C0011124992309F4B7C0B9
:103A000090932E0245EB240390011124332309F4F3
:103A1000B2C030932F028D819E81892B09F44AC058
:103A200080912802909129020E9407059C019091A3
:103A30002502992309F41CC221353105D8F19F3F95
:103A400019F09F5F909325021D81112359F00E9468
:103A50005A069FEF11160CF491E0899F802D1124D6
:103A6000809330021E81112359F00E945A069FEF65
:103A700011160CF491E0899F802D1124809331025E
:103A8000309130023323B1F020913102222391F0A2
:103A900045EB3403C0011124992309F470C09093BD
:103AA000300245EB240390011124332309F46BC049
:103AB0003093310246E050E0BE016F5F7F4F8CE2F1
:103AC00092E00E94F01F892B61F480912E02909168
:103AD0002F02892B90913002892B90913102892BF2
:103AE00011F00E94BA0586E0FE013196ACE2B2E028
:103AF00001900D928A95E1F70E94AD0590911A020E
:103B0000891769F080931A028FB7F89440913902AF
:103B100050913A0260913B0270913C028FBF8091BC
:103B20006702843009F050CE83E08093E9008091F1
:103B3000E80082FF49CE8091E80090E085FF05C053
:103B40000E949E03882319F191E08091E8008B7711
:103B50008093E800992309F437CEE981E150E331FD
:103B600008F0B2C0F0E0EB5EFF4D0C94561F81E010
:103B700080932E0247CF81E080932F024CCF81E0CB
:103B8000809330028ECF81E08093310293CF00E2A8
:103B900010E0CE0101967C018091E80085FD0AC00D
:103BA0008091E8008B778093E8000E949E03882331
:103BB00099F3CACF8091F100D7018D937D01015017
:103BC000110951F7C1CF1A828AE08B831AC08A810A
:103BD000823009F444C18330D9F1813009F074C0D6
:103BE0002FB7F8946091390270913A0280913B02AC
:103BF00090913C022FBF0E945C1F6B837C838D835E
:103C00009E8380916702843009F0DECD1091E90037
:103C10001F709091EC00892F817090FD80E8182B27
:103C200082E08093E9008091E80080FF0DC050E0C1
:103C300040E060E270E0CE0101960E94CF038091E7
:103C4000E8008E778093E8001F701093E900BCCDE8
:103C500080911B0290911C029827892798279C83AA
:103C60008B8380911D0290911E02982789279827A7
:103C70009E838D8380911F0290912002982789272F
:103C8000982798878F83809121029091220298270C
:103C9000892798279A878987809123029091240207
:103CA0009827892798279C878B87ABCF8A8182307A
:103CB00059F46B817C818D819E810E945C1F86E21C
:103CC00090E00E94BC1F9DCF8FEF89839ACF4C81DB
:103CD0006B818A810E94BF0A9827892798279E8333
:103CE0008D838FCF2D813E813227232732274C8130
:103CF0006B818A810E942A0A84CF0E94500A81CF58
:103D0000B0E1BA837ECF1A8285E55FCF0A811B813D
:103D1000102701271027FE0131966F01EC80CF019B
:103D20008E0D911D7C01C80185559C4FCE14DF047A
:103D300009F467CF0535110558F40E94AE1FD6016E
:103D400014968C930F5F1F4FFFEFCF1ADF0AEBCF54
:103D5000F6011482F7CF0A811B8110270127102753
:103D6000CE0101966C01EC80E00EF12EF11CC80131
:103D700085559C4FE016F10609F443CF0535110532
:103D800028F4D60114966C910E94BC1FBFEFCB1A89
:103D9000DB0A0F5F1F4FEBCF0E941A0A32CF86E07B
:103DA0008A832FCF0A811B81102701271027FE014C
:103DB00031966F01EC80CF018E0D911D7C01C80101
:103DC0008796EC14FD0409F41CCF0438A3E01A070D
:103DD00050F40E94AE1FF60184830F5F1F4FBFEFA8
:103DE000CB1ADB0AECCFD60114961C92F6CF0A81CF
:103DF0001B81102701271027FE0131966F01EC80EF
:103E0000E00EF12EF11CC8018796E016F10609F4C8
:103E1000F8CE0438F3E01F0728F4D60114966C910D
:103E20000E94BC1FBFEFCB1ADB0A0F5F1F4FEBCF07
:103E3000E0E1E9BD19BD09B400FEFDCF8091D800D5
:103E40008F7D8093D8008091E00082608093E000B5
:103E50008091E00081FDFCCF0E948F0D50CD86E265
:103E600090E00E94AE1F1B821C821D828E83C9CEF1
:103E70002B30310508F0E5CD1DCE2B30310508F093
:103E800091CDC9CD97FB072E16F4009407D077FD8E
:103E900009D00E949A1F07FC05D03EF490958195A9
:103EA0009F4F0895709561957F4F0895EE0FFF1F06
:103EB0000590F491E02D09946927962769277827C2
:103EC0008727782708952F923F924F925F926F92A3
:103ED0007F928F929F92AF92BF92CF92DF92EF929A
:103EE000FF920F931F93CF93DF93CDB7DEB7CA1B1B
:103EF000DB0B0FB6F894DEBF0FBECDBF09942A8846
:103F0000398848885F846E847D848C849B84AA84ED
:103F1000B984C884DF80EE80FD800C811B81AA817A
:103F2000B981CE0FD11D0FB6F894DEBF0FBECDBF45
:103F3000ED010895AA1BBB1B51E107C0AA1FBB1FBF
:103F4000A617B70710F0A61BB70B881F991F5A9525
:103F5000A9F780959095BC01CD010895F999FECF00
:103F600092BD81BDF89A992780B50895A8E1B0E087
:103F700042E050E00C94E21F262FF999FECF92BD4B
:103F800081BDF89A019700B4021639F01FBA20BD1E
:103F90000FB6F894FA9AF99A0FBE08950396272F50
:103FA0000E94BD1F0E94BC1F252F0E94BD1F242FF1
:103FB0000C94BD1F0196272F0E94BD1F0C94BC1F9F
:103FC000DC01CB01FC01F999FECF06C0F2BDE1BDD9
:103FD000F89A319600B40D9241505040B8F70895C8
:103FE000FB01DC0104C08D910190801921F4415046
:103FF0005040C8F7881B990B0895F894FFCF860EA0
:10400000AE0E5110AE0E5110E10E020F5110001005
:104010000D10FD14FD1438153815CF15E915671569
:104020006715F415611672167216E31DE71D561E0C
:10403000671E721E7D1E641E641E641E641E641E46
:10404000801E831E861EAB1ECC1ECF1ED21EF71EE8
:104050000405B609950990098B090305018182833E
:10406000E200E900EA00B500B600B700CD00830128
:10407000CC008A019201940121022302240225022C
:10408000260227022A02B300B4006F007000939545
:104090009291909496973435366667F7F6F5F4F179
:1040A000F0304022B684016201AC000A06230643C8
:0240B000060008
:00000001FF
