:020000040000FA
:10000000780C0020E9010000ED010000511700000C
:1000100000000000000000000000000000000000E0
:10002000000000000000000000000000F1010000DE
:100030000000000000000000F3010000114000007B
:10004000DD29000009510000000000000000000050
:100050000000000000000000F701000000000000A8
:100060000000000000000000F70100000000000098
:10007000F7010000F7010000C9470000F701000088
:10008000BD090000000000000000000000000000AA
:100090000000000000000000000000000000000060
:1000A000F7010000F7010000F70100000000000068
:1000B000ED2B0000C12B0000992B0000912A0000BD
:1000C00000F002F800F040F80CA030C808382418FE
:1000D0002D18A246671EAB4654465D46AC4201D180
:1000E00000F032F87E460F3E0FCCB6460126334272
:1000F00000D0FB1AA246AB4633431847F870000005
:1001000018710000103A02D378C878C1FAD85207A3
:1001100001D330C830C101D504680C6070470000BD
:100120000023002400250026103A01D378C1FBD813
:10013000520700D330C100D50B6070471FB500F0E7
:100140007FF81FBD10B510BD00F0ADF91146FFF7E7
:10015000F5FF05F01DFD00F0C5F903B4FFF7F2FF50
:1001600003BC00F0CBF900000148016001480047E2
:10017000240006400103FF1F30B40C490C684A6894
:1001800023681068C0181060241D121D8C4207D20D
:100190008A4208D20C604A6030BC40004008704778
:1001A0000C00DC3CF6E70A00DC3AF3E7100A00201A
:1001B00070B505460C46164602E00FCC0FC5103E42
:1001C000102EFAD2082E02D303CC03C5083E042E0B
:1001D00007D301CC01C5361F03E021782970641CC8
:1001E0006D1C761EF9D270BD06480047FEE7FEE79B
:1001F000FEE7FEE7FEE7FEE703480449024A044B38
:1002000070470000C1000000780A0020780C002030
:10021000780A00200B4A30B511460B4C60310B4672
:10022000DC3B0CC1372106E0020C8D0012185A513C
:10023000064A504300190A46491E002AF4DC30BD24
:100240000120E7E7B0090020E119D666CD0D0100D5
:10025000F8B5042A2CD3830712D00B78491C0370FD
:10026000401C521E83070BD00B78491C0370401CA6
:10027000521E830704D00B78491C0370401C521E89
:100280008B079B0F05D0C91ADF002023DE1B08C98E
:100290000AE0FFF78DFFF8BD1D4608C9FD401C466A
:1002A000B4402C4310C0121F042AF5D2F308C91A17
:1002B000521EF0D40B78491C0370401C521EEAD425
:1002C0000B78491C0370401C012AE4D409780170A2
:1002D000F8BDD2B210B513029A1813049A1800F0A0
:1002E0000EF810BD01E004C0091F0429FBD28B07E2
:1002F00001D50280801CC90700D002707047002918
:100300000BD0C30702D00270401C491E022904D33F
:10031000830702D50280801C891EE3E70022EEE7F6
:100320000022DFE70378C2781946437812061B02E1
:1003300019438378C0781B04194311430902090A41
:10034000000608437047002203098B422CD3030A9E
:100350008B4211D300239C464EE003460B433CD412
:10036000002243088B4231D303098B421CD3030A7A
:100370008B4201D394463FE0C3098B4201D3CB01AA
:10038000C01A524183098B4201D38B01C01A5241DA
:1003900043098B4201D34B01C01A524103098B42DE
:1003A00001D30B01C01A5241C3088B4201D3CB00C9
:1003B000C01A524183088B4201D38B00C01A5241AC
:1003C00043088B4201D34B00C01A5241411A00D25C
:1003D00001465241104670475DE0CA0F00D04942C5
:1003E000031000D34042534000229C4603098B4235
:1003F0002DD3030A8B4212D3FC22890112BA030ABD
:100400008B420CD3890192118B4208D3890192113E
:100410008B4204D389013AD0921100E08909C309C3
:100420008B4201D3CB01C01A524183098B4201D3C5
:100430008B01C01A524143098B4201D34B01C01AB0
:10044000524103098B4201D30B01C01A5241C30828
:100450008B4201D3CB00C01A524183088B4201D397
:100460008B00C01A5241D9D243088B4201D34B00B2
:10047000C01A5241411A00D20146634652415B10F4
:10048000104601D34042002B00D5494270476346D5
:100490005B1000D3404201B50020C046C04602BDFB
:1004A000704770477047754600F024F8AE46050067
:1004B00069465346C008C000854618B020B5FFF70E
:1004C0009BFE60BC00274908B6460026C0C5C0C5D3
:1004D000C0C5C0C5C0C5C0C5C0C5C0C5403D490038
:1004E0008D46704710B50446C046C0462046FFF70B
:1004F00034FE10BD00487047180A0020014918203A
:10050000ABBEFEE7260002007047000003B5064AB6
:1005100001201071044802220B300270002901D022
:100520006946497841700CBD1B00002010B5044697
:1005300001220B21104600F02BFF00220B2101208D
:1005400000F0CAFE002C04D00B21012000F040FF77
:1005500010BD0B21012000F0A1FE10BDF1B584B04B
:1005600000261C492E200025704340180390039953
:100570006800095C8E46062923D203990818407842
:10058000844615281DD270465421414312480C1848
:1005900060468200A05C002813D00499884201D3F1
:1005A000401A00E00020A054A318D97898780127B9
:1005B0000191009002975B78A25C6146704600F062
:1005C0006FFB6D1C142DD2DB761C062EC9DB05B02B
:1005D000F0BD0000006200008003002005490220F9
:1005E000487000208870C870087103490861402075
:1005F000C86070476C0600208C000020054833213D
:100600004170012181700448002101614021C160D5
:10061000704700006C0600208C0000200548064949
:100620004278515C81700548002101614021C16020
:10063000704700006C060020370600208C00002068
:10064000054806494278515C8170054800210161E6
:100650004021C160704700006C0600203F0600206A
:100660008C00002010B50D4B002299780C48012910
:1006700004D00261C2608270027010BD597841716D
:100680001224DC701A7114235943064BC460C91834
:10069000026181600121817010BD00006C060020A4
:1006A0008C00002040EA00000A4A0B485178417152
:1006B000C02393700123D370FF22C1325143074AF4
:1006C00089188160FF21C131C160002101618370FF
:1006D000704700006C0600208C00002040C800001D
:1006E00004480549407848700448002101614021D0
:1006F000C16070472C0600206C0600208C00002092
:100700000E480E4AC17E0E481C3241708A5C8270CF
:100710000A4A27328A5CC270084A3232895C017107
:10072000114612394A7F42718A7F8271C97FC17135
:100730000448002101614021C16070472C0600205F
:100740006C0600208C00002010B5084A084851783B
:100750008171002393700124D470064A090289181C
:10076000816021020361C160847010BD6C060020AD
:100770008C00002040D600000448054900784870ED
:100780000448002101614021C16070472C0600200F
:100790006C0600208C000020054806494278515C18
:1007A00081700548002101614021C160704700004F
:1007B0006C0600202F0600208C0000200A4A0B48FF
:1007C00051788171402393700123D370FF2241320D
:1007D0005143074A89188160FF214131C1600021DE
:1007E00001618370704700006C0600208C000020BF
:1007F00000EB00000548817842780548115405490E
:100800000020087004490120087070476C06002021
:10081000370600208C0000208500002005488178E4
:100820004278054811540549002008700449012008
:10083000087070476C0600203F0600208C000020E6
:1008400085000020064907480A78027149784171FD
:100850004021C1600021016101700121C170704718
:100860006C0600208C000020064907480A780271B7
:100870004A7882714988C1600021016101700121BB
:10088000C17070476C0600208C00002006490748A4
:100890000A7802714A7842714988C1600021016179
:1008A00001700121C17070476C0600208C0000208F
:1008B00006480749407848700649002008700649F4
:1008C0000120087005490870704700006C06002080
:1008D0002C0600208C00002048000020850000200D
:1008E000114A10B50F4813464178D17684781C33ED
:1008F000CC54D47E1146C37827316354D27E037919
:100900000B315354427912394A7782798A77C07908
:10091000C87706490020087005490120087005497C
:10092000087010BD6C0600202C0600208C000020F2
:1009300048000020850000200548064940780870DE
:100940000549002008700549012008707047000023
:100950006C0600202C0600208C0000208500002062
:1009600004488178427804481154044900200870F2
:10097000704700006C0600202F0600208C0000202D
:1009800003490120087003490020087070470000E7
:100990008A0000208C000020064907480A7802716E
:1009A0004A7882714988C16000210161017001218A
:1009B000C17070476C0600208C00002010B500202C
:1009C0000649C0438862054C0020803C606002F00C
:1009D00067FA206801210843206010BD8020004094
:1009E0000348012101710021C1708160704700003E
:1009F0000000002004480021417001700174C160B2
:100A000041608160704700000C0600200248002110
:100A100001704170817070476600002002688A4250
:100A200001D9511A00E0002101607047036859188C
:100A3000914201D9026070470160704770B500258E
:100A40000126FF2437E00378002B06D0012B0CD0C1
:100A5000022B16D0032B2ED121E043789B18FF2BBD
:100A600001D3447021E0437025E083789B18FF2B6D
:100A700003D38470457002230AE0837043789B1A85
:100A8000F1E7C3789B18FF2B04D3C4708570032350
:100A9000037010E0C37083789B1A83700BE0437877
:100AA0009B18FF2B03D34470C570067003E043709E
:100AB000C3789B1AC3700B46491EC9B2002BC2D122
:100AC00070BD000010B5194C0528A37A02D0022889
:100AD00015D016E0002902D0022908D011E0002A22
:100AE00001D0012006E058084000A07209E0002A69
:100AF00003D002200343A37203E0FD2011E001298B
:100B00000AD0A07A0A49C043430720220868002B74
:100B100009D09043086010BD002A01D00420E9E705
:100B2000FB200340E7E71043F4E700001B00002030
:100B3000380100200E480168890502D40168C90502
:100B400014D40168C90509D40168890506D5094886
:100B50008078411E022900D901207047016889056B
:100B600004D50068C00501D50420704700207047F7
:100B7000006004402C060020F8B5354F0124797B35
:100B8000B87B814201D0FC7102E0FA79002A31D0B1
:100B90000025FD7188422DD02D4E0300203604F033
:100BA00039FF052A2A2A2A0454000420787304F005
:100BB00025FB7D70356003213D71084600F008FC7F
:100BC0000421032000F004FC0621002000F000FCBA
:100BD000204804F0BBFD02F063F81F4804F0B6FDA6
:100BE0000021012003F042F8FFF7FAFE02F0ACFB0F
:100BF0001A480470F8BD1A490D610A6901239B0661
:100C00001A430A6117490A6810239A430A607873E5
:100C1000002803D014498870144804700C487D7073
:100C200024300471457130780321204330700B4823
:100C30000470084600F0CCFB0421032000F0C8FB40
:100C40000621002000F0C4FBF8BDB973F8BD000018
:100C500050000020A0860100B80B000048000020D2
:100C600000C0054000E005402C0600208500002063
:100C7000FEB550250024094F264601200290600051
:100C800000960196C11900234978385C1A4600F095
:100C900007F8641CAC42F0D3FEBD0000A35C00006A
:100CA000F8B5089E14460F460546FF281FD0FF2FB3
:100CB0001DD06343184670436421FFF744FB542161
:100CC0004D430B49BF006918CD1900916870069813
:100CD000642160437043FFF736FBA87007986421D6
:100CE00060437043FFF72FFBE8700099CC55F8BDC7
:100CF00080030020F0B5144D144C2978EA780B4697
:100D0000134317D08A4314D02A69002193085F182F
:100D100040C8BF00491CE6511029F8DBE8684032A2
:100D200040382A61E860002803D101206870002063
:100D3000E870F0BD0121297000218B0004C8491C16
:100D4000E2501029F9DBF0BD8C0000206C06002079
:100D500010B5154B01249C60186100E000BF586875
:100D6000C007FBD108E01068D86000E000BF5868F9
:100D7000C007FBD1091F121D0029F4D15868400794
:100D800000280BDB986840221043986000E000BF09
:100D90005868C007FBD15868400702D55960012048
:100DA00010BD002010BD000000200640F0B59DB031
:100DB00016000C4607460E9651D0A519152D03D8DE
:100DC000E9B2F8B204F08AFEA01B0090B44205D349
:100DD000152803D8C1B2F8B204F080FE601E04905A
:100DE000601C0190781EA11B1C90481C1B90781C55
:100DF0001190A019421E1A92A21C0692BA1E1092BD
:100E00008A1C1992BA1C0C92821E1892E21C0B9238
:100E1000FA1E0A92CA1C1792FA1C0992C21E169256
:100E2000221D0F923A1F08920A1D15923A1D059233
:100E3000021F1492491D7A1F1391791D401F0392BE
:100E400002911290022E13D0A01E0790032E24D0E0
:100E5000E01E0D90042E4DD0052E4AD186E0E1B261
:100E6000F8B204F03BFEE1B2F8B204F037FEB0E1B4
:100E7000022F07D30198152804D8C1B21098C0B228
:100E800004F02CFE0C98052833D8002C31D004989F
:100E90001528F9D8C1B20C9828E0032F12D30A986C
:100EA00005280FD80198152804D8C1B20A98C0B2F5
:100EB00004F014FE0698152804D8C1B20A98C0B2EE
:100EC00004F00CFE09980528DED8002CDED004982A
:100ED000152804D8C1B20998C0B204F0FFFD022C55
:100EE00007D307981528CFD8C1B20998C0B204F02B
:100EF000F5FD66E1042F1AD30898052817D8019844
:100F0000152804D8C1B20898C0B204F0E7FD0698CD
:100F1000152804D8C1B20898C0B204F0DFFD0B98C0
:100F2000152804D8C1B20898C0B204F0D7FD0598BE
:100F30000528DED8002CDCD00498152804D8C1B2CE
:100F40000598C0B204F0CAFD022C07D307981528F3
:100F500004D8C1B20598C0B204F0C0FD032CC8D3B8
:100F60000D981528C5D8C1B20598BFE7052F20D325
:100F7000052A1ED80198152803D8C1B2D0B204F0B2
:100F8000ADFD0698152804D8C1B20398C0B204F08C
:100F9000A5FD0B98152804D8C1B20398C0B204F07F
:100FA0009DFD0F98152804D8C1B20398C0B204F073
:100FB00095FD029805289CD8002C9AD004981528F5
:100FC00004D8C1B20298C0B204F088FD022C11D33B
:100FD0000798152804D8C1B20298C0B204F07EFD6B
:100FE000032C07D30D98152804D8C1B20298C0B2BB
:100FF00004F074FD042C7DD3201F15287AD8C1B2CB
:10100000029873E7030004F005FD06D9042D56810C
:10101000ACD9002F11D0152D04D81C98E9B2C0B25C
:1010200004F05CFD0198B04207D31B98152804D842
:10103000C1B21C98C0B204F051FD119805287DD8AA
:10104000B44207D30098152804D8C1B21198C0B291
:1010500004F044FD012D71D01A9815286ED8C1B244
:101060001198A8E0022F11D3152D04D81098E9B2D9
:10107000C0B204F033FD0698B04207D31998152882
:1010800004D8C1B21098C0B204F028FD0C9805280D
:1010900054D8B44207D30098152804D8C1B20C988C
:1010A000C0B204F01BFD022D48D31898152845D86E
:1010B000C1B20C987FE0032F11D3152D04D80A98E4
:1010C000E9B2C0B204F00AFD0B98B04207D31798FA
:1010D000152804D8C1B20A98C0B204F0FFFC0998E0
:1010E00005286BD8B44209D30098152806D8C1B298
:1010F000099800E065E0C0B204F0F0FC032D5DD378
:10110000169815285AD8C1B2099854E0042F11D363
:10111000152D04D80898E9B2C0B204F0DFFC0F988E
:10112000B04207D31598152804D8C1B20898C0B2A8
:1011300004F0D4FC0598052840D800E03EE0B44215
:1011400007D30098152804D8C1B20598C0B204F09E
:10115000C5FC042D32D3149815282FD8C1B2059898
:1011600029E0052F13D30398052810D8152D03D88F
:10117000E9B2C0B204F0B2FC601DB04207D31398CC
:10118000152804D8C1B20398C0B204F0A7FC029895
:10119000052813D8B44207D30098152804D8C1B243
:1011A0000298C0B204F09AFC052D07D312981528B6
:1011B00004D8C1B20298C0B204F090FC0E98401E50
:1011C0000E900E98002800D01CE7152E01D91DB0F6
:1011D000F0BD0120FBE70000F3B568464078012828
:1011E00019D0022817D168468778284C2848264EFF
:1011F0000125007822683B0004F00CFC04030E2259
:10120000360D002807D1002902D02A43306029E09A
:10121000500840002060FCBD0428FCD00028FAD013
:1012200000290AD0012803D01A4805701A48057011
:10123000002030600220024314E00220824311E0CB
:101240000428E8D00028E6D00423002909D0022889
:1012500003D010490220087012E000201A433060C9
:1012600000E09A432260FCBD0428FCD00028FAD09C
:1012700008230029F5D00328EFD006480321017088
:1012800005480570E9E700007400002038010020DF
:101290005D0000205E0000205700002001228A40EF
:1012A00000280AD001280AD002280AD0032803D136
:1012B0000548816A1143816270470448F9E7044890
:1012C000F7E70448F5E7000000A0044000400440B0
:1012D0000060044000800440032349008B408A40A2
:1012E00000280DD001280DD002280DD0032806D1EA
:1012F0000648816899438160816811438160704725
:101300000348F6E70348F4E70348F2E700A0044087
:1013100000400440006004400080044001228A40F4
:10132000002808D0012808D0022808D0032801D1BD
:101330000448026270470448FBE70448F9E70448A0
:10134000F7E7000000A004400040044000600440B3
:10135000008004400022002806D0012806D0022880
:101360000AD0032805D109E0054800E00548C26914
:10137000CA40D007C00F70470348F8E70348F6E7B4
:1013800000400440006004400080044000A004408D
:1013900001238B408A4000280CD001280CD0022861
:1013A0000CD0032805D10648416899430A4342609E
:1013B000406870470348F7E70348F5E70348F3E759
:1013C00000A004400040044000600440008004404D
:1013D00001228A4000280AD001280AD002280AD017
:1013E000032803D10548416A11434162704704480C
:1013F000F9E70448F7E70448F5E7000000A00440D7
:10140000004004400060044000800440F8B5234ED2
:1014100000213078009000280BD0214D317000243D
:10142000A000295804F09AFB641C102CF8DB012062
:10143000F8BDB078002815D0B170F0680024870896
:101440000EE0B0680546FEF76DFFE9780002000A7D
:1014500009060843A20012492D1D8850641CB5607E
:10146000A742EED8B1780098084314D1F0683169EA
:10147000800888420FD90A4D002430692018800066
:101480002958A00004F06AFB641C102CF5DB3069BD
:1014900010303061CBE70020F8BD00008C00002048
:1014A0006C06002010B50F4C2078A12808D10E48FA
:1014B000416D0122D202114341652179002903D0F7
:1014C000002003F023FD10BD017C002004F046FB4A
:1014D00020690121C903084320610121002003F094
:1014E000E9FC10BD90080020A408002010B50F4CA6
:1014F0002078A12816D10E48416DC90401D40121DC
:101500004174217901290DD8417C002004F026FB8B
:1015100020690121C903084320610121002003F053
:10152000C9FC10BD002003F0F1FC10BD90080020A4
:10153000A408002010B518480178A12925D1816898
:10154000012922D10179C078002905D0134A012947
:1015500010D0022916D018E0012802D0022803D0AA
:1015600005E000F02DF810BD00F052F810BD032882
:101570000FD00AE0517C012907D1012805D100F0E4
:1015800033F810BD517C0129F1D0002003F0BEFCDE
:1015900010BD00F005F810BD90080020A408002040
:1015A00010B5FFF733FF05490A690123DB031A432E
:1015B0000A618101002003F07DFC10BD900800202D
:1015C00010B5074900200860064801690122D203CE
:1015D000114301610821002003F06CFC10BD0000E4
:1015E000AC0000209008002010B5074900200860DA
:1015F000064801690122D20311430161052100203F
:1016000003F058FC10BD0000AC0000209008002042
:1016100010B508480178002004F0A0FA06480169D6
:101620000122D203114301610121002003F042FC99
:1016300010BD0000A40800209008002010B50E483E
:101640000178212914D10169012212041143016199
:101650000A494A6D0123DB021A434A650279012ACD
:1016600006D8C07808740021084603F023FC10BD9A
:10167000002003F04BFC10BD90080020A4080020BF
:1016800010B5124A107821281BD11149486D012349
:101690001B03184348651079012812D89078002858
:1016A00004D14B6D0324A402A3434B654874106915
:1016B00001210904084310610021084603F0FAFBE8
:1016C00010BD002003F022FC10BD00009008002097
:1016D000A408002010B50C490878212809D1087900
:1016E000002801D0022804D1C878022805D0032898
:1016F00006D0002003F00AFC10BD00F013F810BD66
:1017000000F004F810BD00009008002010B5044956
:10171000012088740021084603F0CCFB10BD0000B6
:10172000A408002010B508480169012212041143E1
:1017300001610648416DD2111143416500210846FF
:1017400003F0B8FB10BD000090080020A4080020A2
:10175000BFF34F8F04490348C860BFF34F8F00BFEA
:10176000FDE700000400FA0500ED00E070B5002080
:1017700002F05CFA184D00242E46153E295D305DBE
:101780000122FFF705FE295D305D0022FFF7A4FD71
:10179000295D305DFFF782FD641C0F2CEEDB0E4EE1
:1017A00000241B3EB51F315D285D0022FFF7F0FDD0
:1017B000315D285D0022FFF78FFD641C062CF2DBF3
:1017C00000220A210120FFF7E3FD02220A21012065
:1017D000FFF782FD70BD0000855C0000F0B5224F70
:1017E000224C3D78014680222346E03901261543EC
:1017F0001A3B072908D800072178000F324682409B
:10180000914321705E701CE004281BD3174A00210D
:101810001A3AD27918E063189B78834213D113489F
:101820001A38521ED2B2C27103E06018C3788370B6
:10183000491C9142F9DB0D4800211A38A218917019
:1018400046703D70F0BD491C9142E4DBC20841077F
:101850000748490F8018827833468B409A4382703C
:1018600002481A388670F0BD700000203500002054
:10187000C4010020F0B51C4D1A4E29788024214364
:1018800002463446E03A01231A3C072A11D8E328DD
:1018900001D0E72805D1154A17781332BA5CD20770
:1018A00012D100073278000F1F4687403A4332704A
:1018B00008E0042808D3E279062A06D2B618B070E8
:1018C000521CE27163702970F0BDC20841070848DC
:1018D000490F801882781D468B401A438270A5708C
:1018E000F0BD000035000020700000202C06002014
:1018F000C401002033B56846C57884784078002953
:1019000008D0FFF7B7FF2046FFF7B4FF2846FFF7E0
:10191000B1FF3CBDFFF762FF2046FFF75FFF28469F
:10192000FFF75CFF3CBD000070B508211448FEF7CE
:10193000F5FC14480024046044608460C4601048CE
:101940000621801FFEF7EAFC0D4803211A38C472F5
:1019500004730D30FEF7E2FC094804210A38FEF753
:10196000DDFC0020084DFF232A1811462031CB77DB
:1019700040328B72401C14751528F5DB70BD0000D9
:1019800035000020C4010020CC000020F3B581B058
:10199000002915D0684646798079009062485F49F1
:1019A00047785F4C5F4D09780122C07E330004F018
:1019B00031F807050833530776A9070000F004F94A
:1019C000FEBD594E012FFBD00029F9D10099002905
:1019D00007D00329F4D16846C179F17622702A70C4
:1019E00015E00A2802D00021504B03E004200AE051
:1019F000491CC9B25F5C8742FAD1491CC8B20928A8
:101A000000D10020185CF07622702A70C1B200224A
:101A1000022002F05BF9FEBD012FFCD00029FAD1B3
:101A20000128F8D1404901262731765C009B771CBC
:101A3000FFB2002B0BD0012B05D0022BEBD1002ED7
:101A4000E9D0761E5CE0062EE5D0475463E04754AB
:101A5000072F60D352545EE0334B012FDBD00029B7
:101A6000D9D10128D7D00A28D5D01946009E1C31DB
:101A7000002E0DD0012E06D0022ECCD1435C002BBF
:101A8000C9D05B1E33E0435C052BC4D05B1C2EE049
:101A9000465C761CF6B24654052E23D83BE0224B1A
:101AA000012FB8D00029B6D11946009E3231002E40
:101AB0000AD0012EAFD1465C33095B1C082B00D342
:101AC0000023022815D017E00A2805D0435CDE0762
:101AD0000CD05B085B000AE0465C761CF6B246540C
:101AE000052E18D3DB7E0020585414E013434354D2
:101AF00011E0072B00D100233607360F1B011E43D0
:101B0000465408E0084B012F85D0002983D10A28CC
:101B100081D00A20D87622702A70FEBD54000020A1
:101B200048000020850000202C0600203D000020F9
:101B300070B5224C207800280FD000252570FFF7C3
:101B400097F865701E4D6878012803D01D4800780D
:101B5000002803D00020FEF7E9FC70BD0120FEF74D
:101B6000E5FCE87E0125030003F054FF0B07080B9A
:101B70000F1215181B1E21240700EEE700F010FCC1
:101B800001E000F00DF9657070BD00F071FAFAE740
:101B900000F0CAFCF7E700F035FBF4E700F0CEFAFE
:101BA000F1E700F0DFFBEEE700F07CFAEBE700F096
:101BB000E5F9E8E700F04AFCE5E70000480000200E
:101BC0002C06002054000020044901204A7842409D
:101BD0004A70034908700349087070472C060020BA
:101BE0004800002085000020FEB5334A5378012BC1
:101BF0002FD0324B1B78002B2BD1D37E304A2A2595
:101C0000684380184A00012481182E4F052B21D0EB
:101C1000082B1ED1805C06281BD24978152918D2C2
:101C20003A79294B1209072A35D055005219274D08
:101C30005619B778767802942E246043C31848006A
:101C4000019700961918185C4978AB5C6422FFF77D
:101C500027F8FEBD865C062EFBD24D78152DF8D2F6
:101C60001B48BB688342F4D00021084622468240CC
:101C7000134205D0491C401C89B21028F6DBFEBD7A
:101C80008900C9198E73CD7300220A82B968844015
:101C90002143B960FEBD084A2032D67F957F029469
:101CA0002E246043C0184B0001960095C118C05CFB
:101CB0004978537FCAE700002C060020540000201A
:101CC00014630000FC020020006200008C6600002B
:101CD000FFFF0000FEB5304D2C46203C204614305E
:101CE000011D2F7B0091236B0E1D5A1E216A002FB0
:101CF0001CD0002B1CD1A268FEF798FEE268616A36
:101D00000098FEF793FE30462269A16AFEF78EFE28
:101D1000A168606988420CD1E168A069884208D155
:101D20002169E069884204D1002031E0002B1BD0FA
:101D30002263502600250127A08B218B0004090473
:101D4000000E090E029700910190A08A134A000428
:101D5000030E68008118105C49786422FEF7A0FF2A
:101D60006D1CB542E8D3FEBDFEF758FE616A0098CF
:101D7000FEF754FE3046A16AFEF750FE6069002867
:101D8000D7D1A0690028D4D1E0690028D1D10120A1
:101D9000287314202063CCE71C030020A35C000000
:101DA000FEB5002000902D482D4CC57E3230285CB9
:101DB00064216071217106280BD84100401829491F
:101DC0006B460A5C1A704018417859708078987098
:101DD00008E022486A462030417F1170817F5170AF
:101DE000C07F907068460078642148430002FEF787
:101DF000AAFAA06001906846407864214843000236
:101E0000FEF7A1FA0646E060684680786421484300
:101E10000002FEF798FA0746206100206061A06189
:101E2000E0610E481C30285C81000F48455801983D
:101E30002946FEF788FA206229463046FEF783FAE3
:101E4000606229463846FEF77EFAA0620448012106
:101E50002030017314202063FEBD00002C060020FA
:101E6000FC0200208C6600005861000010B50E488E
:101E7000C17E1C304A1F130003F0CCFD05040A0785
:101E80000D101500085C09490AE0085C084907E0E4
:101E9000085C084904E0085C074901E0085C074960
:101EA000085CFEF75BFB10BD2C06002010640000F0
:101EB0001C64000016640000226400002864000016
:101EC000FEB529494868401E486006D10868486048
:101ED0000869002802D0401E0861FEBD22488168C2
:101EE0002248455C002D37D0FF2D02D0002401266A
:101EF0002BE01D4805210161C168491CC16026E035
:101F0000194A1B4BD068127E4100585CC9184978A9
:101F1000062A0BD85300D318164A9A189778527885
:101F20000092144A01970296D35C06E0124AD37FCE
:101F3000977F009702960193537F6422FEF7B0FECD
:101F40000948C168491C641CC160AC42D8D306482A
:101F50008168491C8160FEBD03480021C160816029
:101F600019210161FEBD0000FC0200206D6000002F
:101F7000635F00008C6600004C0600200A480B4A94
:101F8000C17E1C30085C8000125809484260026023
:101F9000054A3232895C0907090F01760021C160C8
:101FA00001618160704700002C060020E86100009C
:101FB000FC02002010B515484078002813D01448C2
:101FC000417801290FD01349097800290BD1C07E2F
:101FD000030003F01FFD0A080806090C0F1215087C
:101FE0001808FFF777FE10BD00F016F810BD00F0DE
:101FF0006DFA10BD00F0B8F810BD00F065F810BD26
:1020000000F026F910BDFFF75BFF10BD480000206F
:102010002C06002054000020FEB5134F7868401EA7
:1020200078601FD138687860384601220521093070
:10203000FEF704FD00250D48002429010E18F87A4A
:102040000122397B6B4607C3600031184978305C48
:10205000BB7A6422FEF724FE641C082CEFDB6D1CA7
:10206000112DE8DBFEBD0000FC020020435D0000F6
:1020700009480A4AC17E1C30085C80001258084892
:1020800042600260044A3232895C0172002141726E
:102090008172C172017370472C06002070610000CC
:1020A000FC020020074A0648D37E017932329A5C4E
:1020B0000907090F1209120111430171704700004D
:1020C000FC0200202C0600207FB5FEF755F8062103
:1020D000FEF743F9CCB2FEF74FF81421FEF73DF9B5
:1020E000134AC9B25068401E506020D11068506039
:1020F000127A104B500010181D5C6E46C0183573D4
:10210000437873738078B073072A06D10A4A507FE8
:102110003073907F7073D07FB073707B0123B27B7C
:102120006D460DC5337B64222046FEF7B9FD7FBDA9
:10213000FC0200208C6600004C060020074807497E
:10214000C07E1C31415C064A89005158054A5160E5
:10215000116002493231405C107270472C06002039
:10216000B8610000FC020020F8B5244F7868401EDA
:1021700078601ED1386878603889002485B2387B51
:10218000000714D030E0E8070ED0A000C619328A4C
:10219000F17BB07BFEF70AFE194948804888002889
:1021A00008D0308A401C30826D08641CA4B2002D17
:1021B000E9D1F8BD0120B968A0408143B960F3E7D7
:1021C000E8070ED0A000C619327CF17BB07B01F08D
:1021D0008BFD0B4948804888002808D0308A401C75
:1021E00030826D08641CA4B2002DE9D1F8BD012035
:1021F000B968A0408143B960F3E70000FC02002009
:10220000480000200F480F49C07E1C31415C0E4A37
:10221000890051580D4B0B4A596032321960805C6D
:102220000107090F0009000101430022197310463C
:102230009A608100C9188A73CA73401C0A821028E8
:10224000F7DB70472C060020A0610000FC02002094
:10225000F0B5404985B04868401E486021D1084625
:1022600001684160037A3C4A9C46D17F907F527F4F
:102270001F0703921B09374A5D005D19374E527ADA
:102280000124AE195200AE46002F0CD065462D0732
:10229000304F2D0F012D04D1FD7A002D26D06D1E5B
:1022A000FD7205B0F0BD2B4D2D4F6D7A6D00ED190F
:1022B000072B15D0B17873782848019102940093C8
:1022C0007146435C6978B85C6422FEF7E9FC2149F9
:1022D000487A401CC0B248724428E2D1002023E072
:1022E0006B4613C36978B85C039BEDE7194D1C4F2F
:1022F0006D7A88376D00ED19072B17D0B07871789B
:102300000190164B0294009170461B5C6978B85C92
:102310006422FEF7C5FC0F490F22887A0028487A0C
:102320000AD0002811D0401E4872BAE76B4613C38A
:102330006978B85C039BEBE7401CC0B24872442844
:10234000AFD18C72CA724320EEE700208872CA7245
:10235000A7E70000FC0200204C0600208C6600006D
:10236000535E00000B480C4AC17E1C30085C094BD0
:10237000800012580948323342600260C95C0A0783
:10238000120F090909010A43027200214172817288
:10239000C17270472C060020D0610000FC020020B2
:1023A000F0B585B00020009024482449C07E273134
:1023B000425C23490A71214A3232805C487100250F
:1023C0001F49487906280BD8420080181D4A6C46E0
:1023D000135C637080184278A2708078E07008E027
:1023E00016486B462030427F5A70827F9A70C07FB9
:1023F000D8706846807803906846C778407812495C
:1024000004900024280146180398012100900291AD
:1024100001970B4A600013790B4A3118A73AD25C36
:102420004978305C049BFEF73BFC641C082CEBDB1A
:102430006D1C112DC4DB05B0F0BD00002C06002082
:10244000FC0200208C660000435D0000F0B51B48D4
:1024500085B0C17E3230085C00250107090F18489D
:102460000127017000246E00284612214843039082
:1024700013480178FF20413041431248091803985E
:102480000A1860002118501883784078009002974D
:102490000193535C2220214641430B4864220818D3
:1024A00081194978805DFEF7FBFB641C062CDFDB9D
:1024B0006D1C112DD6DB05B0F0BD00002C060020F0
:1024C000FC02002000EB000089600000FEB514490A
:1024D0004868401E486022D10868002648601048BD
:1024E000B1000D182846093001221021FEF7A6FA86
:1024F0000C48002431010F18E87A0122297B6B4631
:1025000007C3600039184978385CAB7A6422FEF75B
:10251000C7FB641C082CEFDB761C112EDFDBFEBD35
:10252000FC020020435D0000F0B585B00020039060
:1025300023482349C07E1C31415C224A89005158FE
:10254000214A0025516011601D493231405C00076D
:10255000000F1072012701223F2103A8FEF76EFA37
:102560001948017A01296946097B27D01022521B9C
:102570009200101841726946497B81726946897BD5
:10258000C1726946C97B01731048002429010E18E5
:102590006A46D07B917B01900091029760003118D0
:1025A000537B4978305C6422FEF77AFB641C082C6C
:1025B000EEDB6D1C112DCEDB05B0F0BDAA00D8E717
:1025C0002C06002088610000FC020020435D000012
:1025D00070B52348017A491CC9B2017232293DD332
:1025E00000261F4C06721F49803C30460125226898
:1025F000C240D20727D06268C240D2072BD18200E6
:10260000121993685B1C93603C2B24D32A466368A1
:10261000824013436360030003F0FCF90604070AD9
:102620000D1D121D0A78022307E00A78042304E036
:102630000A78082301E00A7810231A430A700AE096
:10264000094A157007E02A46636882409343820076
:10265000121963609660401C2028C8DB70BD000022
:10266000B8010020700000208A000020F8B50E4D4F
:10267000E878002816D000200C4E0D4FE870044674
:102680003078A10100020B4AC01940188A18402175
:10269000FEF75EFBE978084300D00120641CE87077
:1026A000042CEDDBF8BD0000840000209200002027
:1026B00040D600006C06002073B5124D124C002964
:1026C00017D06846407820706846807860700F495F
:1026D0000002FF2241180132A01AFDF7B9FDE01FE8
:1026E000F9380088E0600020A06001206060287058
:1026F0007CBD20780228FBD128780028F8D000F093
:10270000ADF87CBD47000020EC02002040D6000060
:1027100010B505490978014203D000F09FF8012067
:1027200010BD002010BD000047000020F8B547484C
:102730000078002865D046494868401E486060D14E
:1027400000264348434B806800244000C21890781C
:10275000D178074625460F433CD03D4F031FEB2B56
:1027600008D86A46009616705070C909009800F0A3
:1027700063FB20E00346F03B082B09D801226B469F
:1027800000961A709870C909009800F003F912E0D9
:10279000F9280BD0FA2834D12F4809020918FF2252
:1027A00001322C48FDF754FDBE60CAE7517910791B
:1027B00000F00AF90124B868264A41008918C9784E
:1027C0004B0630D04906490E7960002C38D0401CA9
:1027D000B86035E01E4C2078002813D0012801D0C5
:1027E00002280ED16078FF2201021B48013209182D
:1027F0001848FDF72DFD17480088E0600120A6600D
:102800006060F8BDE068401EE06009D06078FF229B
:1028100001021148013209180E48FDF719FDEDE7D4
:102820000A480670F8BD002C01D0401CB860401C5E
:10283000B8604000801840887860002800D10125E9
:10284000B868401CB860002DAFD1F8BD470000202B
:10285000EC020020EC01002040D6000010B5054835
:102860000024047001F0D4F801F0BAF802480470B2
:1028700010BD0000470000202200002010B5214CB0
:1028800086B0207900283BD00020207114216846B2
:10289000FDF746FD142269461B4801F079FFA0228E
:1028A00019491A4801F074FF1948142100781422BC
:1028B000484315494118684601F06AFF124A402111
:1028C0001248FEF745FA2179084300D00120207113
:1028D0000D4A0E48403240214030FEF739FA217946
:1028E000084300D001202071074A08488032202187
:1028F0008030FEF72DFA2179084300D001202071A5
:1029000006B010BD840000206C06002040EA0000E4
:1029100091000020F8B50F4DA878002818D00020AD
:102920000D4E0E4FA87004463078FF21C131484348
:10293000A1010B4AC01940188A184021FEF708FA75
:10294000A978084300D00120641CA870072CEBDB99
:10295000F8BD0000840000209100002040C8000065
:102960006C06002013B5032209480029027005D027
:102970006946897841706946C97801E00021417053
:102980008170034901200D39487100F0E3FB1CBD43
:102990002800002013B5684680780A4B0207120F02
:1029A00058780124002903D021469140084303E0D0
:1029B0000121C94391400840587002481438C4703E
:1029C0001CBD00002F000020034A9070D170012030
:1029D00011461439C87070472F00002005490120A6
:1029E00008600549CA6A002A01D0044A1070032011
:1029F000C862704780E200E000000640B40000209A
:102A000010B50B4801690922D2069143016101F01A
:102A100057FA01F0FDF9322002F098FE0549042032
:102A2000086030BF02F032FF034802F08FFE10BD95
:102A300000C0054040200340A08601000F48016807
:102A40000122114301600168022211430160016803
:102A50000422114301600168082211430160084902
:102A6000002088604860074988604860064988609F
:102A700048600649886048607047000000E00540F3
:102A800000400440006004400080044000A0044076
:102A900000B500210846FEF75DFC01285BD001214E
:102AA0000020FEF757FC012857D002210020FEF736
:102AB00051FC012856D003210020FEF74BFC0128D1
:102AC00052D004210020FEF745FC01284ED00521FC
:102AD0000020FEF73FFC01284AD006210020FEF727
:102AE00039FC012846D007210020FEF733FC0128DD
:102AF00042D008210020FEF72DFC01283ED00921FC
:102B00000020FEF727FC01283AD00A210020FEF71A
:102B100021FC012836D00B210020FEF71BFC0128E8
:102B200032D00C210020FEF715FC01282ED00D21FB
:102B30000020FEF70FFC01282AD00E210020FEF70E
:102B400009FC012826D00F210020FEF703FC0128F4
:102B500007D10F2102E0002100E001210020FEF753
:102B6000DDFB00BD0221F9E70321F7E70421F5E7CA
:102B70000521F3E70621F1E70721EFE70821EDE75B
:102B80000921EBE70A21E9E70B21E7E70C21E5E75B
:102B90000D21E3E70E21E1E710B51E2002F054FFFE
:102BA0000549044808621E2002F05AFF034901202B
:102BB000087010BDFFFF00000060044019000020F5
:102BC00010B51D2002F040FF01200649C003086235
:102BD0000548016901229204114301611D2002F0A0
:102BE0003FFF10BD008004409008002010B51C205D
:102BF00002F02AFF1F200649C0010862054801694A
:102C000001229204114301611C2002F029FF10BD32
:102C100000A004409008002070B50D4D0D4E00241A
:102C2000295D305DFEF7D4FB641CE4B20F2CF7D3B2
:102C300029783078FEF732FB322002F087FD064813
:102C40000068000602D405490120087170BD00002B
:102C5000855C0000705C000000A0044010000020B3
:102C600010B50C490879002812D0084610380278AF
:102C7000002A0DD0002202700868074B401C086033
:102C8000984205D30A71FF21F9310448FDF746FB4C
:102C900010BD0000100000203075000080030020EF
:102CA00010B507210020FEF7F9FA642002F04EFD6E
:102CB00007210020FEF78CFB442001F0FDFD0320DE
:102CC00001F0FAFD022001F0F7FD032001F0F4FD10
:102CD000082001F0F1FD02490020887110BD0000BC
:102CE0005000002006480178002908D0002101701A
:102CF000012141708170C170017141718171704712
:102D00001B000020F8B500254248471900974037BE
:102D1000387D002878D00024387DE040C0076FD08F
:102D20003D4E0020307200982030807AE040C04351
:102D3000C00707D00120307229462046FEF754FF15
:102D400000F056FB3448007AFFF7E2FC002801D07F
:102D500000BF50E02B461820434330481918A0000C
:102D60000E582F49097804290DD12E492D4A09788A
:102D70000B328A5C002A06D0FF22C13251432A4A14
:102D80008918C9180E582749142209785143274A2F
:102D90008918495DE140C9072DD0542122464A4394
:102DA00023495118AA008B58002B19D01A490A7AC6
:102DB000002A09D0497A002912D01E4E012132582A
:102DC000A9400A4332500AE01A4901220958AA4090
:102DD0008C46114204D01749664696430E501E4653
:102DE0000D482946027A2046FDF76CFE0A48017A12
:102DF000304600F021F8397D0120A040814339752B
:102E0000641CE4B2062C87D36D1CEDB20F2D00D2EA
:102E10007AE7F8BDCC0000201B000020C46D000044
:102E20005D0000202C06002040C8000040EA0000A1
:102E300094640000D401002003B581B06846027993
:102E40000198130002F0E6FD10090C0F12150B1883
:102E50000B1B1D200B0B2326290BFEF74BFD0EBD74
:102E6000FFF798FD0EBDFDF751FB0EBDFFF77AFD94
:102E70000EBD00F0BDFE0EBD02F0F2FC0EBD0090D6
:102E80000EBDFFF719FC0EBD00F098FF0EBDFEF75A
:102E90007DFD0EBDFEF7A0F90EBD01F077F90EBD68
:102EA000F8B500246E48015D6E48005DFEF7F6F946
:102EB000641CE4B20F2CF5D36B4C2078030002F0B5
:102EC000A9FD10161616161616161616161616162E
:102ED0001616091601F078F8002000F0A7FE00F0A1
:102EE000CFFC01F079F8FF216048F53141605E4880
:102EF00006780F2E7ED0FF38B100F9380C186078B4
:102F0000BE2148436421FDF71EFA584D4035286024
:102F1000A078BE2148436421FDF715FA6860E07887
:102F2000BE2148436421FDF70EFAE860274640378A
:102F3000787DBE2148436421FDF705FAA861B87D7C
:102F4000BE2148436421FDF7FEF92861F87DBE21CA
:102F500048436421FDF7F7F968616037787ABE214C
:102F600048436421FDF7EFF96862B87ABE2148430F
:102F70006421FDF7E8F9E861F87ABE21484364214D
:102F8000FDF7E1F928624037787FBE21484364218C
:102F9000FDF7D9F92863B87FBE2148436421FDF7C6
:102FA000D2F9A862F87FBE2148436421FDF7CBF92E
:102FB000E8626037787CBE2148436421FDF7C3F99D
:102FC0002A494863B87CBE2148436421FDF7BBF918
:102FD0006863F87CBE2148436421FDF7B4F9A86317
:102FE00060377879BE2148436421FDF7ACF91F4969
:102FF000886300E015E0B879BE2148436421FDF7FD
:10300000A2F91A490863F879BE2148436421FDF703
:103010009AF91649C8631248815D1248805DFEF72F
:10302000D7F911490878401CC0B20870102815D390
:1030300000220A700E490878401CC0B208700228AD
:103040000AD10C480A704078012805D00A48007857
:10305000002801D1FEF70AFFFEF7ACFFF8BD000023
:10306000855C0000705C00007805002000200040B6
:103070004C0000202C0600205400002010B52B48E6
:103080000168802211430160294A2F209060FF20AF
:10309000274BFF30803318602549002040310860FD
:1030A0004860C8608861086148614862C861086218
:1030B00008638862C86250634863886390631063E2
:1030C000D0631C49596199611B491962D9611B4B35
:1030D0001960D16993141943D161D169531419430B
:1030E000D161D16913141943D161116802231943C5
:1030F000116011688907FCD411680123194311601C
:103100000F4A190411600F4A11600F4908700F48E7
:10311000FF210079F931002804D0FF220C48FDF787
:10312000D8F810BD0A48FDF7F9F810BD00E00540D9
:103130000020004055555555F0FB7F00002004400D
:1031400080E200E000E100E07805002010000020AF
:103150008003002000280ED00748417B0246203221
:103160004B1E5078022B01D8012102E0002902D128
:1031700002210843507070475000002010B5032111
:1031800001220846FEF704F9032100220846FEF753
:10319000A3F803210846FEF71BF9012204210320AE
:1031A000FEF7F6F8002204210320FEF795F804212B
:1031B0000320FEF70DF9012206210020FEF7E8F8B2
:1031C000002206211046FEF787F806210020FEF7B0
:1031D000FFF8012207210020FEF7DAF8002207217C
:1031E0001046FEF779F807210020FEF7F1F80122DA
:1031F00011460020FEF7CCF8002201211046FEF710
:103200006BF801210020FEF7E3F8002101220846B7
:10321000FEF7BEF8002211461046FEF75DF80021C9
:103220000846FEF7D5F8002209210120FEF7B0F884
:10323000022209210120FEF74FF800220821012077
:10324000FEF7A6F8022208210120FEF745F810BD7E
:1032500010B5FDF7CFFB03210846FEF7B9F80421AE
:103260000320FEF7B5F806210020FEF7B1F8094863
:10327000407B030002F0CEFB0504060606090D00A4
:10328000032100E00421032001E006210020FEF7D5
:1032900005F810BD5000002010B5294C20780028FA
:1032A0004DD06068401E606049D1A0686060617860
:1032B000012908D02046007C401CC0B2022917D04A
:1032C000032915D015E0E068401EE06011D101200F
:1032D00020740020207003210846FEF779F80421AD
:1032E0000320FEF775F806210020FEF771F800E0D4
:1032F000207403210846FEF76BF804210320FEF733
:1033000067F806210020FEF763F80E48407B0300B3
:1033100002F080FB05040909090F1500207CC00795
:103320000DD1032103E0207CC00708D10421032034
:1033300003E0207CC00702D10621FDF7AFFF10BDDE
:103340000C060020500000200449002008700448AA
:1033500001684022114301607047000020060020F0
:1033600000400440054801210170416000210172C4
:103370000348016840221143016070472006002085
:103380000040044070B51848017800291DD04168FC
:10339000491E416019D1067A01246425134940224F
:1033A000330002F037FB05040613151812000472EF
:1033B00001E002230DE0456008680B684006C00F7D
:1033C00060408001934303430B6070BD032300E022
:1033D00004230372EFE7002303727D23DB004360C5
:1033E00008681043086070BD2006002000400440BB
:1033F0000C49487B002805D0012803D0022801D0C1
:1034000003280DD10A7A0020002A02D1054A24326D
:1034100010600A79002A02D0034B01221A70087149
:1034200070470000500000204800002010B50748F9
:1034300000680105064805D401210170084601F025
:10344000FFF810BD0021017010BD000000A0044075
:103450001A00002010B508210848FCF75FFF084853
:103460000024046044608460C460044803210D3873
:10347000FCF754FF01481A38C47110BD3500002014
:10348000C40100200548002101700548054A01607B
:1034900008461154401C3828FBDB7047C000002050
:1034A000C4000020FC08002010B507210020FDF713
:1034B000F5FE0B49002008700A4988700A46C8705A
:1034C0002432106050710871121F10600872487821
:1034D000002803D00021012000F0C8FB10BD00002F
:1034E0000C06002050000020F8B57D4C0021607AC9
:1034F00000287DD0A07A401CC0B2A0720A2877D3E1
:103500000026A672774866720278002A36D00670C6
:10351000764B754A1B6850789D1EA8422ED101201B
:103520005D1E03E0175C7918C9B2401CA842F9D3AC
:10353000D0182038C07F88427ED1107855287BD1A2
:10354000674F6B499078203789787B7801259328DD
:1035500073D00CDC862833D004DC812812D082287A
:103560006CD119E091287BD0922867D183E0B128F3
:1035700066D004DCA12801D0A2285FD1A7E0C12831
:103580005CD191E0D278002A56D14006400E8142AB
:1035900052D101F0F1F811E0D278002A4CD1400666
:1035A000400E814248D101F0E7F8607B042804D046
:1035B000A078002802D0A670E57088E0257086E02B
:1035C0004006400E814237D101F0D6F84448D17808
:1035D0000F300170424910791031087000F092F8F4
:1035E0003F48434A0F3000780007C10F283200E0FF
:1035F00075E0107881420FD0A07C401CC0B2A0744E
:103600000A280AD3A6741170002902D0FFF7AAFE77
:1036100003E0FFF799FE00E0A67431480F3001780F
:10362000C80612D5E07C401CC0B2E0740A280DD355
:10363000E674A570387804E047E024E031E00FE05C
:103640002BE020221043387000E0E67460780028F8
:103650003DD048072749400F08702748057036E0DD
:103660004006400E81421CD02448802105703878E5
:103670000843387029E04006400E814211D02048AE
:103680002B43057007E04006400E814209D01C48DC
:103690000570022003437B7017E04006400E814214
:1036A00013D101F069F812E0D278002A0DD140065A
:1036B000400E814209D101F05FF8607B002806D1FD
:1036C000A570032000F0BCFF01E000F0C7F8064938
:1036D00000200E54401C3828FBDB04480660F8BD6F
:1036E00050000020C0000020FC080020C400002082
:1036F000F8050020A4080020460000201C0000203F
:1037000020000020F8B5494F4948394649783E46DF
:1037100024368C4631467A7B143901254078097865
:103720000024002A18D0521E022A30D8022947D07D
:10373000032945D0002951D001295ED006296AD03D
:10374000052901D0042922D1032868D07D21C90090
:10375000032000F08BFA62E0344A890710321278B5
:103760000C23890F1A40002912D001290FD1082AF1
:103770001FD00C2A0BD16046002808D13C70346061
:103780007D707D213C720901012000F06FFAF8BDC7
:10379000002A01D0042AECD1032803D07D21C900DE
:1037A00003200AE07878002800D034603D707C70F7
:1037B000F8BD0228F6D0C821022000F057FAF1E740
:1037C0006046002808D13C7034607D707D213C72D9
:1037D0000901012000F04AFA7C74F8BD787C401C95
:1037E000C0B278740528F8D310497C74BD702031BC
:1037F0000878202210430870F8BD022803D0C821A1
:10380000022000F033FA7878002800D034603D7050
:103810007C703D72E0E7032801D0C82198E77878F2
:10382000002800D034603D707C70D5E75000002047
:103830000C06002000B50849087800280AD048780E
:10384000401CC0B24870962804D30020087048700D
:1038500000F004F800BD00006400002000B5074936
:103860000120887100224A71087B401CC0B2087395
:10387000032802D30A7300F07FFF00BD5000002030
:10388000F8B5474F0024464D395D153D285D0122AE
:10389000FDF77EFD395D285D0022FDF71DFD395DD8
:1038A000285DFDF795FD641C0F2CECDB00243C4DDE
:1038B00000221B3DAE1F295D305DFDF769FD295DCE
:1038C000305D0022FDF708FD641C062CEFDB0024B0
:1038D000334E395D153E305D0122FDF759FD395DEE
:1038E000305D0022FDF7F8FC395D305DFDF7D6FC58
:1038F0002C48C02100680004C50F2B48026812053F
:10390000D20F5200154302685205D20F92001543A0
:1039100002689205D20FD200154302680068D205F2
:10392000D20F120115430006C00F400105430D439D
:10393000395D305DFDF74CFD1C4802191046203002
:10394000817AA94201D0857206E0C37F994203D0F3
:103950004B4040321375C177641CE4B20F2CB7D3CF
:103960000F4D00241B3DAE1F295D305D0122FDF788
:103970000FFD295D305D0022FDF7AEFC295D305D55
:10398000FDF78CFC641C062CEEDB054D0024153D78
:10399000395D285DFDF782FC641C0F2CF8DBF8BD57
:1039A000855C00000080044000A00440CC000020A2
:1039B00000B507480178002909D000210170402294
:1039C0000449054800F0E4FE04490120087000BDE8
:1039D000840000202C06002000C8000048000020C1
:1039E00010B508210648FCF799FC10210548FCF7A2
:1039F00095FC0549012008700449087010BD0000BD
:103A000035000020C40100201C0000201D00002003
:103A100010B506210348FCF781FC0349012008701A
:103A200010BD00002F0000201E000020F8B55A4FE6
:103A3000B87900287ED00020B871012457492004AD
:103A40000860BFF34F8FBFF36F8F40225449554832
:103A500000F09EFE524A40215348FDF779F9B979AA
:103A6000084300D00120B8714E48FF223C70C1329B
:103A70004E49403000F08CFE0025FF212846C13120
:103A800048434B4900244618A101484A70188A1837
:103A90004021FDF75DF9B979084300D00120641C8D
:103AA000B871072CF0DB6D1C082DE6DBA0223F4926
:103AB000404800F06DFE3D4A40213F48FDF748F97F
:103AC000B979084300D00120B871384A3A484032E9
:103AD000154640214030FDF73BF9B979084300D045
:103AE0000120B871314A3448803214462021803098
:103AF000FDF72EF9B979084300D00120B8712D489F
:103B0000FF2241322949A03000F042FE274A4021DD
:103B10002A48FDF71DF9B979084300D00120B87192
:103B200026482A4640214030FDF712F9B97908436A
:103B300002D000E02EE00120B8712048224640214A
:103B40008030FDF705F9B979084300D00120B8713C
:103B5000164A1A48C0324021C030FDF7F9F8B97949
:103B6000084300D00120B871154A40211548FDF7DF
:103B7000EFF8B979084300D00120B8710749012056
:103B8000000480390860FFF743FFFFF729FF0E4963
:103B900000200870F8BD00008400002080E100E0F3
:103BA0002C060020846D000000C800006C06002078
:103BB00040C80000A466000040EA000000EB0000DE
:103BC0006C07002000EC0000220000200749087864
:103BD000002809D04868FF22401C2D3248609042DE
:103BE00002D3002008704860704700007C0000206D
:103BF00033B5002915D00C4A684640781346002595
:103C00000121143B012808D0FF24022807D00328F3
:103C100008D0042805D1547102E0157100E0147138
:103C2000D9703CBD5571FBE72F000020F8B50E4E52
:103C3000002435460746123D315D285D0122FDF71F
:103C4000A7FB315D285D0022FDF746FB315D285D55
:103C5000002F02D0FDF7BCFB01E0FDF71FFB641C49
:103C6000122CE9DBF8BD00004064000070B5154C73
:103C700001250A466070012810D0FF21022815D0C6
:103C800003280AD125707D262174F600314610469E
:103C9000FCF759FBA6606560E06070BD25700020F0
:103CA000207402206560E060074808E025702174F8
:103CB000C8211046FCF747FB6560E060C820A060A3
:103CC00070BD00000C0600201027000010B5054C48
:103CD0000123A371034B062410331C705870997094
:103CE000DA7010BD1B000020F8B5154600240E4602
:103CF0000746A94205D3701BC1B20124384601F022
:103D0000EDFE7019162804D8C1B23846641C01F0C3
:103D1000E5FE2046F8BD0000F8B5224E707B00900D
:103D2000042820D23546377870782035BE46844640
:103D300087432B1D1868297820240246214301243B
:103D4000401C002F16D0009F367A002F154F0BD045
:103D5000002E0DD0144EB24205D21860B04202D1EE
:103D6000BC7029705C71F8BD002E01D00F4EF2E7D7
:103D70000F4EF0E766467746BE43F4D00D4EB24292
:103D8000F1D2094A1860904206D3064A1379002BF3
:103D900002D11471084A1470B042E4D3014884700F
:103DA0002970F8BD50000020C0D40100307500001B
:103DB00010270000C02709004800002003B568460E
:103DC000407801280FD0022810D003280AD10029FA
:103DD00008D00B480123017813300A5C5A400A547A
:103DE000084803700CBD084841720CBD074A1023F7
:103DF0001068002901D0184300E0984310600CBD02
:103E00002C060020850000201B0000203801002027
:103E1000F8B529480022C2602849CA604B690122CE
:103E2000D20313434B614469C3141C434461456985
:103E3000041525434561466945152E43466146698B
:103E400087153E434661466980273E4346610E6AB8
:103E500016430E62066A1E430662066A264306621F
:103E6000066A2E430662066A87153E430662066AA4
:103E700080273E4306628E6916438E61816919432D
:103E800081618169214381618169294381618169FE
:103E900082151143816181698022114381611C2057
:103EA00001F0C6FD1C2001F0EBFD1D2001F0C0FD5E
:103EB0001D2001F0E5FDF8BD00A004400080044095
:103EC00010B500F09DF800F06FFC012013490004CC
:103ED0000860BFF34F8FBFF36F8F114CE069A114DF
:103EE0008843E061102001F0A3FD206840084000F5
:103EF000206000F069F80B4801688022914301605E
:103F0000142001F023FCFDF731FCFFF737F9002006
:103F1000FCF70CFB322001F019FC10BD80E100E041
:103F20000020004000E0054070B522498878002854
:103F300016D00022204D8A702868204C860508463D
:103F4000C3681F485B1C0078002E0CDB2E68F6054A
:103F500009D5002805D0CB601E2B01D3CA60227082
:103F600070BDCA6070BD2E68F60514D42E68B60503
:103F700011D50128F5D00228F3D00328F1D0CB6069
:103F80001E2BEFD30F48CA608078411E022900D94A
:103F90000120207070BD2E68B605FBD52D68ED059B
:103FA000F8D50428DDD0CB601E2BF3D30420CA60E3
:103FB000EFE7000000000020006004405E000020E9
:103FC0005D0000202C060020024800210162C16132
:103FD0007047000080200040034802490162C1612F
:103FE00070470000F0FB7F0080200040034881699B
:103FF0000122D20311438161704700000000064096
:1040000002480169490849000161704700E000E089
:104010000449FF20886104490120087003490870A1
:104020007047000000E000E00200002000000020D7
:1040300010B500F013F807487D21C9000068FCF7AF
:1040400082F90549401E4861FF2088610720086108
:1040500010BD0000C800002000E000E010B51F4ABD
:10406000D0681F4CC006C00F04D0002807D07D20A8
:10407000000203E01068012801D11A48206010698D
:104080004007400F030001F0C5FC080507090B0DB0
:104090000F11131401210CE002210AE0042108E0B1
:1040A000082106E0102104E0202102E0402100E088
:1040B00080212068FCF747F90B4A0C4920609042A8
:1040C00001D90B4807E00B4A904202D90848801EEC
:1040D00001E00748401F086010BD000000000640D6
:1040E000C8000020006CDC0200366E010020064093
:1040F0000500FA5A001BB7000B480A490160491C29
:1041000001600A48012101608168C907FCD00021D3
:10411000C160C1684906490FFBD10169C908C900DE
:10412000016170470400FA5A002006400000064072
:1041300010B51148007803281DD8104800780028D1
:1041400019D00F4801690922D20691430161FFF796
:10415000B7FEFFF75DFEFFF77DF9322001F0F6FABA
:1041600008490220086030BF01F090FBFFF79CF97E
:10417000054801F0EBFA10BD5D000020530000205F
:1041800000C005404020034050C3000073B5002923
:1041900014D00B480078002803D10A48007804287E
:1041A0000CD1684640780124074D002803D001282F
:1041B00001D0022802D1FCF729FC2C707CBD000044
:1041C000510000205D00002066000020F8B5754C0D
:1041D000A0796179084330D12046214620300A7900
:1041E0000078497B2646C70724364B1E0025002F42
:1041F00024D04008371F40003870012020706570BF
:104200003560002A01D0684A107068482571057031
:104210002572022B02D87D21C90005E0002902D0B9
:10422000042903D006E00321032001E0002101203E
:10423000FFF71CFD607B00F0AFF9F8BD870720D5C4
:10424000FD273840574F2037387001272770657099
:104250003560002A01D05448077054482571057014
:10426000022B04D9002902D0042903D006E0C8217A
:10427000022001E000210120FFF7F8FC2772002056
:104280001DE0470703D4070701D4C7061AD5E32763
:104290003840444F203738700127277065703560EB
:1042A000002A01D0404807702571022B01D900294E
:1042B00003D1C8210220FFF7D9FC2772022000F0A9
:1042C000BFF9F8BD374F2037830607D5032000F02C
:1042D000B7F93878DF2108403870F8BD314BC7098D
:1042E0001B789C462F4B5B781FD0581E08422D49E7
:1042F000097A02D1002906D006E0604698430DD025
:1043000000290AD00AE03560002A02D0264801219F
:104310000170257100F05CF900E035602148203023
:1043200001784906490E0170F8BD1E4920314978CF
:104330008F0710D5002B08D03560002A02D01A480C
:1043400001210170257100F0A7F81648FD222030E8
:104350004178114011E0CF0711D0002B08D0356013
:10436000002A02D0104901200870257100F0C4F81D
:104370000C4820304178490849004170F8BD094D8A
:1043800020354006FAD560461843F7D0A078E1788A
:10439000084301D100F046F82878BF210840287072
:1043A000F8BD000050000020480000200C0600204E
:1043B000F8B5194EB079717988432CD00020B071CE
:1043C0000721FCF76BFF642001F0C0F907210020F2
:1043D000FCF7FEFF012711483F040760BFF34F8F32
:1043E000BFF36F8F0E4D287800F066FA002404E0CA
:1043F0002819407800F060FA641C6878A042F7DC65
:10440000E87C00F059FA01200349707114310870FA
:10441000024880380760F8BD5000002080E100E0CD
:10442000F805002010B51049487B012805D0002868
:1044300003D0022801D0032815D100200122C86131
:104440008A710A4944220A7002234B7006228A703C
:10445000C87401205B1C04E0CA7C0C5C1219CA748D
:10446000401C8342F8DC10BD50000020F8050020FD
:104470000849487B03280CD8C869401CC861AA2891
:1044800007D30020C861084620300178402211433C
:10449000017070475000002010B5134B1348197875
:1044A00082799143427991431DD0417B00291AD1F1
:1044B00000221A70012181710D49442008700423E3
:1044C0004B70132088700B484478CC70807808714A
:1044D0000120CA745B1C04E00C5CD2B21219CA74CD
:1044E000401C8342F8DC10BD20000020500000205A
:1044F000F805002028000020F0B5224A2249107853
:104500008B7998434B7998433BD0487B012803D063
:10451000022801D0032834D10020107001251B4A45
:104520008D71442010700624547012209070184829
:10453000174E837840781B0203437078B6780021C9
:1045400030430BD0134E00204700F75F9F4202D14B
:104550002946814002E0401C2028F5DBD170080A82
:104560001071080C5071080E90710020D074012059
:10457000641C04E0D17C135CC918D174401C8442D3
:10458000F8DCF0BD2000002050000020F8050020DD
:10459000280000205264000010B50B4901228A71E6
:1045A0000A4944230B7003234B708A70C8700020A3
:1045B000C87410465B1C04E0CA7C0C5C1219CA74F7
:1045C000401C8342F8DC10BD50000020F80500209C
:1045D00010B5174917480A7883799A4343799A4363
:1045E00024D000230B7001218171134944200870ED
:1045F00009224A701120887010480478CC708478A1
:104600000C71C4784C7104798C714479CC718479C3
:104610000C72C07948720120CB74521C04E00C5C0F
:10462000DBB21B19CB74401C8242F8DC10BD0000C9
:104630001C00002050000020F8050020350000205C
:1046400010B50B4944220A7003234B7002228A7072
:10465000C8700020C8740120064A5B1C907104E0F9
:10466000CA7C0C5C1219CA74401C8342F8DC10BD71
:10467000F80500205000002010B50E498A794B79CA
:104680001A4315D101228A710B4944220A7003236F
:104690004B7031228A70C8700020C87401205B1CE6
:1046A00004E0CA7C0C5C1219CA74401C8342F8DC1A
:1046B00010BD000050000020F8050020F8B50024CF
:1046C000204807193E464036307D002832D000256C
:1046D000307DE840C00729D01B49002008702A20FF
:1046E000C05DE840C043C0071BD001200870012D09
:1046F00017D1012C0AD0022C0AD0032C0AD0072C87
:104700000AD0082C0AD0092C19D00AE0032006E0B0
:10471000042004E0052002E0002000E00120FFF773
:10472000ABFF317D0120A840814331756D1CEDB296
:10473000062DCDD3641CE4B20F2CC1D3F8BD0220EA
:10474000EDE70000CC0000202300002010B5084851
:104750000178002904D000210170064800F0F6FF1E
:10476000FFF7ACFFFFF724FEFEF7BEFE10BD000012
:1047700018000020A0860100044900200873C872B8
:1047800048711431087048707047000050000020D4
:1047900010B5002304E004780C70401C491C5B1C1D
:1047A0009342F8D310BD00000548016B4908490049
:1047B000016304480168012292049143016070473B
:1047C0000020014000E0054078B5234881680125BC
:1047D0000026224A2FE00907490F012929D0022982
:1047E00014D0032902D0072924D122E041690B0605
:1047F00020D54B0701D5036800930B0701D503684B
:104800000093C90616D50168009113E0416915703F
:10481000C90709D00368124C51686354491C5160A0
:1048200010490D7010490E705168382902D1566038
:1048300000E041698168CB07CDD0CA0503D5016A84
:10484000FF22013204E0890504D5016A01225202E7
:104850001143016278BD000000200140C00000202B
:10486000FC080020590000205A0000200E48016872
:1048700001229204114301600C488321C160102180
:104880008162002141600C210160C1688022914356
:10489000C1600721816006494160C121016305496A
:1048A000D00108607047000000E005400020014092
:1048B0001703000000E100E0024908604869400673
:1048C000FCD570470020014000B542494878CA78BD
:1048D00090430122002816D00879002306280CD026
:1048E00007280DD0082805D009284B7001D13A4877
:1048F000027000BD4B703948FAE74B703848F7E753
:104900004B703848F4E708780028F2D03648007831
:10491000802838D009DC030001F07CF80C5914170A
:104920001A1D20292C2F322326598138030001F02B
:1049300071F80F2D303336393F4245484E3C4E4ECC
:104940004E4B4E00FCF70CF800BDFBF7F5FF00BD29
:10495000FBF764FF00BDFBF7C3FF00BDFBF74AFF99
:1049600000BDFCF70DF800BDFBF7A2FF00BDFBF793
:104970008DFF00BDFBF766FF00BDFBF775FF00BDB7
:10498000FCF70AF800BDFBF739FE00BDFBF704FF9A
:1049900000BDFBF7F1FE00BDFBF752FE00BDFBF7CB
:1049A000AFFE00BDFBF73AFE00BDFBF799FE00BD70
:1049B000FBF77AFE00BDFBF755FE00BDFBF7C4FE1A
:1049C00000BDFBF7FBFE00BDFBF708FE00BD0A7053
:1049D00000BD00008C00002089000020870000201E
:1049E00086000020880000206C06002070B51B4D5A
:1049F00028784406640E000602D5002000F086FAEE
:104A0000002C1CD0022C19D1A878002816D12879A6
:104A100000224006400E124BE103002819D0022864
:104A200001D904280AD1AC68012C07D11A5428698D
:104A3000084328610021084600F03CFA70BDA878C0
:104A40000128FBD12869802188432861286905490C
:104A5000EEE728698006F1D51A70E8E79008002093
:104A6000A0000020000101000349CA6B012383401C
:104A70009A43CA637047000000C005401B06120439
:104A8000134309020B4318437047000003480169B0
:104A90000348C840401EFDD2704700000000064099
:104AA000DC050000034801690348C840401EFDD2F0
:104AB00070470000000006408038010070B50120FA
:104AC0001D4E8005B0601D4DA87C022815D1002028
:104AD000A87468691A4988420DD1A86919498842A1
:104AE00009D10024A000002101F038F8641C402CFA
:104AF000F8D3FBF739FB0420A874134C2069134D3D
:104B0000400609D52069402188432061207BF06060
:104B1000002000F0FBF907E0E088002808D02069B9
:104B2000C00305D400F0A4FD2069A843206170BD36
:104B3000002000F0EBF970BD00C00540A408002083
:104B4000AA55A55AFF0033CC9008002000000100B0
:104B5000F8B50121284849058160284DA87C284FD7
:104B6000284E01281DD0686D800512D5686D091387
:104B700088436865002000F0DFFF38682870686DA2
:104B800001214903084368651F4901200870FEF7A9
:104B9000A9F83069000420D40021084600F08AF901
:104BA00024E00024A000074600F0C6FF1448006877
:104BB00079194861641C102CF4D30220A874686928
:104BC00012498842E5D0A86911498842E1D00B48D2
:104BD000F1881430FCF78EF8DBE707484168C9011B
:104BE00004D481690122D206114381613069012117
:104BF000C90388433061F8BD00C00540A408002007
:104C0000BC0000209008002046000020AA55A55AAC
:104C1000FF0033CC7CB53320204CC004A0600020C2
:104C200000F06AF96068400330D41D4C206903210C
:104C3000C90388432061002000F07EFF194D2868D9
:104C40000090042000F078FF286801900098C0B21E
:104C500020700099090A61700099090CA1700099EF
:104C6000090EE170019921710199090A6171019997
:104C7000090CE1806021084002D0202803D008E020
:104C800000F028FC7CBD00F00DFA7CBD0120800402
:104C9000A060002000F03AF97CBD000000C0054093
:104CA00090080020BC00002070B51B491A48243130
:104CB0008D680168002901DB022070BD0068400F8B
:104CC000042827D115484078002804D0012000F09E
:104CD0001DF9032070BD1248017800291AD0002167
:104CE000104C0170601CFBF71DFB01022078014392
:104CF000284600F041FF601DFBF714FB01022079FC
:104D00000143281D00F038FF0821012000F0D2F8EF
:104D1000002070BD012070BD1CC00540A000002017
:104D20001C0000203500002070B556495548203140
:104D3000CC680168002901DB022070BD0068400FCB
:104D400004287DD150488078002804D0022000F04B
:104D5000DDF8032070BD4D4900200A784C4D002A33
:104D600016D00870012028702846FBF7DBFA0102F4
:104D7000E878090A00060143204600F0FDFE687944
:104D80002A7901021143201D00F0F6FE062172E08F
:104D900040490A78002A0CD008703F48022101706F
:104DA0004178007809020143204600F0E5FE022127
:104DB00061E03A490A78002A0DD00870384903208A
:104DC00008700846FBF7AEFA0102090A204600F017
:104DD000D3FE03214FE033490A78002A10D008702F
:104DE000062028703048FBF79DFA01022E48090A78
:104DF000C07800060143204600F0BEFE04213AE0E0
:104E00002A490A78002A3BD00870294D05202870CD
:104E10002846FBF787FA0102E878090A00060143F1
:104E2000204600F0A9FE281DFBF77CFA0102E87974
:104E3000090A00060143201D00F09EFE284600E0FE
:104E40001EE00830FBF76EFA0102E87A090A000654
:104E500001432046083000F08FFE28460C30FBF757
:104E600061FA0102E87B090A0006014320460C3082
:104E700000F082FE1021022000F01CF8002070BD1E
:104E8000012070BD20C00540A00000201E000020B1
:104E90002F0000201F0000202600002020000020FE
:104EA00028000020210000202B0000201D000020F1
:104EB000C4010020042806D8034A80008018052277
:104EC000520789180160704718C00540421E032A26
:104ED00004D8034A800080188038C16770470000FA
:104EE00048C00540042804D8024980004018002129
:104EF0000160704718C00540042804D802498000AA
:104F0000401809070160704718C0054004280CD8F4
:104F1000064A81008918002804D1044818384068DE
:104F2000C00102D4072040070860704718C0054040
:104F300070B50F4DA968002000F010FEA868012888
:104F400009D101242046FFF7D7FF641C022CF9D9B0
:104F50000420FFF7D1FF07490020086028690321DA
:104F600089030843286101210020FFF7A3FF70BDDA
:104F700090080020AC000020F8B5184F0020FA7807
:104F80003D79174BBC7884460C26014671435E5C24
:104F9000B24210D1C9184E78B5420CD18E78B442C5
:104FA00009D10C225043C0180E4A808810608868CE
:104FB0000D49086005E0401C1228E5D36046002832
:104FC00007D038690121C9030843386100F050FB5C
:104FD000F8BD0020FFF79AFFF8BD00009008002000
:104FE00034710000AC000020A800002010B50E4C69
:104FF000A068012814D12078812811D120790228B5
:105000000ED80A49095C002000F0A8FD20690121A2
:10501000C9030843206101210020FFF74BFF10BDA9
:105020000020FFF773FF10BD90080020B0000020A3
:1050300070B51A4D28784406640EC00901D1FFF7F7
:1050400065FF0126F603002C17D0012C1CD0022C82
:1050500012D128794006400E022801D904280BD12C
:105060000F49095C002000F079FD28693043286170
:1050700002210020FFF71EFF70BD2869000601D540
:105080000221EFE70021EDE7A8680128F4D1687953
:105090000028F1D128790228F4D970BD90080020A9
:1050A000A000002010B511484078030000F0B2FCC9
:1050B0000C19070A0D191919191910131619FCF7EB
:1050C00039FA10BDFCF7EEF910BDFCF70FFA10BD70
:1050D000FCF700FB10BDFCF7B1FA10BDFCF7D0FAED
:1050E00010BD0020FFF712FF10BD00009008002047
:1050F00004487D21017401214174002181744165BE
:1051000070470000A4080020F8B5384D6C68384896
:10511000A860002C0AD0600F18D00026354F002C54
:1051200007DA00F0FDF800F0D3F80DE000F0F8F831
:10513000F8BD600002D500F079FA4CE0A0004AD535
:1051400000F0EEF800F0DEF83E7044E02002C00E01
:1051500018D0200202D5FFF75DFD3CE0600202D5C9
:10516000FFF7ACFC37E0A00202D5FFF7F1FC32E01C
:10517000E002800F2FD00320C004A8600020FFF7BA
:10518000C5FE28E02005000F13D0E00502D5FF2062
:105190000130A860A00502D501204002A86060058A
:1051A00002D501208002A860200514D50120C0028C
:1051B00010E020070FD0E00701D00120A860A00771
:1051C00001D50220A860600701D50420A86020074F
:1051D00001D50820A8606001AAD528684000A7D59D
:1051E00000F0A6F8044901200870F8BD00C0054091
:1051F000FFFFFBFE040000200300002070B500F05C
:1052000097F9FFF775FFFEF777FFFEF727FF1F48B7
:10521000016810231943016040210120FFF756FE69
:1052200080210220FFF752FEC0210320FFF74EFE2F
:10523000E0210420FFF74AFE15484021016080224A
:105240004260C0228260E022C260124801600821F0
:1052500041608360C1600161104C0F48206020688C
:10526000C90608432060012000F0EEFB0C49022033
:10527000086060610B4D322000F058FA2561074844
:105280006104403041620849C16270BD00E00540E0
:105290006C0800207C080020100000B000C0054011
:1052A00000E100E0080000F80440000000B5074AF3
:1052B00006205061FFF7EAFB05205061FFF7F2FB83
:1052C000506904218843506100BD000000C00540C2
:1052D00010B500200949C0438860094801220261D5
:1052E00000228260CA601046FFF710FE01242046AB
:1052F000FFF7F8FD641C042CF9D910BD00C005406F
:105300009008002004480169042211430161034907
:10531000D0068860704700009008002000C005405B
:1053200010B5FEF7E9FEFEF799FE00F0F3F910BDA7
:1053300001200249800688607047000000C00540D7
:1053400010B50D480169202399430161016940228C
:10535000114301618178002902D002691A43026178
:105360000173016901221204114301610021084601
:10537000FFF7A0FD10BD000090080020F8B5214EF9
:105380001F4D3069800607D5B07810210124002711
:10539000002805D0012810D00020FFF7B7FDF8BD88
:1053A000B7603069084330610127EC553846FFF794
:1053B00099FD7F1C042FF8D917E0B4603069884349
:1053C000306100242F55002C0CD02046FFF794FDAF
:1053D0000D480069611EC840C00703D00021204667
:1053E000FFF768FD641C022CECD930690121090427
:1053F0000843306100210846FFF75CFDF8BD00005E
:10540000A00000209008002000C0054070B5194D94
:1054100028784406640E000602D50020FFF776FDCA
:10542000002C05D0022C09D00020FFF76FFD70BDC5
:10543000A8780128FBD128690F4914E0A878002832
:10544000F5D128794006400E411E012901D90428D2
:10545000EDD1A9680129EAD1084A1154FFF756FD98
:105460002869012109040843286100210846FFF743
:1054700021FD70BD9008002080010100A0000020E7
:1054800010B5114CA06801280CD1104A002001462B
:105490001154401C0428FBD92079022802D8A27894
:1054A000002A03D00020FFF731FD10BD084A115437
:1054B000FFF7DAFA2069012109040843206100217D
:1054C0000846FFF7F7FC10BD90080020A000002060
:1054D000B000002010B515484078030000F09AFA9B
:1054E0000C070A220D2210132216191C1F22FFF787
:1054F0009FFD10BDFFF77AFA10BDFFF787FF10BDC3
:10550000FFF71EFF10BDFFF737FD10BDFFF710FDC1
:1055100010BDFFF733FF10BDFFF768FD10BDFFF7AB
:10552000AFFF10BD0020FFF7F1FC10BD9008002078
:1055300000200E4A01461154401C0528FBD30C4A9A
:1055400000201154401C0428FBD30A48017041700C
:105550008170C17001714171C18081600173016905
:10556000012252041143016170470000A000002095
:10557000B00000209008002070B5244D2869022159
:105580008843286122480078012822D02149224AF4
:10559000224B234C0020D1606668760019D5401C50
:1055A0009842F8D36068400013D520690921C906E4
:1055B00088432061FEF784FCFEF72AFC28690A2054
:1055C00000F0C4F800F03AF86068400002D4FFF739
:1055D000A7FE70BDFBF704FA12490420086030BF33
:1055E000FFF79EFE29691048884307D128690121E9
:1055F000890488432861A868012802D0FFF790FE3B
:1056000001E0FFF753FE00F041F970BD9008002063
:10561000B4000020AA55FA5A00000140E0750900C4
:1056200000C005404020034080000400024801699A
:10563000022211430161704790080020094A0023AB
:10564000136009480121C160C168C906FCD5022167
:105650000161036005481060106849070843106045
:105660007047000000C0054000000640100000B078
:10567000F8B52348244E046822483168C08888421F
:1056800000D230603068214F00281FD00025E37819
:10569000A27861782078FFF7F1F90146A80000F0C0
:1056A0005DFA6D1CEDB2241D102DF0D3306838600A
:1056B000306840281BD340210020FFF7FBFB104837
:1056C0000168403101603068403816E0002108462A
:1056D000FFF7F0FB3868402806D00D4881690122A9
:1056E000120711438161F8BD00203860F8BD3068B1
:1056F000C1B20020FFF7DEFB00203060F8BD0000E3
:10570000A800002090080020AC000020B800002075
:1057100000C00540044801690922D2061143016115
:10572000012149068160704700C0054030B503463D
:10573000044C054D03E0EC60642000F007F85B1EAC
:10574000F9D230BDAA55FA5A0000014003490A694E
:105750005021D1404143491EFDD270470000064010
:1057600070B52E4C6079002856D000202C4D607109
:105770002878FF21413148432A4E2B4A8019402185
:10578000FBF7E6FA6179084300D0012060712878C0
:10579000FF2141314843244A8019403240214030A2
:1057A000FBF7D6FA6179084300D0012060712878B0
:1057B000FF21413148431C4A80198032402180300A
:1057C000FBF7C6FA6179084300D0012060712878A0
:1057D000FF2141314843144A8019C0324021C03072
:1057E000FBF7B6FA6179084300D001206071287890
:1057F000FF21413148438019FF300C4A40210130DC
:10580000FBF7A6FA6179084300D0012060710028F7
:1058100002D107490120087070BD000084000020FB
:105820009200002000EB00006C0600206C070020B6
:105830004800002010B5074C6078002808D0064AC0
:1058400040210648FBF784FA002800D00120607050
:1058500010BD0000840000202C06002000C80000BD
:1058600003B500290FD00849012088710648062198
:1058700010300170694649784170694689788170B5
:105880006946C978C1700CBD1B00002010B501200D
:10589000FAF74CFEFEF7A0FBFEF7CAFBFDF7EEFBA6
:1058A000FEF7E4FFFDF7D4FC01490120087010BDAC
:1058B00048000020F8B53348007804284BD1324F17
:1058C0003869324E80070025314C002814DA3148FF
:1058D000FFF73CFF30480068E1784005C00F084200
:1058E00003D06570FFF748FE06E0FDF789F8FBF787
:1058F00077F8FBF71FF93070B868012860782BD073
:10590000002813D0FFF7D0F9FFF70EFAFEF7DCFFFF
:10591000FCF70EF9FEF74CF8FFF78CFFFCF7FAFFE7
:10592000FCF7ACFFFFF71CFFFCF7A0FEFDF7EAF960
:10593000FEF77CF8207800280DD02570FDF7ACFC30
:10594000FCF746FEFCF7F2FE2079002803D0E07851
:10595000002808D0A560F8BD0028D3D101200F4948
:1059600060700870CEE7A0680D49401CA0608842B6
:10597000F1D3A560FDF744F8FBF732F8FBF7DAF84E
:105980003070F8BD5D000020900800205E0000200F
:105990000000002050C300000060044048000020C8
:1059A0001027000010B519480078002805D00128FC
:1059B00003D0022801D0032827D1FCF7B9F8FDF75E
:1059C000F7FFFDF79FF9FFF735FFFFF7C9FEFEF779
:1059D0002DF8FEF7ADFBFEF7EBFC0D480178002932
:1059E00013D000210170FDF77FFDFEF7EFFBFDF7FF
:1059F00053FCFEF73DFDFDF7C5FCFEF78DF9FDF705
:105A000019FFFEF7E3F8FCF7E3FD10BD5D00002091
:105A10000000002030B47446641E2578641CAB423C
:105A200000D21D46635D5B00E31830BC18470000E0
:105A3000002805DBC106C90E012088400149086025
:105A40007047000080E200E0002805DBC106C90EB7
:105A500001208840014908607047000080E200E0B2
:105A6000002809DBC106C90E0120884003490860EF
:105A7000BFF34F8FBFF36F8F7047000080E100E0EE
:105A8000002805DBC106C90E0120884001490860D5
:105A90007047000000E100E08307FF22DB0E9A4020
:105AA0008907090E9940002808DB830809489B00F4
:105AB0001818036893430B43036070470007000FF7
:105AC0000838830804489B001818C36993430B43A4
:105AD000C361704700E400E000ED00E0FEB52E2257
